:020000040800F2
:1000000030090020C1000008D9240008C5240008D8
:1000100000000000000000000000000000000000E0
:10002000000000000000000000000000A125000802
:100030009907000800000000DB240008A325000841
:10004000D5000008D5000008D5000008D50000083C
:10005000D50000089D070008C9070008FD07000833
:1000600000000000D5000008D5000008D5000008F9
:10007000D5000008C924000800000000D5000008D1
:1000800000000000D5000008000000000000000093
:10009000D500000800000000D5000008D5000008C9
:1000A000D5000008D5000008D5000008D5000008DC
:1000B000852D0008D50000080000000000000000A9
:1000C0000548804705480047FEE7FEE7FEE7FEE7F4
:1000D000FEE7FEE7FEE70000AD2500080548000842
:1000E00030B50B46014600202022012409E00D46D0
:1000F000D5409D4205D31D469540491B2546954058
:1001000040191546521E002DF1DC30BD03460B434D
:100110009B0703D009E008C9121F08C0042AFAD2BD
:1001200003E00B780370401C491C521EF9D2704743
:10013000D2B201E00270401C491EFBD2704700227F
:10014000F6E710B513460A4604461946FFF7F0FFD6
:10015000204610BD30B505462A460B4610781C785F
:10016000521C5B1C002801D0A042F7D0002C03D009
:10017000002802D06D1CEFE7284630BD30B504469C
:100180000020034600E05B1C934203D2E05CCD5CA0
:10019000401BF8D030BD0000F0B507460846584077
:1001A00087B0C00F049048000E4659004008490827
:1001B000BC1A884105D2384631461E4617460B46C2
:1001C00002465800400810434CD0300D03904005C3
:1001D0005900400D490D0590401A0290402872DAEE
:1001E00018030121000B09050843019004980092AF
:1001F000002805D0019952420020884100920190C8
:10020000029840210A1A0199009800F0DDF905468C
:100210000C466B4607CB00F0F8F9C0197141039A00
:100220000E0D0023D71756401A467A40164344D085
:10023000049A002A2DD0029A012A039A15DC12058D
:10024000C01A914101263605001C7141D20F059E4E
:10025000D2070093019202962A46234600F0F5F950
:1002600007B0F0BD38463146FAE71605224A0F4678
:10027000B218C01AB74101210905001C4F410018EE
:100280007F41114618187941E20F10436D196441FE
:1002900013E0E2076D0815436408C2071443039A8C
:1002A00001261205C01A91413605001C7141CE0786
:1002B000400830434908C01851412A46234600F0FF
:1002C000B7F9CDE7FFE7049801224000C117121AE1
:1002D00000238B4104983146C417381AA141EEE738
:1002E00030B40124E407634030BC55E730B4012446
:1002F000E407614030BC4FE70000E0FFF0B51FB4F9
:1003000088B00B990998002448400999C00F49000A
:1003100049080991C0070B990090490049080B91C1
:1003200009990898A64608431CD00B990A980843D7
:1003300018D0099801244000420D4800410D099849
:1003400024050003000B204309900B980003000BC9
:1003500020430B9050181C4940180022019014466D
:10036000104605E0002001460DB0F0BD032801DA7B
:10037000034600E003239C46C11A0AAE0AE05F0070
:1003800008ADED5B4F00F75B7D430027AA187C4169
:10039000491C5B1E6145F2DD410004AB5A52210449
:1003A000120C0A43240C401C0828DFDB0198029041
:1003B0000099704601910090059B049A0799069850
:1003C00000F043F9D0E700000DFCFFFFF0B50C464C
:1003D0005C4085B0E40FE40703944C0000266408F9
:1003E00059009446490802460296224321D06246AB
:1003F0000A431ED06200570D4A000E032303550D19
:10040000012402462C492405781B1B0B360B40188F
:1004100023432643614600901C46501AB44103D33F
:100420000098401C009002E0921800985B41002860
:1004300003DA0020014605B0F0BD002001210905C6
:100440000746864611E064461D46141BB54106D397
:100450006546521BB341744607430C43A646CD077D
:1004600040084908284392185B4105460D43EAD1EC
:100470001046184313D06046194650407140084357
:1004800006D06046101AB34106D20122002306E0CE
:1004900000220123DB0702E00122D243531000981F
:1004A00074460105381C6141029C039D0019694195
:1004B00000F0BEF8BFE70000FD0300000EB5C21754
:1004C000C10F5040CA0740180021054B029301920A
:1004D00000910A460B4600F0B8F803B000BD0000DA
:1004E000330400000EB505490291002100910A462F
:1004F0000B46019100F0A9F803B000BD33040000E1
:100500000EB5054A0292002200921346019200F0B5
:100510009CF803B000BD00003304000070B5CD0F9F
:100520004A0009030123090B1B0519430B4BED0777
:100530000024520D9A4201DA002070BD074B34337B
:100540009A4203DC9A1A00F04FF802E0044951186D
:1005500088402C43F1D0404270BD0000FF030000F2
:10056000CDFBFFFF4A0009030123090B1B051943BB
:10057000094B10B5520D9A4201DA002010BD064B0E
:1005800034339A4203DC9A1A00F02EF810BD034966
:100590005118884010BD0000FF030000CDFBFFFF95
:1005A00010B5002904DB0124E40740428C412146B8
:1005B000002B04DB1C460123DB075242A3418B4284
:1005C00000D1824210BD000010B5202A04DB014694
:1005D000203A9140002010BD914020239C1A0346F0
:1005E000E3401943904010BD10B5202A04DB0846B3
:1005F000203AD040002110BD0B46D340D0402024EB
:10060000A21A91400843194610BD10B5202A06DBF6
:10061000CB170846203A1041C1170B4306E00B46A2
:100620001341D0402024A21A91400843194610BD1E
:1006300010B5002B08DA0024401C614192185B4180
:100640001A4301D14008400010BDF0B51FB482B07C
:1006500005460C0003D0084602F09CFB02E002F0C5
:1006600099FB20300246009021462846FFF7ACFF58
:10067000049B059A04460F4618431143084314D0BF
:10068000184610431BD0009840210A1A18460599B5
:10069000FFF7AAFF05460E46009A05990498FFF752
:1006A00093FF084305D0012004E02046394607B0F7
:1006B000F0BD0020C11705430E432C43374300997A
:1006C0000E986305401A7905E40A00220C43FD0ADE
:1006D0000A3002D500200146E9E7010510196941F9
:1006E0000C9C0D9D00196941FFF7A2FFDFE770B573
:1006F0008C180578401C6B075B0F01D10378401CF8
:100700002A1106D10278401C03E006780E70401CC6
:10071000491C5B1EF9D12B0705D40023521E0DD4B2
:100720000B70491CFAE70378401CCB1A921C03E0BB
:100730001D780D70491C5B1C521EF9D5A142D8D3FF
:10074000002070BD034610B40020002B02D0012B06
:100750001AD100E0FF20002B01D0012B16D00C4B4A
:10076000002A11D0491ED40703D04C784440185DAC
:10077000491C520808D04C784440185D8C78891C7C
:100780004440185D521EF6D110BC7047014BE7E79C
:1007900028400008284100087047000008484169C7
:1007A00089070BD510B50221416106480068006831
:1007B0008047406B00684068804710BD704700006C
:1007C00000040140004800080A484169090710D5A3
:1007D00010B5082141610848006800688047406BF7
:1007E00000688068804705200821000700F044F970
:1007F00010BD7047000401400048000870B50D4C62
:1008000060690D4D400508D52015606128680068B5
:100810008047406A0068406880476069000608D5E4
:1008200080206061286800688047406B0068C0686D
:10083000804770BD000401400048000810B407491B
:1008400000224A6106494B684C1523434B604B68B4
:10085000082423434B60026010BC7047F80200205C
:10086000002002401A498869C2051A4803D5426926
:1008700008231A4342618A69920503D54269042319
:100880001A4342618A69520503D5426902231A4319
:1008900042618A69120503D5426910231A434261F5
:1008A0008A69920403D5426901231A4342618A6925
:1008B000920303D5426920231A4342618A69D20315
:1008C00003D5426940231A43426103488861704757
:1008D00000200240F8020020002F030070B50446FB
:1008E00000F006FA1D4D0646A869C043C0070ED1A8
:1008F000601C08D0002C04D000F0FAF9801BA04244
:1009000001D9032070BDA869C043C007F0D0A86911
:10091000800701D50220A861A869C043C00517D58A
:10092000A869C043800513D5A869C04340050FD509
:10093000A869C04300050BD5A869C043800407D54A
:10094000A869C043800303D5A869C043C00303D48A
:10095000FFF788FF012070BD002070BD002002401D
:10096000F3B505461E4881B0017C012907D001215D
:1009700001741C48FFF7B2FF002803D02AE00220D0
:1009800003B0F0BD164A002151614A1E02990A6067
:10099000A9686C68C9010919A1421BD9124E082720
:1009A0002046FFF74BFF0F48FFF798FF7168B943E8
:1009B000716071680122520291437160002802D077
:1009C00002990C6006E0A9686A68C9018918803438
:1009D000A142E5D8024A0021117403B0F0BD000025
:1009E000F802002050C30000002002400348416884
:1009F00002221143416000207047000000200240A5
:100A0000F8B50C4C1546207C0F46012808D0012073
:100A100020740948FFF762FF0026002802D006E094
:100A20000220F8BD66613D600348FFF757FF26745A
:100A3000F8BD0000F802002050C3000009484168DA
:100A400089070CD54168C90703D00749C160074928
:100A5000C160074901610749016100207047012019
:100A60007047000000200240EFCDAB89050403026F
:100A7000BFAE9D8C161514130023002962D0F0B56B
:100A800001249C4022460A4057D006685F00032597
:100A9000BD40AE43AC460660DD08AD002D182E6AA1
:100AA000AE465D07EF0E0F25BD40AE4375462E6284
:100AB00086686546AE4386604568A5434560C46860
:100AC0006546AC43C4609D081F4CAD002D19AF684E
:100AD0009C07260F0F24B440A4463C4005273F073F
:100AE000B84201D1002714E0184FB84201D10127C4
:100AF0000FE0174FB84201D102270AE0154FB84264
:100B000001D1032705E0144FB84201D1052700E0C9
:100B10000627B740A74210D1AE686446A643AE6030
:100B20000E4C256895432560656895436560A5680A
:100B30009543A560E5689543E5600A465B1CDA408D
:100B40009ED1F0BD7047000000000140000400503D
:100B500000080050000C0050001C00500004014030
:100B60000B680022002B6FD0F8B5012425460B68D6
:100B700095402B4069D04E68022E01D0122E14D120
:100B8000D608B600371800973F6A5607BC46F70EDE
:100B90000F26BE46BE406746B743BC460E69774641
:100BA000BE4067463E43009F3E624E68012E05D020
:100BB000022E03D0112E01D0122E16D186680327E3
:100BC000B4465600B646B7406646BE43B446CF6804
:100BD0007646B7406646374387604668AE430D7930
:100BE000ED06ED0F95403543456007685600032537
:100BF000B540AC46AF430D79AD07AD0FB5403D43B1
:100C00000560C7686546AF438D68B5403D43C56024
:100C10004D68ED004AD5294D6E6B26436E639508ED
:100C2000274CAD002F19BC6895072E0F0F25B54036
:100C3000AC4305252D07A84201D1002516E0214D22
:100C4000A84203D1012511E036E02FE01E4DA84255
:100C500001D102250AE01D4DA84201D1032505E07E
:100C60001B4DA84201D1052500E00625B5402543CE
:100C7000BD60184C25684E689D43F60300D51D43A2
:100C8000256065684E689D43B60300D51D436560C9
:100C9000A5684E689D43F60200D51D43A560E56832
:100CA0004E689D43B60200D51D43E5600B68521C9B
:100CB000D34000D059E7F8BD704700000010024053
:100CC000000001400004005000080050000C0050DB
:100CD000001C0050000401400069084000D00120C1
:100CE0007047002A01D0816170478162704700001F
:100CF0000148006870470000A80000200248016811
:100D0000491C016070470000A800002010B5084889
:100D10000168402211430160016802229143016091
:100D2000032000F007F800F02BF9002010BD0000B0
:100D30000020024010B5044600F08AFB7D21C90066
:100D4000FFF7CEF901F0B6F900222146501E00F05F
:100D50002DF9002010BD00000068094988420ED11D
:100D600008484168084A1268891841604168026869
:100D7000890A5118016041688905890D41607047F1
:100D8000007C0040B0000020AC000020704770479D
:100D900070477047704710B5044600680168C94342
:100DA000C90708D18168C943C90704D1012141603D
:100DB0002046FFF7ECFF20680168C943890708D483
:100DC0008168C943890704D4022141602046FFF7A6
:100DD000C3FF20680168C943490708D48168C94333
:100DE000490704D404214160204600F0C8F8206877
:100DF0000168C943090708D48168C943090704D4B5
:100E0000082141602046FFF7C3FF20680168C943FD
:100E1000C90608D48168C943C90604D410214160B9
:100E20002046FFF7B3FF20680168C943890608D44C
:100E30008168C943890604D4202141602046FFF718
:100E4000A9FF20680168C943490608D48168C943DD
:100E5000490604D4402141602046FFF79AFF10BDA7
:100E6000002801D101207047F8B505460446203519
:100E7000A87B002803D16873204600F037F80220D1
:100E8000A8732068C26884466368012B01D11E20C4
:100E9000824313486169814201D0124802401248DE
:100EA000A668024018463043676A266A3E433043CC
:100EB000A66A30431043012B03D12369E2681A4329
:100EC0001043074A914205D0A2691143E2690243E7
:100ED000084610436146C8600120A8730020F8BD91
:100EE000FFFF00003F1FFFFFFEF119FF00680449EC
:100EF000884204D10348816BC20411438163704767
:100F0000007C004000100240F0B40223044620346C
:100F1000A3730568EE68DF04BE43EE600568AE6843
:100F200010273E43AE600568AE6808273E43AE60BA
:100F30000568AE681E43AE600568AE6801231E43B7
:100F4000AE600C4F45690426BD4203D00568AF680A
:100F50003743AF6005682F691F432F610568A9619A
:100F600001684A610068016931430161A373F0BC03
:100F700000207047FFFF00000068C069704770479D
:100F800070470000C106C90E012088400149086071
:100F90007047000080E100E0C106C90E01208840D2
:100FA000014908607047000000E100E08207D30EAD
:100FB000FF229A408907090E994000280BDA0007A2
:100FC000000F0838830808489B001818C36993432A
:100FD0000B43C3617047830804489B001B181868C3
:100FE000904308431860704700ED00E000E400E023
:100FF000024801680215114301607047007000400B
:1010000002480168421511430160704700700040BA
:10101000174A1168E0239943036819431160154981
:101020004B680122120493434B600B6893430B609F
:10103000CB689343CB608B6893438B604368DB033F
:1010400002D50B6813430B6043689B0302D54B68C2
:1010500013434B600379DB0702D08B6813438B602B
:101060000079800702D5C8681043C8607047000047
:1010700000700040000401400248016810229143C2
:10108000016070470070004002480168102211435F
:1010900001607047007000400A4B1A689208920085
:1010A00002431A60084803690422134303610129BB
:1010B00006D040BF20BF20BF016991430161704746
:1010C00030BFF9E70070004000ED00E0F8B50446DD
:1010D0000078474D80064FD54648816B0204114386
:1010E0008163454F3868111508433860FFF700FEEB
:1010F00006463868C00507D4FFF7FAFD801B642850
:1011000023D83868C005F7D52A6903210904606926
:101110000A40084082422FD028692A698843012169
:10112000C9040A432A612A698A432A612861800521
:1011300010D5FFF7DDFD0646286980050AD42F4F3C
:10114000FFF7D6FD801BB84201D90320F8BD2869FE
:101150008005F5D5606903228103890F12050329F3
:101160003CD02448016891430160286903210904A7
:1011700088436169084328612078C00705D0E86882
:101180006168800880000843E8602078800705D502
:10119000E9680C208143A0680143E960207840079A
:1011A00006D5E968032080028143E0680143E960D5
:1011B0002078000706D5E8680321090388432169E0
:1011C0000843E8602078000606D5E8680321890412
:1011D0008843A1690843E8600020F8BD05490B6811
:1011E000934303221204904303430B60BDE70000C6
:1011F00040100240001002400070004088130000C0
:10120000F8B504468F480F460068F021C007C00FAC
:101210008D4EB8427CD28B480268520852003A4345
:1012200002600068C007C00FB84270D12078800704
:1012300004D5F0688843A1680843F0602078C007AF
:1012400044D06068022826D0002828D031680328BE
:1012500029D049075BD5F168890889000143F1600D
:10126000FFF746FD0546606802281FD003282ED0F0
:101270000028F0683CD00007800F012826D0734F6B
:10128000FFF736FD401BB84271D8F0680007800FA9
:101290000128F5D1BBE03168890338D5DBE7316837
:1012A000890534D5D7E7890131D5D4E7F06800073F
:1012B000800F02280AD0654FFFF71AFD401BB84285
:1012C00055D8F0680007800F0228F5D19FE0F0683C
:1012D0000007800F032879D05C4FFFF709FD401B02
:1012E000B84244D8F0680007800F0328F5D18EE09B
:1012F0000007800F6AD0554FFFF7FAFC401BB84239
:1013000035D8F0680007800FF6D180E000E07CE07F
:101310002078800704D5F0688843A1680843F0600E
:101320002078C00766D06068022822D0002824D028
:101330003168032825D0490767D5F16889088900F5
:101340000143F160FFF7D4FC0546606802281BD01A
:1013500003282AD00028F06839D00007800F012820
:1013600048D0FFF7C5FC411B384881423DD90320D6
:10137000F8BD3168890348D5DFE73168890544D570
:10138000DBE7890141D5D8E7F0680007800F022824
:1013900030D0FFF7ADFC411B2C488142E7D8F06804
:1013A0000007800F0228F4D124E0F0680007800FC6
:1013B00003281FD0FFF79CFC2449401B8842D6D845
:1013C000F0680007800F0328F4D113E01FE0000746
:1013D000800F0FD0FFF78CFC1C49401B8842C6D8F9
:1013E000F0680007800FF5D104E0F0680007800F77
:1013F0000128B6D113480168490849003943016002
:101400000068C007C00FB84201D00120F8BD2078A5
:10141000400706D5F068072109028843E1680843C0
:10142000F0602078000707D5F0680721C9028843DB
:101430002169C9000843F0600320FFF77BFC00200E
:10144000F8BD000000200240001002408813000098
:1014500010B500F041F80549C968054A0906090FA9
:10146000515CC8400349086010BD000000100240F4
:1014700031420008A400002010B500F02DF8074903
:10148000CA681206130F064AD35CD840054B186091
:10149000C9684905490F515CC84010BD00100240A1
:1014A00031420008A400002010B500F015F80749EB
:1014B000CA681206130F064AD35CD840054B186061
:1014C000C9688904490F515CC84010BD0010024032
:1014D00031420008A400002010B51D4A5068D368AE
:1014E0000004410F0C2003401A4805D0042B06D0FD
:1014F000082B0BD00C2B0BD0491C884010BD10685A
:10150000C00601D5144810BD144810BD144810BDC4
:10151000D068D1688002134B000F185C0902D368B1
:10152000890F01242404491C234207D11268D206E2
:1015300009D5094A5043FEF7D3FD10BD084A504370
:10154000FEF7CEFD10BD054A5043FEF7C9FD10BDA4
:10155000001002400080000000093D000024F4005B
:1015600000127A0028420008F8B504460078C00747
:1015700053D0F94EF0680007800F022807D0F068BA
:101580000007800F032809D1F068C00306D5306832
:10159000800342D56068002876D03EE00121606873
:1015A0000904884203D130680843306013E0052302
:1015B00001221B0492049842306807D188433060AE
:1015C0003068104330603068084303E0884330607F
:1015D000306890433060606800280FD0FFF788FBC8
:1015E00005463068800318D4DC4FFFF781FB401BB1
:1015F000B8427DD830688003F7D50EE0FFF778FB5E
:1016000005463068800308D5D44FFFF771FB401BB7
:10161000B8426DD830688003F7D42078800745D56C
:10162000CD4EF0681F270007800F3F02012807D02A
:10163000F0680007800F032809D1F068C00306D4C2
:101640003068400719D5E06801281DD115E0E16830
:101650000920002919D0326882430A433260FFF71B
:1016600047FB05463068400707D4FFF741FB401BA6
:1016700064283DD830684007F7D570682169B843C1
:1016800009020843706011E0C2E0316881433160B3
:10169000FFF72EFB05463068400707D5FFF728FB0C
:1016A000401B642824D830684007F7D42078C0064F
:1016B0004FD5A94EF068AA4F0007800F23D0A0692C
:1016C00000283068A74934D008433060FFF710FB8A
:1016D00005463068800507D4FFF70AFB401B6428E5
:1016E00006D830688005F7D57068216AB84300E0F5
:1016F0009FE0084370607068217F0002000A0906BD
:101700000843706025E03068800502D5A069002894
:101710007ED07068216AB843084370607068217F8A
:101720000002000A0906084370600320FFF702FB6D
:101730000FE088433060FFF7DBFA0546306880052C
:1017400007D5FFF7D5FA401B642872D830688005AA
:10175000F7D42078844D000726D5606900282869D1
:1017600011D0012108432861FFF7C2FA0646286913
:10177000800719D4FFF7BCFA801B642859D8286960
:101780008007F7D510E0400840002861FFF7B0FA65
:1017900006462869800707D5FFF7AAFA801B642848
:1017A00047D828698007F7D4207840077ED50020E5
:1017B000074600906848806BC00006D46649886B75
:1017C0000A04104388630120009068480068C0053F
:1017D00017D466480068FF21013108436349086057
:1017E0000127FFF785FA064660480068C00508D45F
:1017F000FFF77EFA801B64287ED85C480068C0052D
:10180000F6D5A068C11FF93914D00121890200E082
:10181000B3E0002813D00522120290422869514AF1
:1018200029D1904328612869084328612869104319
:101830000CE061E02869FF210131084306E02A69D4
:10184000FF20013082432A61286988432861A0680B
:10185000002815D0FFF74CFA2969064689051FD4E0
:101860003E4DFFF745FA801BA84245D83E48006927
:101870008005F6D514E09043286128698843E5E7A0
:10188000FFF736FA29690646890509D5334DFFF772
:101890002FFA801BA8422FD8334800698005F6D460
:1018A000002F06D031480268811500E009E08A4324
:1018B00002600098002804D02748826B01048A4304
:1018C0008263606A002856D0234EF1680907890FA9
:1018D000032952D001273F06022830680ED0B843B2
:1018E0003060FFF705FA04463068800143D5FFF702
:1018F000FFF9001B64283BD90320F8BDB8433060D2
:10190000FFF7F6F905463068800107D5FFF7F0F9D3
:10191000401B6428F0D830688001F7D4E16A206B5E
:10192000A26A0143F068FD231B049843024311435C
:10193000F160306838433060FFF7DAF90446306808
:10194000800118D4FFF7D4F9001B6428D4D830687C
:101950008001F7D50FE0000000100240881300005E
:1019600000E0000000010000401002400070004054
:1019700030688001BBD40020F8BD0120F8BD0028EC
:1019800001D10120704770B5044602214030054660
:10199000417420680168402291430160204600F0B4
:1019A00048F80021616569742974084670BD0028F3
:1019B00001D10120704770B5054604464035687C6A
:1019C0000026002803D12E74204600F033F80220B0
:1019D000687420680168402291430160A1686068D2
:1019E00022690843E1681143084361690122084301
:1019F000A169520211400843E1690843216A084382
:101A0000A16A084321680860A0690421000C08400D
:101A1000616A0843216848602168E06A08612068BB
:101A2000C16992009143C16166650120687400201C
:101A300070BD70477047FFB581B004460026684608
:101A4000068027464037787C012876D1002947D088
:101A5000002A45D0387C01286FD00120387422201C
:101A600078746665A163A287E287A664E66426634C
:101A7000A686E6860120A368C003834205D12068BC
:101A800003680125AD03AB4303600125A06A6D0324
:101A9000A84207D123681868A84318602068036823
:101AA0002B4303606368D81FFD3802D1A06800286B
:101AB00019D020680168490603D401684022114307
:101AC0000160E0680028E08F17D0012843D9002288
:101AD00001212046049B00F001FD00284CD12DE09F
:101AE000012005B0F0BD3E740498134600900A46EC
:101AF000204600F069F905B0F0BD012813D9002295
:101B000001212046049B00F0E9FC002834D1206824
:101B1000C168A06B421CA2630170E08F401E80B2BE
:101B2000E0870128EBD8A06AA8421DD121680A6885
:101B30000120000302430A6016E078E02068C068D4
:101B4000A16B0880A06B801CA063E08F401E80B258
:101B5000E0870128BBD8A06AA84205D1216808689F
:101B60000122120310430860002201212046049B39
:101B700000F0B4FC002802D0032005B0F0BDE068FE
:101B8000002820681AD0C068A16B0880A06B801C58
:101B9000A063E08F401EE087A06AA84219D100220E
:101BA00001212046049B00F099FC00280CD0606DB8
:101BB000022108436065032005B0F0BDC168A06B39
:101BC000421CA2630170E4E72068C068694608808F
:101BD00008886168C81FFD380CD10121A068C903BD
:101BE000884202D04911884204D121680868402205
:101BF0009043086001207874A06AA84213D120683D
:101C00008168C943C9060ED4626D02210A43626528
:101C10000168A943016020680168294301603E749E
:101C2000012005B0F0BD3E74002005B0F0BD0220DB
:101C300005B0F0BDFFB5054604464035687C81B06F
:101C400001287CD100293CD0002A3AD0287C0128E8
:101C500075D00120287412206874002666652163FF
:101C6000A286E286E664A664A663A687E6870127C5
:101C7000A06A7F03B84207D120680168B9430160B8
:101C800020680168394301600121A068C9038842C6
:101C900005D1206801680122920311430160206888
:101CA0000168490603D40168402211430160E068DD
:101CB0000028606808D000282FD0E08E01282CD0A2
:101CC00035E0012005B0F0BD002802D0E08E0128EB
:101CD00008D1206B411C216321680078C860E08E28
:101CE000401EE0860004000C13D000220221204692
:101CF000049B00F0F3FB002826D1206B411C2163DC
:101D000021680078C860E08E401E0004000CE08668
:101D1000EBD1A06AB8422AD02FE0206B216800885E
:101D2000C860206B801C2063E08E401EE0860004AB
:101D3000000C19D0002202212046049B00E040E064
:101D400000F0CCFB002802D0032005B0F0BD206BD2
:101D500021680088C860206B801C2063E08E401ED4
:101D60000004000CE086E5D1A06AB84205D12068E5
:101D70000168012212031143016000220221204662
:101D8000049B00F0ABFB2027002807D10122802113
:101D90002046049B00F0A2FB002805D0606D38436C
:101DA0006065032005B0F0BDA068002803D120685D
:101DB000C16880680090012068742E74002005B00E
:101DC000F0BD022005B0F0BDF8B504460027684616
:101DD000078026464036707C012802D0707C22287D
:101DE0007ED100290CD0002A0AD0002B08D0307CEC
:101DF000012875D001203074707C012802D003E0E6
:101E00000120F8BD322070746765A263A387E38761
:101E10002163A386E386A764E7640125A06A6D03B6
:101E2000A84207D120680168A943016020680168C1
:101E30002943016020680168490603D401684022F3
:101E4000114301600123DB02FF22E16805325800E3
:101E5000994261686ED1002904D091420CD1E18E83
:101E6000012909D1216B22680988D160216B891C65
:101E70002163E18E491EE186E18E00290FD1A16A1E
:101E8000A94203D121680A6802430A6000220121A5
:101E90002046069B00F022FB002875D13FE000227F
:101EA00002212046069B00F019FB00286CD1206B14
:101EB00021680088C860206B801C2063E08E401E73
:101EC0000004000CE08608D1A06AA84205D1206871
:101ED000016801221203114301600022012100E088
:101EE000DAE02046069B00F0F9FA00284CD1206881
:101EF000C068A16B0880A06B801CA063E08F401EAF
:101F0000E087E08E0028CAD1606800287BD10022DB
:101F100001212046069B00F0E1FA002871D12068DB
:101F2000C068A16B0880A06B801CA063E08F401E7E
:101F3000E08772E0002904D091420BD1E18E0129A3
:101F400008D1216B4A1C226322680978D160E18E96
:101F5000491EE186E18E002917D1A16AA94203D169
:101F600021680A6802430A60002201212046069B7C
:101F700000F0B4FA002844D12068C068A16B087052
:101F8000E08F401EE08748E03BE00022022120462F
:101F9000069B00F0A3FA002833D1206B411C21637B
:101FA00021680078C860E08E401E0004000CE086C6
:101FB00008D1A06AA84205D1206801680122120355
:101FC00011430160002201212046069B00F086FAA1
:101FD000002816D12068C168A06B421CA263017062
:101FE000E08F401EE087E08E0028CED16068002898
:101FF00013D1002201212046069B00F06FFA002831
:1020000002D00320F8BD08E02068C168A06B421C24
:10201000A2630170E08F401EE087A06AA84212D13F
:10202000002201212046069B00F058FA002805D026
:10203000606D0221084360650320F8BD2068C16817
:10204000684601800088012280212046069B00F01E
:1020500045FA002805D0606D202108436065032003
:10206000F8BD01207074A06AA84212D1206881686E
:10207000C943C9060DD4616D02221143616501682F
:10208000A943016020680168294301603774012079
:10209000F8BD37740020F8BD0220F8BD04220449C1
:1020A0000428086902D09043086170471043FBE799
:1020B00000E000E00B4910B4401E884202D910BC79
:1020C000012070470849486108480722C3691B027C
:1020D0001B0A4C042343C361002088610A6110BCC1
:1020E00070470000FFFFFF0000E000E004ED00E0AB
:1020F000704710B50446002C01D1012010BD02210B
:102100006920015520680068400840002168086087
:1021100000202168086021684860216888602046A6
:1021200000F0F7F80020E06600216920015500BFAB
:102130006820015500BF0020E0E70000044A016864
:10214000914203D110B501F03FFC10BD7047000073
:102150000044004010B504462068C069C007C00FA5
:1021600000280FD020680068FF21013108400028B6
:1021700008D0012021680862E06E01210843E06672
:10218000692001552068C0690221084000280FD04D
:1021900020688068C007C00F002809D0022021688D
:1021A0000862E06E04210843E066012169200155C0
:1021B0002068C0690421084000280FD0206880688A
:1021C000C007C00F002809D0042021680862E06E13
:1021D00002210843E0660121692001552068C06999
:1021E0000821084000280FD020688068C007C00F71
:1021F000002809D0082021680862E06E0821084301
:10220000E066012169200155E06E002802D02046D9
:10221000FFF794FF2068C0690121090508400028E4
:102220000ED02068806889000840002808D08810F7
:10223000216808620121692001552046FFF758FFF7
:102240002068C06920210840002807D02068006865
:102250000840002802D0204600F092FA2068C069A9
:1022600080210840002807D0206800680840002826
:1022700002D0204600F0C8FC2068C0694021084018
:10228000002807D0206800680840002802D02046B7
:1022900000F05EFA10BD10B50446002C01D10120FB
:1022A00010BDA069002800D000E000BF6920005DDB
:1022B000002805D1002168200155204600F02AF8A9
:1022C000022169200155206800684008400021680B
:1022D0000860204600F0AEFA606A002802D020466E
:1022E00000F08EF9206840680921C90288432168FE
:1022F0004860206880682A218843216888602068B7
:1023000000680121084321680860204600F0F0F9C8
:10231000C6E770477047000010B503466920C05CEF
:10232000012803D06920C05C12286AD1002901D09D
:10233000002A01D1012010BD00BF6820C05C012827
:1023400001D10220F7E701246820C45400BF596579
:102350005820C2525A20C25200BF24039868A0429B
:102360000AD11869002803D1274C5C20C45220E010
:10237000FF245C20C4521CE0986800280AD1186928
:10238000002803D1FF245C20C45212E07F245C208B
:10239000C4520EE0012424079868A04209D11869AC
:1023A000002803D17F245C20C45202E03F245C203B
:1023B000C45200BF0020D8666920C05C122803D137
:1023C00032246920C45402E022246920C4541868CD
:1023D0000068FF24013420431C682060186880686E
:1023E000012420431C68A06000BF00246820C4545E
:1023F00000BF18680068202420431C68206000206B
:1024000099E7022097E70000FF010000044A0168F5
:10241000914203D110B501F02BFB10BD70470000B5
:102420000044004010B503466920C05C012803D079
:102430006920C05C222836D1002901D0002A01D1B0
:10244000012010BD00BF6820C05C012801D102201E
:10245000F7E701246820C45400BFD9645020C25259
:102460005220C2520020D8666920C05C222803D1C5
:1024700032246920C45402E012246920C45418682C
:102480000068FF24013420431C68206000BF002442
:102490006820C45400BF18680068802420431C686A
:1024A00020600020CDE70220CBE70000044A01684D
:1024B000914203D110B501F01FFB10BD7047000021
:1024C00000440040FEE7000010B50248FEF763FC40
:1024D00010BD00001003002070477047F8B51D467E
:1024E00017460E460446FEF703FC39462746009081
:1024F0004037206800298168304602D0884329D0BF
:102500004CE088434AD0681C1ED0002D05D0FEF751
:10251000EFFB0099401AA84216D920684168E022D2
:102520009143416020680168402291430160A16AA3
:10253000D001814227D121680A6882430A6021685C
:102540000A6802430A601EE02068806831468143C1
:10255000D9D123E0681C1CD0002D05D0FEF7C8FBA4
:102560000099401AA84214D920684268E0218A43A1
:1025700042602068026840218A4302600120A16A0B
:1025800040038142D7D001207874002038740320A2
:10259000F8BD2068816830468843DBD00020F8BD54
:1025A000704710B5FEF7AAFB10BD00001048016887
:1025B000821511430160C1680E4A1140C160016873
:1025C0000D4A114001608168490849008160016835
:1025D0000122920491430160C168FD2212049143DB
:1025E000C160002101610549C00388607047000097
:1025F000001002400C40FF88F6FFF6FE00ED00E000
:10260000818CC907C90F002908D0016849680122D7
:1026100052049143826A1143026851600222416A66
:102620001140002907D001684968D2039143C26A6A
:102630001143026851600422416A1140002907D009
:102640000168496812049143026B114302685160AA
:102650000822416A1140002907D001684968120325
:102660009143426B1143026851601022416A11404C
:10267000002907D00168896812029143826B1143D7
:10268000026891602022416A1140002907D0016848
:10269000896812029143C26B114302689160402223
:1026A000416A1140002915D001684968920391439D
:1026B000026C11430268516001221205016C9142C3
:1026C00008D101684968032252059143426C1143C5
:1026D000026851608022416A1140002907D00168D8
:1026E000496812039143826C11430268516070473C
:1026F00010B504462068006808210840082809D160
:10270000124B00228104204600F0BBFA002801D0C1
:10271000032010BD2068006804210840042809D166
:102720000A4B00220105204600F0ABFA002801D038
:102730000320EEE700BF00216820015500BF002004
:10274000E0660121692001550020E2E7F055000014
:1027500010B504462068006840218843216808605D
:102760006920005D322803D122216920015502E051
:102770000121692001552046FFF798FE002010BD79
:1027800070B504465C20065B6920005D222803D0FA
:102790006920005D32284BD101210903A0688842DD
:1027A0000BD12069002808D1656D2068406A30404F
:1027B0002880606D801C606507E02068406AF1B287
:1027C0000840626D511C616510705A20005B401E0C
:1027D00081B25A200153002928D100BF2068C06966
:1027E000202108400028F9D120680068884321682A
:1027F00008606920005D322803D11221692001554B
:102800000FE020680068FF210131884321680860DB
:1028100020688068400840002168886001216920A4
:1028200001552046FFF7F2FD002070BD0020FCE7B7
:102830000220FAE7F0B58BB00446002600250027F9
:1028400000200A90E2492068884201D1012000E07E
:102850000020002800D000E000BF2169A0680843E4
:1028600061690843E1690843064620680068D94960
:10287000084030432168086020684068032109034C
:102880008843E168084321684860A669D049206808
:10289000884201D1012000E00020002801D1206AF7
:1028A0000643206880680B21090288433043216871
:1028B000886000BFC8492068884216D1C748C068F0
:1028C0008007800F002806D0012808D0022804D0F5
:1028D000032808D105E0012506E0022504E00425CF
:1028E00002E0082500E000BF38E0BD4920688842CA
:1028F00016D1BA48C0680C210840002806D0042828
:1029000008D0082804D00C2808D105E0002506E0EE
:10291000022504E0042502E0082500E000BF1DE0D8
:10292000AB492068884219D1AC48C06803218902AC
:102930000840002808D001218902401A08D0401A16
:1029400004D0401A08D105E0002506E0022504E085
:10295000042502E0082500E000BF00BF00BF9C493D
:102960002068884201D1012000E0002000287AD0B0
:10297000002D06D0022D25D0042D53D0082D73D163
:1029800073E0626810460021FDF7BAFD07910690DA
:10299000FEF772FD002101910090FDF7B1FD0022CC
:1029A000904B03910290FDF7A9FC05910490079BC1
:1029B000069AFDF70BFD09910890FDF7D3FD2168FC
:1029C000C86067E085484038006810210840000969
:1029D000002813D0626810460021FDF791FD0246E1
:1029E0000B460791069000207F49FDF7EFFC099107
:1029F0000890FDF7B7FD2168C86012E062681046D4
:102A00000021FDF77DFD02460B4607910690002050
:102A10007649FDF7DBFC09910890FDF7A3FD2168DD
:102A2000C86037E0626810460021FDF769FD079134
:102A30000690FEF751FD002101910090FDF760FD29
:102A40000022684B03910290FDF758FC0591049019
:102A5000079B069AFDF7BAFC09910890FDF782FDE5
:102A60002168C86016E016E013E062681046002195
:102A7000FDF746FD02460B460791069000205C4993
:102A8000FDF7A4FC09910890FDF76CFD2168C86072
:102A900000E000BF9AE00121C903E069884251D1FA
:102AA0002B0000F08EF90906101A42304242423AD9
:102AB0004200FEF7E1FC400009906168FDF710FB61
:102AC00080B20A9032E0FEF7EFFC400009906168A6
:102AD000FDF706FB80B20A9028E0404840380068C5
:102AE000102108400009002806D042486168FDF71F
:102AF000F7FA80B20A9005E03F486168FDF7F0FA06
:102B000080B20A9012E0FEF7E7FC4000099061688D
:102B1000FDF7E6FA80B20A9008E00120000461683F
:102B2000FDF7DEFA80B20A9000E000BF00BF334933
:102B30000A98084007460A980007400F0743206894
:102B4000C76043E02B0000F03CF909060F183F2E48
:102B50003F3F3F373F00FEF78FFC09906168FDF76C
:102B6000BFFA2168C86030E0FEF79EFC09906168FA
:102B7000FDF7B6FA2168C86027E0184840380068B9
:102B8000102108400009002806D01D486168FDF7A3
:102B9000A7FA2168C86005E01A486168FDF7A0FA45
:102BA0002168C86011E0FEF797FC09906168FDF7A5
:102BB00097FA2168C86008E00120C0036168FDF74A
:102BC0008FFA2168C86000E000BF00BF0BB0F0BD05
:102BD00000480040F369FFEF003801404010024018
:102BE00000440040000070408084CE418084EE416B
:102BF0000000604100127A000048E801F0FF000088
:102C000000093D000024F40001466920405C1228C0
:102C100003D06920405C322831D15220405A00282C
:102C20000DD108680068802398430B681860086815
:102C30000068402318430B68186000207047012388
:102C40001B03886898420CD10869002809D1CA6C16
:102C50001088C005C00D0B689862C86C801CC864E1
:102C600005E0CB6C581CC86418780B689862522039
:102C7000405A401E83B2522043520020DEE7022019
:102C8000DCE7FFB581B004460E461D460027FEF77F
:102C90002FF807460398002839D12DE0681C00283A
:102CA0002AD0002D04D0FEF723F8C01BA84223D958
:102CB00020680068802188432168086020680068D7
:102CC000202188432168086020680068FF210131C5
:102CD00088432168086020688068400840002168B7
:102CE000886001216920015500BF0021682001553D
:102CF00000BF032005B0F0BD2068C0693040B0427D
:102D000001D1012000E000200028C7D037E02CE0EE
:102D1000681C002829D0002D04D0FDF7E9FFC01B56
:102D2000A84222D920680068802188432168086071
:102D300020680068202188432168086020680068B6
:102D4000FF210131884321680860206880684008BD
:102D500040002168886001216920015500BF0021E1
:102D60006820015500BF0320C4E72068C0693040D7
:102D7000B04201D1012000E000200028C8D100208D
:102D8000B8E7000010B50248FFF7E4F910BD0000F5
:102D9000080000202021020C01D010211046020A58
:102DA00001D010460839020901D01046091F8208D7
:102DB00001D01046891E420801D0881E7047081AAB
:102DC000704730B47446641E2578641CAB4204D34B
:102DD000635D5B00E31830BC18471D46F8E7FEE76B
:102DE00010B5204892B0816B0204114381631E48E4
:102DF00001680322D2029143C214891801600A209B
:102E00000090012005900390032080040B900001A6
:102E100010210C9004910220002409900A94684625
:102E2000FEF7A2FB002800D0FEE70F200D90032044
:102E30000E9001208002109011900F9401210DA896
:102E4000FEF7DEF9002800D0FEE7FEF701FB7D214A
:102E5000C900FDF745F9FFF72DF90420FFF71EF92A
:102E600012B010BD001002400070004010B592B0CA
:102E7000032080040B9000010C9002200024099094
:102E800000946846FEF770FB002800D0FEE70F2094
:102E90000D9003200E9001208002109011900F944D
:102EA00001210DA8FEF7ACF9002800D0FEE7FEF7DF
:102EB000CFFA7D21C900FDF713F9FFF7FBF80420D5
:102EC000FFF7ECF812B010BDF0B53A4887B00068D3
:102ED000006880474068006840688047002859D0F3
:102EE000354CE06A01210843E062E06A0840059041
:102EF000E06A02252843E062E06A28400590E06A23
:102F000004263043E062E06A30400590E06A08271A
:102F10003843E062E06A38400590E06A8021084367
:102F2000E062E06A08400590244800900320019088
:102F30000020029069462248FDF712FE69462148AA
:102F4000FDF70EFE69462048FDF70AFE69461F4858
:102F5000FDF706FE1E48009003200190002002901D
:102F6000052069460007FDF7FBFDE06A40084000C8
:102F7000E062E06AA843E062E06AB043E062E06ACF
:102F8000B843E062E16A80208143E162FDF7BEFE62
:102F9000FFF726FF00F024F8064800680068804725
:102FA000406800688068804700F05AF8002007B049
:102FB000F0BD00000048000800100240FFFF0000C4
:102FC0000004005000080050000C0050001C00508D
:102FD000FF9F0000014840680047000040030020B8
:102FE00010B5134C11482060124860601248A06070
:102FF00012480060406012480060406000F018F91C
:103000002068804720460021C160016141618161E3
:10301000C161016241628162C1620163416300F08A
:1030200011F800F0D0FB62B610BD00006D3700084B
:103030004003002061370008AD330008C0000020C5
:10304000C800002000B583B000200190C02000908F
:103050006846FDF7DDFFFEF717F803B000BD00007E
:1030600082B00020009000F0ADFB00F085FB72B64E
:1030700001255648057062B600F09CFA72B6544EAF
:103080003078012804D062B60098012820D021E0D1
:10309000012000240090E00085192879012810D132
:1030A000AF68002F0BD04B4840688047F86172B67C
:1030B00001202037387045490020087062B6002092
:1030C0002871641CE4B2052CE5D30020307062B690
:1030D00000F070FA00F0CAF83F480468844241D01A
:1030E0003C4FE669786825688047864201D3311AEB
:1030F00000E0811B0122D207914202D2864204D213
:1031000002E04942864200D949420026002905DCF6
:10311000786816468047A1694018E0612746E06A52
:103120002C37B84202D001208007064372B6A06A4D
:1031300030430021A16262B600280FD0A1680029A7
:103140000CD08847E16AB942244901D0084300E025
:10315000884372B6A16A0143A16262B62C461E483A
:103160008542BDD11C480168814200D07BE71C48E4
:1031700021210068095C002907D0446A154840688D
:103180008047844203D3211A02E016490DE0011B57
:103190000122D207914202D2844204D202E0494283
:1031A000844200D949420F29E0DD0848007801280F
:1031B000DCD10C48814207DC06488268002AD5D061
:1031C000491F88B290474EE70146F5E7BC00002052
:1031D0004C03002040030020C000002000000040FD
:1031E000C8000020FFFF000070B50D46040003D1A9
:1031F0009D2105A0FFF7F3FD01204007854202D87D
:10320000A06AA843A06270BD2E2E5C2E2E5C737245
:10321000635C6273775C6F735C6B65726E656C5C2C
:103220007372635C6F735F7369676E616C2E6300AA
:1032300010B40B490C4B096049600A490020096031
:1032400049602C214143074AC9181468401C616039
:103250000C604A60C0B211600A28F2D310BC7047FB
:10326000D0000020D800002078030020F8B5144ECC
:103270003468B44222D02568FFF7ACFE22690146CB
:10328000104600F085F9002815DC2068616841606F
:103290000860002020606060A768E468002F03D108
:1032A00087210848FFF79BFD01204007844202D890
:1032B000B86A2043B8622C46B542DCD1F8BD0000A4
:1032C000D0000020E832000870B50D46040003D19C
:1032D000872105A0FFF783FD01204007854202D822
:1032E000A06A2843A06270BD2E2E5C2E2E5C7372E5
:1032F000635C6273775C6F735C6B65726E656C5C4C
:103300007372635C6F735F7369676E616C2E6300C9
:10331000F8B51D4617460E46040003D1B72118A084
:10332000FFF75DFD002E03D1B82115A0FFF757FD73
:103330000120C007854203D3B92111A0FFF74FFD3B
:10334000194A1068016890420DD0A04207D1206848
:1033500061684160086000202060606003E008460A
:1033600009689042F1D1E760A660FFF733FE40198B
:1033700020610D4841684460616020600C60F8BDC8
:103380002E2E5C2E2E5C7372635C6273775C6F739F
:103390005C6B65726E656C5C7372635C6F735F739C
:1033A00069676E616C2E6300D000002010B500F0DC
:1033B0005BFA1B4900200861FDF75EFEFDF720FE69
:1033C000FDF716FE1748C1680122D2031143C16000
:1033D000C16A49084900C162C16A02229143C162BF
:1033E000C16A04229143C162C16A08229143C16249
:1033F000C16A80229143C16272B6BFF34F8F01212F
:103400000846FDF749FEBFF36F8F62B6FDF77EFCFD
:10341000FFF72CFD00F050FAFDF736FE10BD00005E
:1034200000E000E0001002400022052807D2002939
:1034300005D0C300034818180271012281601046AC
:10344000704700004C030020002803D0002902D060
:1034500041617047FEE7FEE7F8B5060017D021206E
:10346000805D002814D01F484068804704462146EC
:10347000706A00F08DF801461B480368834222D031
:103480000125ED07586AA04209D3021B08E0FEE7B8
:10349000154841684660716030600E60F8BD221AC0
:1034A000AA4202D2A04204D202E05242A04200D973
:1034B00052428A420EDC2120C05C00280AD01B68E0
:1034C00009488342DED1084948684E603160706027
:1034D0000660F8BD586801684E6031607060066033
:1034E000F8BD000040030020C8000020002803D0E1
:1034F000002902D001617047FEE7FEE770B516466D
:103500000D46040015D0002D14D03421FCF717FE11
:1035100000212046A6612030A560417072B601707E
:1035200062B620462C30E06220632046FFF794FF0D
:1035300070BDFEE7FEE720300078704710B504004C
:1035400009D0054840688047E06172B60120203408
:10355000207062B610BDFEE74003002070B50D4636
:1035600004000FD072B6002120462030017062B6F0
:10357000002D08D00121417004484068804740195F
:10358000606270BDFEE7417070BD00004003002026
:103590000246884201D3501A00E0881A0123DB0753
:1035A000984203D28A4200D24042704740428A4247
:1035B000FAD87047F8B5564801250468ED078442EB
:1035C0004ED02646203630782768002844D16168DE
:1035D00079600F60206060606069002800D08047DB
:1035E0000094002C15D07078002813D0494840680A
:1035F0008047044600982146406AFFF7C9FF4649C4
:1036000003460868884220D0416AA14209D30A1BB8
:1036100008E0FEE740494A684C606260216014603F
:103620001AE0621AAA4202D2A14204D202E0524235
:10363000A14200D952429A4220DC2121095C002992
:103640001CD0006834498842DED1334900984A686A
:1036500048604260016010602D483C468742B0D10E
:103660002D480468844252D0264620363078276898
:1036700001280BD0707801281AD044E040680099E6
:10368000026851600A6048600160E5E76068786040
:103690000760002525601E486560416844606160E0
:1036A00020600C602069002800D0804775702AE0F7
:1036B0001848656A40688047854201D3291A00E0AE
:1036C000411B0122D207914202D2854204D202E07C
:1036D0004942854200D94942002914DC20686168CA
:1036E00041600860002020606060094841684460D3
:1036F000616020600C602069002800D0804772B6AD
:103700000120307062B63C4603488742ACD1F8BD18
:10371000C000002040030020C800002010B50400B5
:103720000CD0074840688047E06172B60120203421
:10373000207004490020087062B610BDFEE700004A
:1037400040030020BC000020052805D2C200034829
:103750000121121811710170704700004C03002004
:103760000148006870470000B000002010B500203C
:1037700000F02AF810BD000010B41049104B0A7870
:103780005C685006000E240704D55B685B0701D512
:103790000123184343060AD0C3435B0609D0D2096C
:1037A000D2014006400E02430A7010BC7047002050
:1037B00000E0FF20087010BC70470000B800002037
:1037C000007000407047704730B5042095B0850107
:1037D00000240295099400906846FDF7C5FE032871
:1037E000FAD01A4801682943016019490A6903237C
:1037F000DB021A430A610168A943016080200D9031
:10380000D80113900DA8FDF761FC134811494460DD
:103810000160052149028160046244620F498462AB
:103820004161FDF71DFB012202210B48FDF76CFBF6
:103830000C490B480860002211460D20FDF7B6FB2D
:103840000D20FDF7A9FB15B030BD00000070004051
:1038500040100240007C004010030020FFFF0000E9
:10386000B80B0000AC00002010B57D218002C9001B
:10387000FCF736FC0E49401E884216D872B60D4A37
:10388000116888611168401F486110680168C94368
:10389000C906FBD40168C9430907F7D462B60821F9
:1038A000416011681020486010BD0148E6E7000043
:1038B000FFFF00001003002010B500241848FDF79A
:1038C0005BFB032800D3841E164948687D22D20082
:1038D0005443A2188018486008684A68920A801801
:1038E000086048688005800D486072B601200C4A67
:1038F000116848611168022088610C490A48086013
:1039000010680168C943C906FBD40168C9430907A7
:10391000F7D40821416011681020486062B610BDDC
:1039200010030020B0000020B80B0000AC00002005
:10393000012803D110B500F03FF810BD70470B46C9
:10394000014610B50020012903D11146184600F0A8
:1039500063F810BD012804D110B5084600F066F8E0
:1039600010BD7047012803D110B500F079F810BDE3
:103970007047012805D110B50846114600F092F8AD
:1039800010BD7047012804D110B5084600F094F826
:1039900010BD7047024610B50020002907D001294C
:1039A00003D0022903D1480201E003204002012A8A
:1039B00001D100F097F810BD10B5024800F0B6F83C
:1039C00010BD0000780000200E4A0168914217D116
:1039D00010B50022C26608688022904308600A4938
:1039E0000A4800F0F0F8012804D1012206490848ED
:1039F000FEF718FD07490122C81DFEF78DFC10BD1A
:103A000070470000004400400000002078000020C3
:103A100008000020010000200A4610B501460248B7
:103A200000F0F6F910BD00007800002010B508493C
:103A300000224A600A60FF2301338B6005494A6017
:103A40000A608B6004494860044800F0D8F810BD53
:103A5000E0000020EC0100200000002078000020A1
:103A600010B5024800F042F910BD000078000020B7
:103A700010B500680649884209D1064841780648D1
:103A800000F079FA012205490548FEF745FC10BD12
:103A900000440040000000207800002001000020C9
:103AA00008000020CAB210B50146024800F0EEF945
:103AB00010BD00007800002010B50749486001469D
:103AC0000648FCF70DFBC0B205490528087101D274
:103AD0000520087110BD000008000020204E0000E5
:103AE0009800002003490028086101D0012000034C
:103AF000886070470800002010B5006807498842B8
:103B00000AD10749074800F05EF8012804D10122D4
:103B100003490548FEF786FC10BD00000044004044
:103B2000000000207800002008000020002802D1BA
:103B300000210029FDD04268002A02D1002100297D
:103B4000FDD041691046084730B5134C87B0A16BD2
:103B500001256D042943A163FEF7CBFAA06BA843AE
:103B6000A063E06A01210843E062E06A052408409E
:103B7000059004200090032001900020240702906B
:103B800069462046FCF7ECFF082000906946204675
:103B9000FCF7E6FF07B030BD0010024001780129B4
:103BA00001D000207047C06841680268914203D389
:103BB00041680068081A04E0816802684068891A50
:103BC000081880B270470278012A01D0002070479F
:103BD00010B50123272213548468002022686368EB
:103BE0009A420BD0226820460C30105C0870A16805
:103BF0002068401CFCF774FA2160012010BD10B54C
:103C0000040001D10028FDD06268002A02D1002002
:103C10000028FDD02169002902D100200028FDD014
:103C2000E069002801D10028FDD06069002801D199
:103C30000028FDD0A069002801D10028FDD0E0684F
:103C4000002801D10028FDD0A068002801D100285B
:103C5000FDD0206A002801D10028FDD00023204695
:103C600020308371C371037243721046884701206C
:103C7000207010BDF0B51B4C87B0E16A05460120ED
:103C80000143E162E16A04260140009605910221A8
:103C900005270191039102903F0704966946384633
:103CA000FCF75EFF08200090694604963846FCF752
:103CB00057FFA06BF1030843A0632846FEF7EBFA19
:103CC0000028FAD1012200211C20FDF76FF91C20E9
:103CD000FDF762F9012204492846FEF71DFB07B0F3
:103CE000F0BD00000010024001000020F8B50025E2
:103CF0000446002801D10028FDD06068002801D1C9
:103D00000028FDD02069002801D10028FDD0E069FD
:103D10000090002801D10028FDD06069002801D161
:103D20000028FDD0A069002801D10028FDD0E66858
:103D3000002E02D100200028FDD0A068002801D16B
:103D40000028FDD0206A002801D10028FDD020786D
:103D500001285CD1B1687068401CFCF7C1F9326879
:103D60000220914201D1054312E07168326891420C
:103D700003D371683268891A04E0B1683268891A1D
:103D800072688918B2685208914201D904210D4322
:103D900026462036317A012902D1307208200543A7
:103DA000B079012821D1307A03281ED00098777984
:103DB0008047C0B2874201D3391A00E0C11BC9B2A3
:103DC000802903D2874207D2494205E0FF2201320F
:103DD000511AC9B28742F7D848B2002805DC002042
:103DE000B0710320307201200543F079012808D119
:103DF000A06801684068814203D10020F071102062
:103E00000543002D03D0226A294620469047F8BD7D
:103E1000F7B582B006460498009030780F46012826
:103E200002D0002005B0F0BD0498002500281CD960
:103E3000F468781921686268914210D0226821469E
:103E40000C31515C0170A1682068401CFCF748F9F6
:103E500021606D1C0498ADB28542E9D305E00020D5
:103E6000203630726D1CA8B20090009805B0F0BDED
:103E700010B50449012208700348FEF7D3FA012067
:103E800010BD00000000002008000020F7B5054626
:103E900084B00020019000902878012802D00020F2
:103EA00007B0F0BDAC6860682168884203D36068E1
:103EB0002168401A04E0A0682168401A616840182F
:103EC000A168002801D1012000900698814215D3F5
:103ED0000598A16806786068401CFCF701F9206825
:103EE000814209D0616820460C300E54A168606898
:103EF000401CFCF7F5F8616001200190069801264E
:103F0000012819D9AC680598A168875D6068401CD4
:103F1000FCF7E6F82068814209D0616820460C3041
:103F20000F54A1686068401CFCF7DAF86160761CE9
:103F30000698F6B28642E5D30098002818D0287873
:103F4000012812D1012127204155AC682068616801
:103F500088420AD0216820460C30085C0290A16893
:103F60002068401CFCF7BCF82160A96902988847CA
:103F7000019807B0F0BD70B5054600780E460128DF
:103F800001D0002070BD2C462034217A0120002968
:103F900001D0032900D12072A071E86980472179FE
:103FA00040186071EC680025A1686068401CFCF74F
:103FB00097F8206881420AD0616820460C300E5480
:103FC000A1686068401CFCF78BF8616001252846F9
:103FD00070BD000070B50D46124CC90705D0FFF743
:103FE000DDFD6268002A07D109E0A90707D5FFF7C0
:103FF000D5FD6268002A02D00146022090472807BA
:1040000005D56268002A02D0002101209047E80609
:1040100005D56268002A02D000210846904700209A
:1040200070BD00000000002000070E091C1B1215C7
:10403000383F363124232A2D70777E796C6B626588
:10404000484F464154535A5DE0E7EEE9FCFBF2F578
:10405000D8DFD6D1C4C3CACD90979E998C8B828568
:10406000A8AFA6A1B4B3BABDC7C0C9CEDBDCD5D258
:10407000FFF8F1F6E3E4EDEAB7B0B9BEABACA5A248
:104080008F88818693949D9A2720292E3B3C353238
:104090001F18111603040D0A5750595E4B4C454228
:1040A0006F68616673747D7A898E878095929B9C18
:1040B000B1B6BFB8ADAAA3A4F9FEF7F0E5E2EBEC08
:1040C000C1C6CFC8DDDAD3D4696E676075727B7CF8
:1040D00051565F584D4A4344191E171005020B0CE8
:1040E00021262F283D3A33344E49404752555C5BD8
:1040F0007671787F6A6D64633E39303722252C2BC8
:104100000601080F1A1D1413AEA9A0A7B2B5BCBBB7
:104110009691989F8A8D8483DED9D0D7C2C5CCCBA7
:10412000E6E1E8EFFAFDF4F30091E3720796E47537
:104130000E9FED7C0998EA7B1C8DFF6E1B8AF86947
:104140001283F1601584F66738A9DB4A3FAEDC4D77
:1041500036A7D54431A0D24324B5C75623B2C051A7
:104160002ABBC9582DBCCE5F70E1930277E6940557
:104170007EEF9D0C79E89A0B6CFD8F1E6BFA881907
:1041800062F3811065F4861748D9AB3A4FDEAC3D37
:1041900046D7A53441D0A23354C5B72653C2B02167
:1041A0005ACBB9285DCCBE2FE0710392E776049517
:1041B000EE7F0D9CE9780A9BFC6D1F8EFB6A1889C7
:1041C000F2631180F5641687D8493BAADF4E3CADF7
:1041D000D64735A4D14032A3C45527B6C35220B127
:1041E000CA5B29B8CD5C2EBF900173E2970674E5D7
:1041F0009E0F7DEC99087AEB8C1D6FFE8B1A68F987
:10420000821361F0851466F7A8394BDAAF3E4CDDB6
:10421000A63745D4A13042D3B42557C6B32250C1E6
:10422000BA2B59C8BD2C5ECF030406080C10182009
:104230003000000000010203040102030406070825
:1042400009000000000000000000000000440040E1
:1042500000960000000000000000000000000000C8
:104260000C00000000000000000000000000000042
:10427000000000000000000000000000000000003E
:10428000000000000000000000000000000000002E
:10429000000000000000000000000000000000001E
:1042A000000000000000000000000000000000000E
:1042B00000000000000000000000000000000000FE
:1042C00008000020E0000020EC010020753C000800
:1042D000493B0008713E0008D52F0008D53F000873
:1042E000050000000000000080841E0000000000A7
:1042F00000000000000000000000000000000000BE
:1043000001000000000000000000000000000000AC
:10431000000000000000000000000000000000009D
:044320000000000099
:020000040800F2
:10480000CC4800080348854600F006F800480047F9
:10481000C92E000830090020064C0125064E05E08F
:10482000E36807CC2B430C3C98471034B442F7D3D1
:10483000FFF7ECFFD84800084849000802E008C824
:10484000121F08C1002AFAD170477047002001E00A
:1048500001C1121F002AFBD17047000010B50548A6
:10486000006800688047406B034900680860006882
:10487000804710BD00480008000B0020004870472A
:104880008848000801207047040000000048000824
:10489000000200000001000000000000000000080D
:1048A000004800000001000000000000004A00086D
:1048B00000480000000100000000000000A2000805
:1048C000000D000000010000000000007D4800080D
:1048D000854800085D48000848490008000B002092
:1048E000040000003C48000844420008000000208A
:1048F000E00000003C480008648B0008000C002029
:10490000E80000003C48000800AA00080011002050
:104910002C0000003C48000824430008E000002070
:10492000500800004C4800084C8C0008E80C00209F
:10493000080300004C4800082CAA00082C11002095
:0C494000540200004C4800080000000079
:020000040800F2
:104A0000448B000870B50546134E00203056032D28
:104A100019D0062D19D0072D17D0002D17D0411C05
:104A200017D00446844203D0E0B202F007F8347095
:104A300030694178C908C90029434170F06982682A
:104A40000120904770BD0124ECE70024EAE702242E
:104A5000E8E70224E8E70000B40C002070B50A4C37
:104A60000546E069216943690222202020319847E8
:104A70002169280A203108704D70E069022203691B
:104A80002020984770BD0000B40C002010B5FBF743
:104A900029FD0022094BFBF799FCFBF763FD084A4F
:104AA000030C11698B71030ACB710872D069032260
:104AB00003690620891D984710BD000080844E4080
:104AC000B40C002070B5294D0446E8692969C26814
:104AD000092009319047E8692969C2684D204D31A4
:104AE000904729697022487AC309002B24D04D23AE
:104AF0005E5C8723B34303D0022C11DA022412E058
:104B0000052C01DA052402E0142C00DD14241043E6
:104B10000009621F00011207120F104348721CE0C7
:104B2000112C00DD112410430009A21E0001120700
:104B3000120F1043487210E00023DB439C4201DA5D
:104B40001C4602E00E2C00DD0E2410430009621CFE
:104B500000011207120F10434872C1B2E86982685F
:104B6000092090476869047170BD0000B40C0020F2
:104B700070B5214C05462169E0693131C2680C2DC0
:104B800001D90C2505E0062D01D2062524E0062DCD
:104B900022D003263120904720692030417CC9086B
:104BA000C90031434174E069826831209047E0696F
:104BB0002169C2681E201E3190472069817F090744
:104BC000090F2A011143C9B28177E06982681E206A
:104BD00090476069857170BD052631209047206936
:104BE0002030417CC908C90031434174E0698268C2
:104BF00031209047DBE70000B40C002070B50C4C6E
:104C00000546E0692169436902221E201E3198474A
:104C10002169AA05887F920F800880001043887759
:104C2000CD77E069022203691E201E31984770BDCE
:104C3000B40C002000487047E80C002001480078C0
:104C400070470000000C002007490A780846407AA7
:104C5000002A05D0012A04D0022A01D1086EC0B270
:104C600070470248407C7047280D0020480D002006
:104C7000002200290FD0401ECB0701D04278401CF3
:104C8000490808D0130242781A4313028278801C24
:104C90001A43491EF6D110467047000006480278B4
:104CA000C08B002A05D00549012A03D0022A00D171
:104CB000888D7047C8887047280D0020680D002037
:104CC000004870477C0D002003480178002901D07E
:104CD00002487047001D7047280D0020540D002029
:104CE00003480078022801D0002070470120704757
:104CF000280D0020074900200A78897A002A03D06D
:104D0000012A03D0022A00D0084670470248807C5E
:104D100070470000280D0020480D002006490A7841
:104D20000846406A002A04D0012A03D0022A00D192
:104D3000886F7047C86C7047280D002007480178BD
:104D400007480029007A05D0012904D0022901D1A1
:104D50000448007F70470448007C7047280D0020FD
:104D6000480D0020880D0020680D0020074A002013
:104D700013781146096A002B03D0012B03D0022BB4
:104D800000D008467047906C70470000280D002046
:104D90007047000070B51449144C0D468022002065
:104DA000FBF7D0FC12490968884205D184222946C4
:104DB0001048FBF7ABF904E084220F490D48FBF7DC
:104DC000A5F9302221460020FBF7BCFC216B88426C
:104DD00005D1342221460948FBF798F970BD3421EA
:104DE0000648FBF7ACF970BD00FF00080004080896
:104DF00080FF0008280D002070880008AC0D0020FE
:104E000070B400244E782546002E06D0012E0BD01B
:104E100035460560446070BC7047032AF9D1897833
:104E20005529F6D12546F4E7DE1C9642F1D18A18C1
:104E3000203AD27F552AECD101221546002BE8D02A
:104E4000491CDA0701D04C78491C5A08E1D02302EA
:104E50004C7823431C028B78891C1C43521EF6D1CC
:104E6000D7E70000F0B5824885B00078002874D0FC
:104E700080498148FBF76EF980490091002801D0F4
:104E8000022549E07E497C48FBF764F9002864D09C
:104E90007D4A7C4913466833F0CBF0C1946FD26FE2
:104EA000DE689D68CE608D600C604A601A695B693F
:104EB0004B610A617549C2794A60037A12021A434A
:104EC0004A60437A12021A437D23DB005A434A6048
:104ED000827A53006E4AD25C8A72837A6A4AD25CC2
:104EE0004A72C37A6B4AD25C0A720C22CA83827BF2
:104EF0005300694AD25A7D23DB005A430A62027B7F
:104F00009300664AD2584A62427B0098027200209F
:104F1000087000F015F90325574F242038700E2033
:104F200078700120594CB8707D213E46C9006068F8
:104F3000FBF7D6F8010CF170010A31717071544E13
:104F4000A17A627A00204300F35A8B4206D14E4B7D
:104F50001B5C934202D1B87104E036E0401CC0B241
:104F60000C28F0D3002008234A49E3560A5C9A42F1
:104F700001D1F87103E0401CC0B20828F6D3474ABB
:104F8000636A002081005158994201D1387203E0D0
:104F9000401CC0B22028F5D300983F4E007A7872AA
:104FA000216A00204200B25A7D23DB005A438A4224
:104FB00001D1B87203E0401CC0B21828F2D30B2113
:104FC0002B48042D017028464FD100F0B9FF04286A
:104FD0004BD100F08BFC042847D101F0A7FA04283C
:104FE00043D12FA1009008684968019020480291A0
:104FF0000578002D38D0204F01A806260024039004
:10500000062D31DB0CE00398395D0078814206D132
:10501000381932460399FBF7B1F8002806D0641C12
:10502000AC4221DA281BB042EDDA1DE0002C1BDB7C
:10503000114DA41D285DFE2816D128194178072995
:1050400012D1807855280FD1094E0024747000F0D9
:1050500077F8FE20A8710820E8712C72552068723C
:105060000A20307003200090009805B0F0BD0000C9
:10507000000C00201A880008E80C0020480D0020D1
:10508000228800082C0D00200C880008280D002024
:105090002A8800081288000836880008508800080E
:1050A000FF454C4901FE000030B402230370531E3B
:1050B0005BB25C1C002C1ADD01249C4302D0C51895
:1050C0006970090A1B1B5BB2002B08DBC4186170F6
:1050D000090AC1549B1E090A5BB2002BF6DA55215E
:1050E0008018417003480932027030BC70470024B8
:1050F000E8E70000000C002001490870704700003C
:10510000000C0020521E52B210B4531C002B14DDB0
:105110000123934301D08154090AD21A52B2002AC2
:1051200009DB81548318090A203BD977921E090AAA
:1051300052B2002AF5DA10BC70470023EDE70000F8
:1051400070B5002484B0254680221F492046039470
:10515000FBF7F8FA1D490860FBF770FC0095022088
:105160001B4D029003A901956846FBF7F9FB002847
:105170000ED1154EFEF726FB325961190220FBF7BE
:105180003FFC0A20FBF7AAFB241DE4B2842CF1D3D8
:10519000302210490020FBF7D5FA0E4D00240E4EA8
:1051A0002863FEF70FFB2A59A1190220FBF728FC00
:1051B0000A20FBF793FB241DE4B2342CF1D3FBF758
:1051C00015FC04B070BD0000280D0020A80D0020C3
:1051D00000FF0008AC0D00200004080870B52A4C40
:1051E00000266078012501282BD1A078062803D05D
:1051F0002079012817D01DE0FFF7CAFDE08840287C
:1052000001D94020E080A079FFF776FF20690028CF
:1052100004D0FFF70FFD2269E1889047E680A0786F
:105220006070A5700DE0A268002A1FD0012149021C
:1052300020789047A268002A03D0FF21013120780E
:1052400090476078062811D1FFF70CFE810603D540
:10525000DF210840257100E02671022802D00328D2
:1052600005D002E0E068002804D1657070BDE068F8
:105270000028FAD0FFF7E2FC0646FFF7DBFCE26805
:1052800031469047F1E70000D40C00200148007837
:1052900070470000D40C002070B5154C0023E3804B
:1052A0002261E160A060FFF775FDFFF70DFD054687
:1052B000FFF706FD0646FFF713FD2A46314602F0CA
:1052C000DFFC0320207001220A490B48FEF716F983
:1052D0000A490948FEF70AF909490748FEF7B4F8F0
:1052E00005490020FEF7A0F803F0B8F870BD0000F3
:1052F000D40C0020C1540008A80F00202957000832
:10530000B5540008F0B5454C01276078002683B0FD
:10531000012807D1A07802281DD00320607002F078
:10532000F1FDA770607802286BD0032811D102F03C
:10533000F7FD01280DD0022827D0A268042859D0F3
:10534000002A03D0FF21053120789047A07801285A
:105350004DD103B0F0BD607002F056FCE188884288
:1053600002D3CDB2E68002E00546481BE080284625
:1053700002F0E4FD2069002804D002F03BFC226921
:105380002946904702F01EFECBE7A268002A03D010
:10539000FF2103312078904768460670067102F0BD
:1053A00041FC0546E068002821D002F023FCE268B9
:1053B0002946904702F054FC6946087102F040FC0F
:1053C000002802DB6846067009E0FF21C84203DAC4
:1053D000FF206946087002E0404269460870E268B2
:1053E000012168469047012101A8E26813E0677037
:1053F00003B0F0BD002AFAD0FF2109312078904790
:10540000F5E702F0EDFD0128F2D0A268002AEED007
:10541000FF21113120789047E9E70000D40C0020EB
:10542000F8B5144C05462078854221D00621124853
:10543000FDF7DAFE1048FEF77EF8002802D10E488C
:10544000FEF76CF9207804280BD1FFF73DFC0746E6
:10545000FFF736FC0646FFF743FC3A46314602F0BA
:105460000FFC25700020E07008210348FDF72CFF99
:105470002078F8BDD40C0020A80F002010B4002222
:10548000FF2811D80A4902230C78002C04D0012CE3
:1054900002D0042C08D103E08B70C880012203E005
:1054A00006228A70C880012210BC10467047000096
:1054B000D40C002010B502F0D1FF012010BD000077
:1054C000F0B504460007954D012685B000284BDA5B
:1054D0000020E880287805283CD201007944097929
:1054E00049188F4402081C323600FFF7D7FB02F040
:1054F00033FD6E702EE06E70FFF7FCFB0746FFF782
:10550000A3FB381A8027C01C8740FFF72FFC3946C1
:10551000FAF7E6FD401C80B202F02CFD1AE06E7036
:105520000420A870FFF7E6FB0746FFF78DFB381A4B
:105530008027C01C8740FFF719FC3946FAF7D0FDD9
:10554000401C80B202F016FD04E06E700520A870C9
:1055500000E06E70AA68002A03D0FF21023128788B
:1055600090470820EE704440002C73DAE878012858
:1055700071D1287805286ED201007944097949183B
:105580008F440202058CA300FFF7BCFE9FE0687801
:1055900001280FD1A87803280BD0042802D00528B1
:1055A00007D103E0687002F00DFB02E0687002F0C2
:1055B000EDFCAE706878032804D0042854D0052888
:1055C00049D15FE002F0ACFC012844D002280BD0A6
:1055D000AA68042840D0002A03D0FF21053128788A
:1055E00090470420A87057E00027684607720773A9
:1055F00002F018FB0190E868002821D002F0FAFAC6
:10560000EA680199904702F02BFB6946087302F0A3
:1056100017FB002802DB6846077209E0FF21C84239
:1056200003DAFF206946087202E0404269460872C8
:10563000EA68012102A89047EA68012103A890477F
:10564000AA68002A03D0FF2103312878904705205B
:10565000A87021E03EE03AE0002A03D0FF210931A2
:10566000287890470520BDE702F0B8FA01282ED02F
:105670000828ECD00928EAD102F044FC0320A870E5
:10568000687024E002F090FC0A2820D10020E87025
:1056900004212348FDF718FE6E7018E06878012891
:1056A00004D1A878687002F071FCAE7068780528A3
:1056B0000DD102F079FC0A2809D10020E8700221FE
:1056C0001748FDF701FEAE7001E0FFF787FD0120EE
:1056D000C0074440A0070227002804DA0021104830
:1056E000FDF73CFF7C4060070BD5FFF73FFB7D21BA
:1056F000C900FAF7F5FC01460948FDF72FFF042021
:105700004440E00707D0AF706423012204490548F4
:10571000FDF7FEFD7440204605B0F0BDD40C00201E
:10572000A80F0020DC0F002010B503F02DF8082191
:105730000248FDF7C9FD012010BD0000A80F0020A0
:1057400010B50248FDF7F7FE10BD0000A80F0020BD
:1057500000B585B001210291022103914902052281
:105760001207009100280FD00B480190694610469F
:10577000FBF7F6F9002203210720FBF717FC0720AF
:10578000FBF70AFC05B000BD0020019069461046F9
:10579000FBF7E6F905B000BD0000111010B5114C83
:1057A0006069C17A012913D1007BFFF727FAE0690C
:1057B0002169C2681C201C31904720690A49007F7A
:1057C0008006000E0858616909684018FFF75EF905
:1057D000E0690221826812209047E068401CE06086
:1057E00010BD0000B40C0020488A000810B501204C
:1057F000FFF708F90F4C0021206920300171606922
:105800000068FFF743F92069FA214174E069826872
:1058100011209047216920204031087040204870B5
:10582000E06902220369402098470720FFF7EAF861
:1058300010BD0000B40C0020F8B500266846012514
:10584000067001F0D2F8284C0128E06917D0C26830
:10585000694612209047684600784007E06918D5ED
:10586000042182681220904768460078C0070ED055
:10587000E0690121826812209047092532E0042165
:1058800082681220904701F09AF80128F0D008258C
:1058900028E0C26821690120491C904720694078AE
:1058A0004007400F01281DD1FFF7ACF820692030D8
:1058B000067160690068FFF7E9F82069FA21417410
:1058C000E0698268112090472169202040310870EA
:1058D00040204870E0690222036940209847072071
:1058E000FFF790F82846F8BDB40C0020F0B5FFA1F2
:1058F000086889B049680690FE4807910478042634
:10590000002C5AD0FC4906A80627002504910390D4
:10591000062C52DB0EE00498415D0398007881422A
:1059200007D104983A4640190399FAF727FC002852
:1059300006D06D1CA54240DA601BB842EBDAE7E204
:10594000002D3ADBEB48AD1D00786946401BC0B224
:105950008446E948098B01806946498B4180694644
:10596000898B818041190B78841DE44FE44A0D46F0
:105970000892082B7ED009DC1FD21A007A441279D3
:10598000921897441A14F4F2F1F0EFEE0C2B72D047
:1059900006DC092B70D00A2B6FD00B2B0DD11BE22C
:1059A000102B6BD0112B6AD0202B06D191E2687896
:1059B000012803D0002866D00426A9E2A81C0421EF
:1059C000FFF756F9CF4E01217065A81DFFF750F97A
:1059D00008990876E81D0421FFF74AF9F065284682
:1059E0000B300421FFF744F9306628460F300421BC
:1059F000FFF73EF97066284613300421FFF738F9A7
:105A0000B066284617300221FFF732F908998885D9
:105A1000284619300121FFF72BF9B87328461A30B0
:105A20000121FFF725F9F87328461B300121FFF704
:105A30001FF9387428461C300121FFF719F97874D2
:105A400028461D300421FFF713F9B067284621309E
:105A50000121FFF70DF93877284622300121FFF7A1
:105A600007F9012801D10220307068782326012827
:105A70000AD005E052E1CEE171E18FE1EAE109E20D
:105A8000002801D044E2222601202070022060700C
:105A90009C480422416DA01CFFF734FB0898182194
:105AA0004156A01D0122FFF72DFB96480422C16D2F
:105AB000E01DFFF727FB93480422016E20460B30C0
:105AC000FFF720FB8F480422416E20460F30FFF77E
:105AD00019FB8C480422816E20461330FFF712FB1D
:105AE00008980222818D20461730FFF70BFB2046D5
:105AF000B97B19300122FFF705FB2046F97B1A30EC
:105B00000122FFF7FFFA2046397C1B300122FFF704
:105B1000F9FA2046797C1C300122FFF7F3FA794824
:105B20000422816F20461D30FFF7ECFA2046397FB2
:105B300021300122FFF7E6FA7248222501787248E7
:105B4000022908D001220021FFF7DCFA5520605518
:105B50006848ED1D39E101221146FFF7D3FA2325EC
:105B6000F4E7A9E087E065E044E021E0FFE70446D0
:105B70000423624602A8FFF743F90298039900063E
:105B8000000E0FD001280FD002284CD20221A171A3
:105B90005C490422496DE01DFFF786FA55490D2046
:105BA0000870B5E12226F1E7564823264165EDE766
:105BB00004460123624602A8FFF722F902980399DE
:105BC0000006000E10D0012810D002282BD203218D
:105BD000A171089B182101225956E01DFFF764FAB4
:105BE00044490A20087093E12226F0E7089823260A
:105BF0000176ECE704460423624602A8FFF700F9A9
:105C0000029803990006000E0ED001280ED002283B
:105C100009D204223B49A271C96DE01DFFF744FA85
:105C200034490D20087073E12226F2E73548232617
:105C3000C165EEE704460423624602A8FFF7E0F8D8
:105C4000029803990006000E0FD001280FD00228F9
:105C50005DD20520A0712B480422016EE01DFFF7E4
:105C600023FA24490D20087052E12226F1E7254845
:105C700023260166EDE704460423624602A8FFF7E7
:105C8000BFF8029803990006000E0FD001280FD02C
:105C900002283CD20620A0711A480422416EE01D61
:105CA000FFF702FA13490D20087031E12226F1E7CF
:105CB000144823264166EDE704460423624602A801
:105CC000FFF79EF8029803990006000E20D00128E5
:105CD00020D002281BD20720A0710A480422816E1E
:105CE000E01DFFF7E1F90D2002490FE0FF454C49A7
:105CF00001010000000C0020E80C0020880D0020AD
:105D0000680D0020280D0020100D00200870FFE015
:105D10002226E0E7884823268166DCE70446022342
:105D2000624602A8FFF76CF8029903980906090E6B
:105D30000FD001290FD0022948D20821A17108995A
:105D40000222898DE01DFFF7AFF97C480B2101701D
:105D5000DEE02226F1E7089923268885EDE7044650
:105D60000123624602A8FFF74BF802980399000648
:105D7000000E0ED001280ED0022827D20920A071D3
:105D80000122B97BE01DFFF78FF96C490A200870EA
:105D9000BEE02226F2E7B9732326EFE7044601238B
:105DA000624602A8FFF72CF8029803990006000E3D
:105DB0000DD001280DD0022808D20A25A571012294
:105DC000F97BE01DFFF770F95C480570A0E0222622
:105DD000F3E7F9732326F0E704460123624602A89D
:105DE000FFF70EF8029903980906090E0ED0012953
:105DF0000ED0022947D20B20A0710122397CE01D70
:105E0000FFF752F94D490A20087081E02226F2E797
:105E100038742326EFE704460123624602A8FEF702
:105E2000EFFF029903980906090E0ED001290ED042
:105E300002296DD20C20A0710122797CE01DFFF7B0
:105E400033F93E490A20087062E02226F2E77874AE
:105E50002326EFE704460423624602A8FEF7D0FF9C
:105E6000029803990006000E0ED001280ED00228D9
:105E70004ED20D253049A5710422896FE01DFFF730
:105E800013F92E48057043E02226F2E72A4823261C
:105E90008167EEE704460123624602A8FEF7B0FFE1
:105EA000029903980906090E0ED001290ED0022985
:105EB0002ED20E21A1710122397FE01DFFF7F4F8E7
:105EC0001E490A20087023E02226F2E738772326AD
:105ED000EFE704460123624602A8FEF791FF02980D
:105EE00003990006000E16D0012816D002280FD202
:105EF0002021A171104920460978012914D00024DD
:105F000022462146C01DFFF7CFF80C480934047023
:105F1000304609B0F0BD2226EAE7012902D1064940
:105F2000022008702326E3E7012422462146C01DF3
:105F3000FFF7BAF8E9E70000280D0020000C002068
:105F4000F0B5FFA108688DB049680591FE4904903D
:105F50000C780426002C7DD0FC48029004A806276B
:105F600000250790062C75DB0EE00298415D07982E
:105F70000078814207D102983A4640190799FAF70A
:105F8000FDF8002806D06D1CA54263DA601BB842FC
:105F9000EBDAB5E2002D5DDBEB48AD1D0078EC4A95
:105FA000401BC0B28446E948EA4F45192B78841D4E
:105FB00029460892082B7BD009DC4BD21A007A4480
:105FC0001279921897444612E3FDFCFBFAF9102B64
:105FD0006FD006DC092B6DD00A2B6CD00B2B39D17E
:105FE00009E2112B68D0202B34D16AE268780128AD
:105FF00002D0002861D003E2A81C0421FEF738FE7D
:10600000D54E0121F062A81DFEF732FE3874E81D5E
:106010000121FEF72DFEB874284608300121FEF755
:1060200027FE7874284609300121FEF721FEF87416
:1060300028460A300121FEF71BFE387528460B3032
:106040000121FEF715FEF87528460C300121FEF7F8
:106050000FFE00E0FBE0387628460D300221FEF707
