:020000040000FA
:06000000020A460201C8DD
:030013000201EAFD
:03002B0002073C8D
:03003B0002023F7F
:030053000200F6B2
:100083000201590101FFC40CC40CC40CC40CAA0B1B
:10009300A40BC40C211800000000BF1700000000CF
:1000A3000C0000000C000000320E000000000000F5
:1000B300000000000000000000000000FFFF50618E
:1000C300726B53656E736F72204D61633A313233D5
:1000D300343536205665723A30312E303031203087
:1000E300312E313030000102030202029651180012
:1000F300020212C0E074F11204F6A2AFE433FED29E
:10010300AFE5A7FFE5A1F5085FF509741055096090
:10011300061212BE75A1EF7408550960081212C4C5
:1001230075A1F78024E508A2E092F0EFA2E082F047
:100133005017906198E0F8900781E0C398A2D265C8
:10014300D0335002E8F075A1FE751A00EEA2E092DA
:10015300AF7F02020555C0E074F21204F6A2AFE4C9
:1001630033FED2AF9061A4E0F8759B00E59158543B
:100173000860087591F712130C8023E59158541009
:1001830060087591EF1213128014E591A2E092F0CA
:10019300E8A2E082F05007E0C2E0F012146290613E
:1001A300A3E0F8E5E9585404600E12143875E9FB2E
:1001B300906193E0A2E640F2751A00EEA2E092AFDE
:1001C3007F01020555C0E074F21204F6A2AFE433D6
:1001D300FED2AF9061A5E0F8E5BF58540460067500
:1001E300BFFB12147A80D1C0E0C0D0E8C0E0E9C000
:1001F300E0C082C083E5C1C0E09006EDE0F8746C16
:1002030028F58274063400F583D0E0F09006ECE024
:10021300F8A3E0687006E5959006EFF09006EDE030
:1002230004F0C394804002E4F0A374C6F0D083D0FA
:1002330082D0E0F9D0E0F8D0D0D0E032C0E074F161
:100243001204F6900770E0F8A3E0687019539AFB64
:10025300A37401F07C967D007A087B009005B9E0D9
:10026300F912106C8027C2E9900770E0F508740159
:100273002508F074F02508F58274063400F583E050
:10028300F5C1900770E0C394804002E4F07F02025E
:100293000555C3E498F8E499F91202D68026C3E41D
:1002A3009AFAE49BFBE920E7E91202D6E498F8E422
:1002B30099F922C3E498F8E499F91202D6E498F87C
:1002C300E499F9C3E49AFAE49BFB22EB20E7CFE934
:1002D30020E7E0B90010BB0008E88AF084F8AAF030
:1002E30022E4FBC8FA22EB70227B10C833C8C9335F
:1002F300C9335007C39AC3DBF280069A50012ADB45
:10030300EAC833F4C8C933F4C9FA2275F008E4C85B
:1003130033C8C933C933C99AC99B5004C92AC93BD5
:10032300D5F0ECFBC833F4C8E4C9FA22080808EA9C
:10033300C0E0EBC0E086F0E7A4FA180986F0E7A472
:100343002AFA180986F0E7A42AFA180986F0E7A41E
:100353002AFA1986F0E7A4FBE5F02AFA190886F0D1
:10036300E7A42BFBE5F03AFA190886F0E7A42BFB88
:10037300E5F03AFA18180986F0E7A4C5F02BFBE478
:100383003AFA1908E7C5F0C6A426F6E5F03BFBE404
:100393003AFA1886F0E7A4F6E5F00826F6E43B08F7
:1003A300F6E43A08F6D0E0FBD0E0FA22E4CFC0E06E
:1003B300E4CEC0E0E4CDC0E0E4CCC0E075F020C3FF
:1003C300E633F608E633F608E633F608E633F618BE
:1003D3001818EC33FCED33FDEE33FEEF33FFC3ECC3
:1003E3009709ED9709EE9709EF97191919400FFF30
:1003F300EC97FC09ED97FD09EE97FE191906D5F068
:10040300BEECF709EDF709EEF709EFF7191919D063
:10041300E0FCD0E0FDD0E0FED0E0FF222518C5824D
:10042300C0E0E51934FFC583C0E0E518C395822415
:10043300F810AF088583198582188008858319858C
:100443008218D2AFCEF0A3E520F0A37808E608F037
:10045300A3DEFAEFF0A3E58124FAF8E608F0A3E6B9
:1004630008F0A3E608F0A30808E608F0A3E608F0FE
:10047300A315811581D0E0FED0E0F8158115811513
:1004830081E8C0E0EEC0E022120AA8B9000302042A
:10049300E0E4900301785C79068002F0A3D8FCD9EC
:1004A300FA781A9000867A01BA00028007E493A3CF
:1004B300F608DAF990085CAA82AB8390008778701B
:1004C30079018015E493A3AC82AD838A828B83F098
:1004D300A3AA82AB838C828D83D8E9D9E77582DCAA
:1004E3007583F774011208007582C675831674004C
:1004F300120800C0D02518C582C0E0E51934FFC535
:1005030083C0E0E518C3958224F310AF08858319EF
:100513008582188008858319858218D2AFC8F0A315
:10052300E9F0A3EAF0A3EBF0A37908E709F0A3D875
:10053300FAECF0A3EDF0A3EEF0A3EFF0A3D0E0F01C
:10054300A3D0E0F0A3D0E0F0A3E520F0A3E5F0F022
:10055300A322851983851882E0C0E0A3E0F9A3E014
:10056300FAA3E0FBA37808E0F608A3DFFAE0FCA314
:10057300E0FDA3E0FEA3E0FFA3E0C0E0A3E0C0E052
:10058300A3E0F5D0A3E0F520A3E0A3F5F010AF08B6
:100593008583198582188008858319858218D2AFCF
:1005A300D082D083D0E0F8D0E0321209E4181818D2
:1005B3001203AF1209F5191919221209F51919199C
:1005C300080808E618181820E7E01203AF1209E438
:1005D30018181822090909E719191920E7DC08086E
:1005E30008E618181820E7030203AF1209E41818E5
:1005F300181203AF1209E41818181209F51919197A
:100603002275F0108E218F228582268583258518F9
:1006130082851983E0CEA3E0CF852682852583EBEF
:10062300C9EAC8EDCBECCAC3E833C8E933C9EA3336
:10063300CAEB33CBC3EA9EF524EB9FF523B35004F7
:10064300AB23AA24EC33CCED33CDD5F0DAAE21AF16
:100653002222851983851882E0A3FEE0A3F5207882
:1006630008E0A3F608DFFAE0A3FFE0A3C0E0E0A3FD
:10067300C0E0E0A3C0E0E0A3C0E0E0A3C0E010AFAF
:10068300088582188583198008858218858319D285
:10069300AFD083D082020806D083D082E9C0E0E4E1
:1006A30093A3C386F0C5F095F0F908E493A386F00D
:1006B300C5F095F0700BE493A3C3994005E904805A
:1006C30002A3E475F002A42582F582E5F03583F5F3
:1006D30083D0E0F9E493A3C0E0E493C0E022740480
:1006E300800474028000CCC0E0EDC0E0E518C39C38
:1006F300CCAD1950011D10AF068C188D1980068CD6
:10070300188D19D2AF120782D0E0FDD0E0FC22D0C1
:1007130083D082CCC0E0E493A360061207E1147097
:10072300FAE493A360061208CF1470FAD0E0FCE455
:1007330093A3C0E0E493C0E022C0E0C0D0E8C0E0EF
:10074300E9C0E0E5A8D2AFC2C7751A00A2E7A2E7E5
:1007530092AFD0E0F9D0E0F8D0D0D0E032CAC0E018
:10076300E493A3C582CCC582C583CDC583F0A3C55D
:1007730082CCC582C583CDC583DAE5D0E0CA22CA5F
:10078300C0E0E0A3C582CCC582C583CDC583F0A3F9
:10079300C582CCC582C583CDC583DAE6D0E0CA2243
:1007A300C008C3E096F50808A3E096420808A3E052
:1007B30096420808A3E09645087001D3D00822703A
:1007C30009080808226016181818C6C333C608C6D5
:1007D30033C608C633C608C633C6D5E0EA22C0E02E
:1007E300E493A3D39C5010E493A3C39C400AD0E0AA
:1007F300D0E0D0E002072FA3A3A3D0E022C09FF54F
:100803009FE473D09F22D083D082C09FE493C0E043
:10081300740193C0E0740293F59F227404800A74F8
:10082300038006740280027401C0E0F404120839E4
:10083300D0E0120A83222518F58210AF08F518407C
:100843000215198008F51840021519D2AF851983CE
:1008530022C0D0251810AF08F518500205198008DA
:10086300F51850020519D2AFD0D022BB0102E722FE
:10087300C082C08389828A83BB0003E08002E49341
:10088300D083D082226016080808C6C313C618C6D0
:1008930013C618C613C618C613C6D5E0EA22C3E0AA
:1008A300C696F608A3E0C696F608A3E0C696F60831
:1008B300A3E0C696F622251810AF08F518400215D6
:1008C300198008F51840021519D2AF22C0E0E4934D
:1008D300A36C7009D0E0D0E0D0E002072FA3A3D02F
:1008E300E022E066701008A3E066700A08A3E066E1
:1008F300700408A3E06622E76670100809E76670D3
:100903000A0809E76670040809E76622C3E0960847
:10091300A3E09608A3E09608A3E096A2D265D0339D
:1009230022C3E697F60809E697F60809E697F6085C
:1009330009E697F622C3E096F008A3E096F008A331
:10094300E096F008A3E096F022700422600D18C62A
:10095300C333C608C633C6D5E0F41822E056F00800
:10096300A3E056F008A3E056F008A3E056F022E017
:1009730056F608A3E056F608A3E056F608A3E05699
:10098300F622E026F008A3E036F008A3E036F008EC
:10099300A3E036F022E026F608A3E036F608A3E04B
:1009A30036F608A3E036F622E627F60809E637F618
:1009B3000809E637F60809E637F622E657F6080986
:1009C300E657F60809E657F60809E657F622E6471A
:1009D300F60809E647F60809E647F60809E647F682
:1009E30022E4C396F608E496F608E496F608E4963D
:1009F300F622E4C397F709E497F709E497F709E4C4
:100A030097F722600D08C6A2E713C618C613C6D50A
:100A1300E0F322C6F4C608C6F4C608C6F4C608C680
:100A2300F4C622C3E7960809E7960809E79608097A
:100A3300E79622C3E09608A3E09608A3E09608A3EE
:100A4300E0962275D0007581407518017519030071
:100A530002048BE0F608A3E0F608A3E0F608A3E09F
:100A6300F622600C08C6C313C618C613C6D5E0F435
:100A730022E6F008A3E6F008A3E6F008A3E6F022D6
:100A8300CAC0E0E6F0A308DAFAD0E0FA22E0FAA35B
:100A9300E0FBA3E0FCA3E0FD22EAF0A3EBF0A3EC70
:100AA300F0A3EDF022E5C754F84401F5C77901221C
:100AB3002518F582E43519F58322C2AF75D69F0256
:100AC3000000221208095C82011208098B840112BA
:100AD3000809628501120809A6850112080913860F
:100AE30001120809CE8601120809008701120809BC
:100AF300338701120809888701120809DD8701126B
:100B03000809658801120809D588011208097E8A37
:100B130001120809668B01120809A88C0112080941
:100B2300D68E01120809BC8F01120809D08F011259
:100B33000809DA8F011208090490011208091090BC
:100B430001120809C99001120809E7900112080966
:100B53002B9101120809039201120809D190021284
:100B63000809109102120809EE1A00120809481B1D
:100B730000120809A41B00120809F01B001208093F
:100B83000B1C001208093C1C00120809591C001216
:100B93000809651C00120809D91D00120809F21D75
:100BA30000120809591E001208096C1E00120809D8
:100BB3007A1E001208092E1F0012080912200012C3
:100BC30008091821001208099E2100120809A8210A
:100BD300001208091522001208092C220012080924
:100BE300562200120809B72200120809D722001260
:100BF3000809F522001208093B23001208096124A1
:100C030000120809AE2400120809DD2400120809A5
:100C13005325001208097B2500120809B425001288
:100C23000809C225001208091A26001208096926B4
:100C330000120809A82600120809D826001208097C
:100C43000427001208090F27001208092D27001294
:100C53000809EF2700120809F927001208093428A8
:100C6300001208098928001208099D2800120809A2
:100C7300AB2900120809BE2900120809D529001260
:100C83000809EA2900120809BC2A00120809D82A0F
:100C9300001208092A2B00120809692B00120809FF
:100CA3007E2B00120809C02B001208090D2E00121A
:100CB30008098B2E00120809FE2E001208092031A4
:100CC300001208093831001208093B3100120809E3
:100CD3004731001208095B31001208096331001221
:100CE3000809963100120809463200120809BC327D
:100CF300001208092F3300120809E3330012080910
:100D0300983400120809B734001208095735001245
:100D13000809823500120809853500120809B4351F
:100D230000120809C93500120809333600120809F0
:100D33005B3700120809333800120809BE38001265
:100D43000809D73900120809943A00120809CD3A64
:100D530000120809873B00120809B73B0012080973
:100D6300923C001208092B3D00120809B63D0012FF
:100D73000809673E00120809E93E001208091B3FF3
:100D8300001208095C3F00120809913F001208098C
:100D93008FF301120809F4F30112080931F4011267
:100DA300080994F401120809C7F401120809EFF4C1
:100DB3000112080917F50112080973F50112080950
:100DC3003D92011208095392011208097E92011201
:100DD30008098F92011208090593011208097F94EB
:100DE30001120809E8940112080951950112080932
:100DF300659501120809E8950112080989960112FF
:100E030008096C86021208097A8602120809CB8641
:100E130002120809108702120809B387021208098F
:100E2300198B021208095B8302120809A0840212BB
:100E33000809D6A90112080985AA01120809A5AA59
:100E430001120809C3AA01120809D7AA0112080945
:100E530041AB0112080971AB0112080902AD01127D
:100E63000809ABAD0112080996AE01120809EAAEF2
:100E7300011208092DAF011208099BAF01120809DD
:100E8300E4AF0112080905B0011208096EB001129E
:100E93000809A3B00112080915B101120809A0B28B
:100EA3000112080976B301120809B8B3011208093F
:100EB30012B4011208099DFD01120809BEFD0112B9
:100EC3000809F8FE0112080922FF01120809BC8172
:100ED3000212080935820212080940820212080927
:100EE3006182021208097ABD01120809B7BD011215
:100EF300080907BE0112080975BE0112080996BE4A
:100F030001120809ADBE011208094DBF01120809FB
:100F130056BF01120809A3BF01120809CCBF011271
:100F230008092AC001120809C2C001120809F4C045
:100F33000112080956C101120809D5C10112080995
:100F43001FC20112080960C20112080997C20112E7
:100F53000809A9C201120809BBC201120809DAC2B1
:100F630001120809E3C201120809B0C301120809FA
:100F7300F0C3011208091DCA01120809F2CA0112BD
:100F830008090CCB011208091DCB011208093CCD3D
:100F9300011208095BCD011208095CF1011208096D
:100FA30092F101120809DDF10112080928F3011277
:100FB3000809EE65001208092267001208095E6736
:100FC300001208091669001208095069001208097D
:100FD300C96B00120809096C001208099D6D001203
:100FE30008093D6E001208099F6E001208092C6F54
:100FF30000120809646F00120809A46F001208099F
:10100300357100120809DD72001208093A750012E1
:10101300080968750012080994750012080925C4A7
:1010230001120809F875001208098E7600120809E2
:10103300EB7900120809707A00120809E58E021292
:101043000809FD8E02120809478F021208095691FA
:101053000212080977DB011208098CDB0112080967
:1010630025DC0112080961DC0112080978DC011290
:1010730008099FDC01120809E1DC0112080912DDED
:10108300011208093A8201120809BDDE011208099A
:1010930001DF011208094C8E02120809898E02121F
:1010A3000809CB8E02120809DB8E02120809919EF1
:1010B30001120809A19E01120809E09F0112080903
:1010C30012A001120809A1A00112080932A30112FA
:1010D300080963A3011208095AA901120809EAF9C8
:1010E300011208098EFA0112080906FB0112080908
:1010F30051FB011208095EFB01120809A1FB011251
:101103000809F78F021208090390021208093D909B
:101113000212080900920212080903920212080936
:10112300D0EC0112080901ED01120809BAED011210
:10113300080920EE0112080991EE011208096BF863
:1011430001120809929102120809CD8C02120809B2
:10115300DE8C021208097E8D021208090080021239
:1011630008090E8002120809089202120809728FF8
:1011730002120809828F02120809978F02120809C6
:10118300EB8F021208091589021208099A890212C3
:101193000809008A02120809E97F001208097CD7AE
:1011A300011208098AD70112080904D80112080993
:1011B300E8D801120809B4DA0112080915DB011293
:1011C300080964DB01120809F87F00120809CAFB49
:1011D30001120809ECFB0112080916FD01120809A6
:1011E3009AFD0112080995E201120809E8E20112C9
:1011F300080976E30112080916E4011208092EE42E
:1012030001120809A7E401120809BBE40112080945
:101213001AE50112080924E50112080916EF011263
:1012230008093FEF011208095BEF0112080977EF84
:101233000112080989EF01120809B9EF011208091F
:10124300D8EF011208091BF00112080958F0011226
:101253000809A6F00112080900F1011208091BD3BD
:101263000112080923D50112080955D501120809ED
:1012730077D50112080990D501120809A9D50112E1
:101283000809B3D6011208093DD701120809F784EA
:10129300021208091B850212080934850212080983
:1012A300738502120809A68502120809D68502125F
:1012B3000809E085021208094886021208094B86CC
:1012C30002120809558602120809628602120809E9
:1012D30068E50112080990E501120809D1E5011238
:1012E3000809E3E501120809FEE50112080966E6AB
:1012F3000112080972E601120809D1E60112080970
:10130300F5E601120809B6E701120809C3E701125D
:101313000809D4E7011208091A9102120809379142
:1013230002120809117B00120809737C00120809D4
:10133300797C00120809907C00120809B17C001224
:101343000809C77C00120809DB7C001208095A7DD2
:1013530000120809BF7D00120809477E0012080920
:10136300C07E00120809997F00120809A97F0012A4
:101373000809B87F0012080965FF0112080989FFEF
:1013830001120809B1FF01120809D9FF0112080966
:10139300BFF501120809E6F50112080904F6011266
:1013A300080976F6011208096FEA0112080988EAAA
:1013B300011208099FEA01120809A8EA01120809A3
:1013C300C6EA01120809D0EA01120809DAEA011291
:1013D3000809EDEA0112080945EB011208097EEB41
:1013E30001120809ACEB01120809FDEB011208090F
:1013F30049EC0112080964EC011208096EEC0112B0
:1014030008097FEC01120809C5EC01120809749060
:1014130002120809C5900212080926B4011208092C
:1014230052B40112080970B40112080983B40112FD
:1014330008099EB401120809FDB4011208092BB56D
:101443000112080942B90112080975BA0112080903
:10145300A7BA011208090FBB0112080963BC0112E4
:1014630008098BBC01120809A0BC01120809B0BC11
:1014730001120809F0BC011208093CBD0112080958
:101483004CBD01120809DD8702120809ED8702121B
:1014930008090B88021208092688021208094D88D8
:1014A300021208096E8802120809888802120809C4
:1014B300C08802120809E38802120809988D0212F3
:1014C3000809DE8D021208090EDF0112080915DF73
:1014D3000112080932E00112080962E00112080949
:1014E30088E001120809BBE001120809CDE00112EE
:1014F300080909E1011208096FE101120809ABE1CA
:1015030001120809F2E1011208091FE20112080998
:1015130040E201120809EC7F00120809198A02123D
:101523000809788A02120809B68A02120809F78A9A
:101533000212080902E801120809DDE8011208098C
:10154300FA8B02120809168C02120809618C021226
:1015530008097D8C02120809BA8C02120809C38C8F
:1015630002120809A2CE0112080990D20112080939
:1015730095D201120809B1D201120809C6910212CB
:101583000809BD6500120809866400120809E363AF
:10159300001208099062001208094160001208094C
:1015A3004A5F001208092E5F00120809BE5E00128E
:1015B3000809765E00120809B45D00120809275D68
:1015C300001208091A5D00120809285A00120809B6
:1015D3007A57001208094E5600120809A255001244
:1015E3000809F35300120809AE51001208093551D6
:1015F30000120809DC500012080970500012080993
:101603004750001208094B4E00120809234E0012DE
:101613000809884D001208099F8101120809CDC9E4
:1016230001120809D9C6011208091DC601120809C9
:10163300A7C501120809404D00120809754B001295
:101643000809694B00120809944A00120809B5C435
:1016530001120809624A001208099F490012080989
:10166300CA47001208095B470012080964C4011243
:1016730008094DDD011208092D47001208092A4700
:1016830000120809174700120809CB46001208097F
:10169300BA4600120809B445001208097E45001233
:1016A3000809454500120809004200120809F140E3
:1016B300001208093EC401120809FC3F0012080980
:1016C3009D750000000080FBE473000136360101C4
:1016D30000010201000103010001040106060502E5
:1016E3000000070100340801000F090401010D0186
:1016F30000FF0E08000017020000190100FF1A0185
:1017030000011B0100FE1C0100081D0200001F0157
:10171300000120010001210200002301000F240227
:1017230000002601000127010008280200FF2A010A
:1017330000072B0102402C0100002D0100012E01A6
:1017430000012F0100FF30010B1C310800003A019A
:1017530000083B01000F2F0100000101710101018D
:101763000101110101013101010101018001100198
:1017730061013B00140063017301720162014301C3
:101783000001130106013D013500040112010001AE
:1017930000010001000104010401330133013C0194
:1017A30044013201360000010001650100013500EA
:1017B300810100010501820183010001010371031D
:1017C30001030103010301030103220302030103D4
:1017D30010030003000300030003000300030003DE
:1017E300420300032403060300030003040312035C
:1017F3002503230325032303040304030003000336
:1018030000034403000300032303000365032100D3
:1018130035038103000305030003000300030300F2
:101823007100300160001100700031022003500488
:101833008000100061000000140063007300720058
:1018430062004300000013000600000000000400D3
:101853001200000000000000000004000400370034
:1018630037003C0244000000000000000000650057
:101873000000350081000000050000008300000027
:1018830003027102300160021102700201020202BE
:1018930002028002100261023A00410063027302F5
:1018A30072026202430200021302380000020002C5
:1018B30004021202000200020002000204020402F7
:1018C300370037003C0244020002390000020002E4
:1018D30065020002350281020002050282028302D0
:1018E300000236000100060000000F0000000000A7
:1018F300000000000000000003FFFF00000403FFDE
:10190300FF0000FFFF0FF4010005C40403200001E2
:1019130000000B000000000000000003010F03EAB9
:10192300F5E5D5D5C5B5A5959585857575656555D4
:1019330055454535352525151505F80B280CFE0BA2
:10194300040C220C160C100C2E0C340C3A0C460C06
:101953000A0CF20BEC0B00160F00000B150B020028
:1019630002220F32000006C40CD60CDC0CCE0BE2B4
:101973000CC80BD40B2A0D480D4E0D300D3C0D3603
:101983000D0C0E020B040B0A0708000F00383C3E37
:10199300363B3B352B432C303016181920231A1CA9
:1019A3001E30303017181921301B1D1F301C0C40FE
:1019B3000C420D4C0C520C120DE80CEE0CFA0CF40C
:1019C3000C020402010101010902000000000000F1
:1019D30000BE040A050C0A091E1008122AAEF9EA11
:1019E30022E0F508E4F509F50AF50B22740912085B
:1019F300547F04020655EE2412FAEF3400FB120C56
:101A0300A0E9227905120CAC740422E024F5C394F6
:101A13001222121A19221212A08A0C8B0D8C0E8D0F
:101A23000F22120D849007B912323A7A147B0022E6
:101A3300FB121A3EE8F0A3E9F0EE22121A468A825C
:101A43008B83228A828B83E024FFF8A3E034FFF99F
:101A530022EE240E123490740122121A9E1208549C
:101A63007F08020655121A98A2E522123493E4F075
:101A7300227F05020655E508122DD9E509121A98A9
:101A8300227AA87B03120F34740222121A9222EED6
:101A93002410F582EF3400F583E022120D787404EC
:101AA30022F582EF121A98F822EE240DF582EF1236
:101AB3001A98640122E0FEA3E0FFEE4F22F582EFC5
:101AC300121A9822FAEF3400FB79E11213A222F0E2
:101AD300EEFAEFFB22EE240EF582EF12349322F09E
:101AE300A3F0022225120854022615C082C0837473
:101AF300FE1208B980077AA87B03121B2C9003A857
:101B0300122A8670F19003AA122A8660097AAA7BA8
:101B130003121B2C80EF9003A8E4F0A3F09003AE14
:101B2300F0A3F0A3F074028016120F2E851882859D
:101B33001983EAF0A3EB123A6B120C8E2274111282
:101B4300085402222574F612041FE9FF8F08748FCC
:101B5300122A8C7419122A91FE8E08FA7B00120F36
:101B630010EA4B6017EA2508F8EB3400F98A828BF8
:101B730083123323A3A3A3A3E4F080227A027B007E
:101B8300120F10EA4B60138F0874A5122A8C741974
:101B9300121F0FF0A3741A121F247A007B00023362
:101BA300DEE9FDEAFC74062DFAECA2E0501EEA75AC
:101BB300F00A84A8F0E86014740A2AC398FAE8C308
:101BC30094054004740A2AFA740B2AFAEDC3941399
:101BD3004004781480027806E82A2409F8E43400E3
:101BE300F97A0A7B001202CEE8F9020806C082C025
:101BF300839003D8E05402600A12156AE9600479FD
:101C03000180027900022225C082C0839003D8E0BC
:101C1300540260149003AEE0700A122A8360091222
:101C23001C3050047901800279000222259003B10F
:101C3300E024101220FFA2E722C082C083908143D8
:101C4300E0F89003B0E0C3985005120F1080047AB7
:101C5300007B00022225C082C083120C8E79000211
:101C63002225C082C08374FE1208B98518828519A3
:101C730083121DCB600D14606524FE7003021D05E5
:101C8300021D8F900799E0640F6018120C7CE970B5
:101C930012851882851983122AA990086212218657
:101CA3001216CB9007C1E0C0E08518828519831214
:101CB30027BDD0E0121DB1F8121D9F7414121DB17F
:101CC300FCA3E0FD7AAA7B03120F28E5A8F8C2AFB4
:101CD3009003B0121DC27920120C64021B28120C4F
:101CE30070E98518828519836011122186740D129B
:101CF3001DB1FAA3E0FB12156480E012218674156E
:101D030080BB1221057003021D8F851882851983FC
:101D13001233B4C0E0121DA4D0E0121DB12402F8A6
:101D2300121FF62401FAA3E03400FB888289831290
:101D33001DCB14C394095020122105FA85188285FE
:101D43001983A3123C7BA3A3A3E0F874C328F582F1
:101D53007419122A916A600F121DA4E06408702C92
:101D630012210564087025851882851983E0F8120D
:101D7300210B14121DCF240AC0E085188285198314
:101D8300121D9FD0E0121DCF04021CC0851882854E
:101D93001983AA82AB83120C8E021CDEA31221913B
:101DA30022851882851983123C88A3A3A322121DBE
:101DB300B522123B51E022E5A8F8C2AF9003AFE091
:101DC30004F0E8A2E792AF22EAF0A3EB121DB5F804
:101DD300122110A3E022C082C0839003B3122A868B
:101DE3006008121DA01216CB80027900022225740E
:101DF300F712041FEAFEEBFFEE240D121A57F0EE62
:101E0300242F121AC0C0E0121AD8D0E0F0EE24300A
:101E1300121AC0C0E0EE2412121ADBD0E01230EA2C
:101E2300C0E0EE2413121ADBD0E0F0EE242B121ADA
:101E3300DB1206E5EE2422FCEF3400FDEE242D1226
:101E43001AC0F9122EE1120854E97007EEFAEFFBFB
:101E5300120BC2022615C082C083120C7CE96004F7
:101E6300792080027901022225C082C083EA122DE3
:101E7300D0E0D2E0021AE4C082C083122DC9121A44
:101E8300B27011121F19400C8A828B83A3E0F912DE
:101E93000C6A8069121F03121AC3A2E650128A82C7
:101EA3008B83A3E0F99008641221861216CB804D30
:101EB300122DC9121AB2700D121F1950088A828B83
:101EC30083743080358A828B83A3E0641B8A828B80
:101ED30083700474228023A3E0700F122DC9121A99
:101EE300A7749A28F5827419800D122DC9121AA7A6
:101EF30074A528F5827419121F0F121F24022225BC
:101F0300EA121F0AEB22EE240FF58222123493E425
:101F1300938A828B8322EA121F0AEB121A98A2E396
:101F230022F09003D3E0F9120F1C2274F712041F5E
:101F3300E9FE122A83602EEE702E9003B1123481D3
:101F4300E4F09003B1122AA9120BB09003B1E0247C
:101F53000E121C3650031235469003B1E4F0A3F081
:101F63007910120C64022615741B6E7010121FFA7E
:101F7300640570C69003B1123481EE80C474E96EB7
:101F830070509003B1E02411F8121FF660E690033D
:101F9300B1E0240E181818121FF6A2E29003B1E064
:101FA300400C2411121FF314F01214E680B7240F0F
:101FB300121FF5C2E7F0121FFA6403700C9003B10D
:101FC300E02410121FF3D2E2F01220041216CB0207
:101FD3001F4E741C6E709D9003B1122AA990086A5B
:101FE3001221861216CB9003B1E4F0A3F0021F680E
:101FF300080808122100229003B1E0240D1220FFEB
:10200300229003B1122AAEFB90086012218A227437
:10201300F412041F750A00750B00A2AFE433FEC26D
:10202300AF122A836008EEA2E092AF0220D7900895
:10203300681221861216CBE94410F89003A8800990
:1020430085080A85090B1220DF1220F060D8121AC6
:1020530079586870EB780A120826AC08AD09121A91
:10206300841208549003B1E508F0A3E509F0121CAB
:102073003040649003AFE014F0EEA2E092AF90031F
:10208300B1E0240E1818123B75FEE9FF8E828F8390
:10209300E0FA9003B1E0F812210BF9120B74E99006
:1020A30003ACF0A3E4123240E0A2E750189003B16E
:1020B300E024121220EB1213DE9003B1E02413127A
:1020C30020EB1213D29003B11220F8A2E1B3E43350
:1020D300F91214CE0219F49003AE809AE50824FB9A
:1020E300F582E509123B66221220FFF922123A5FBC
:1020F300E508450922E0240F1220FF22F8123B4392
:10210300E022851882851983122110E02212219082
:10211300A3A3A3A32274F712041FEAFEEBFF120C7E
:1021230088121F09EF121F1E400A121AAC70059085
:1021330081418003908142E0F9EEFCEFFD7AA87BB8
:1021430003120F3AE9602FEEFAEFFB9008661221B3
:10215300861216CBEE240EF582EF12220F400812E0
:102163001DBA120BBC8019EEFAEFFB90085E122128
:10217300861216CB800A8E828F83A374F112219765
:1021830002261512218A2212218E22E0F8A3E0F5FD
:1021930083888222121AD2120BB022C082C0831209
:1021A3000BBC022225C082C08379009003D8E0547F
:1021B300027007122209500279E89003D8E05460B4
:1021C300700FEA242FF582EB121AC3A2E1500279B1
:1021D300E88A828B83A3A3A3A3E0C3947540027907
:1021E300E8EA242DF582EB121AC37012EA242AF5C9
:1021F30082EB121AC3700779F5120C6A8024E97016
:10220300F8120B9E80F6EA242FF582EB121A98A29D
:10221300E222C082C0838A828B83740DF01215641C
:102223008000D083D082020806C082C0839003CF8F
:10223300E4F09003D2F09003BB12224D7402F090AD
:1022430003C412224D7401021AE47464F0A3740CE3
:10225300F0A32274F512041F74F11208B9851882D1
:102263008519837402F07401120AB3E9F060047AE9
:10227300FF7BFF7402120AB3123B817508C775090D
:1022830003750A0078081208227C0B7D007407127C
:102293000AB3123730120854851882851983AA822B
:1022A300AB83121564740F80031237341208547F02
:1022B3000302065574F712041F74FE1208B9851839
:1022C30082851983740AF07401120AB3123AF67400
:1022D30002021AE874F012041F1238B2120A567876
:1022E30008790C12032F780812081E7ABE7B0302AA
:1022F3001A5D74F412041F74CB1208B9900799E0A5
:10230300640F600D851882851983742E122AB38099
:10231300227AB57B03121A251202D688088909E4AA
:10232300F50AF50B780812081E7AB57B03121A9E7C
:1023330012085474350219F174F112041F74F71260
:1023430008B9EAFEEBFF780012243E6007E064035D
:10235300600278E8EE2417121ADB121A0E5022E8F4
:102363007021EE2417121AC7EE24221224331224EA
:102373003E7022EE2419123AFE9007A8122B6380B6
:102383002678E8E88E828F83A31232407417F01206
:102393000C82023B6B9007A874FEF0A30412244F37
:1023A3007A9F7B0712152EEE2425F508EF3400855E
:1023B300080CF50D750E00780C1208227C0B7D00BD
:1023C3007AC77B03123734120854121A5412245951
:1023D300740212244F851882851983AA82AB831253
:1023E3001522EE2422F582EF34001224471208222C
:1023F300122A97120854EE2402F8EF123B77FAE9F7
:10240300121A332424122EF07808120826740212AA
:102413000AB3AC82AD8379831A1A122EDF120854E1
:10242300E96003022395EEFAEFFB120BC202239538
:10243300FAEF3400FB79501213A222EE2421121A70
:1024430095640222F583123A5F780C22F0EE241988
:10245300FCEF3400FD22F0EE240D1234902274F6CA
:1024630012041F74F71208B99003D2E07038740194
:10247300F0F9121492851882851983AA82AB83120C
:102483000C947508C775090378081208269007AEDF
:102493001206E57B017404120AB3AC82AD837A039E
:1024A300121A0612085474090233DB74F712041F5C
:1024B30012268C7004A374EBF09003D2E0A2E250D6
:1024C30003C2E2F0E0A2E1500512269D80098E824C
:1024D3008F83742A1232B502261574F412041F7402
:1024E300FE1208B912259CEE2402F8EF3400F9120B
:1024F30027C98518828519831227E3E0F50B70122B
:10250300851882851983AA82AB8379531213A21289
:102513003A4D12373A1208227C0B7D007AC77B03AF
:10252300123734120854851882851983122AA9A9EF
:102533000B120BE09003D2E0A2E1500A8E828F834C
:10254300A3E0F9120BE69003D2E4F074020219F14E
:1025530074F712041FEAFEEBFF8E828F83A374EBE2
:10256300F09003D2E0A2E1500579EB120BE6EEFA0C
:10257300EFFB120C1602261574F712041F12259C8A
:102583009003CFE4F09003D2F07AFF7BFF8E828F2B
:1025930083A3E0F9120BE08079EAFEEBFF790112E5
:1025A30014987AB57B03120D847ABE7B03120D84D3
:1025B3002274F712041FEAFEEBFF120C10804C7416
:1025C300F712041F1226F5A3A3A3E06003E480021D
:1025D30074EB1226015003C2E2F0E0A2E1500512AF
:1025E300269D8011A2E0500D8E828F83742AF0A362
:1025F30074EB1232B5EEFAEFFB120BD480148E8219
:102603008F83A3F09003D2E0A2E222EEFAEFFB1253
:102613000CF47F0102065574F612041FEAFEEBFF69
:102623009003D2E0D2E1F07901121492EE240D125C
:102633002660120826EE240B121ADB1206E5EE249E
:1026430002EF3400FF0E0E7401C0E0120C9AE9FA97
:10265300D0E0FBEEFCEFFD121A060233DBF508EFC8
:10266300123B3178082274F712041F12268C70046F
:10267300A374EBF09003D2E0A2E25003C2E2F0E0D5
:10268300A2E1500312269D8089EAFEEBFF79011235
:1026930014988E828F83E0642022C2E11230FAE024
:1026A300F9120BE62274F712041FEAFEEBFF79011D
:1026B3001214987AB57B03123D08E06003E48002AC
:1026C30074EB1226015003C2E2F0E0A2E1500312C0
:1026D300269D0225F874F712041F1226F574EB12D7
:1026E30026065003C2E2F0E0A2E1500312269D0247
:1026F3002615EAFEEBFF79011214988E828F83A3CD
:102703002274F712041F12271A02260E74F71204FA
:102713001F12271A022615EAFEEBFF7AB57B031276
:102723000D84EEFAEFFB120C3A2274F712041F74B5
:10273300EF1208B9EAFEEBFF1230BA7A9F7B071259
:10274300151CE9605B8518828519837409F074018F
:10275300120AB374EF123B591227C9F87402120A12
:10276300B3E81227E3A3A3E0C0E07404120AB3D0D2
:10277300E01227DFE0640870168E828F83A3A31212
:1027830027BDA3E0C0E07405120AB3D0E08006744D
:1027930005120AB3E41231167406120AB31227A8FB
:1027A3007411021AE8AA82AB83120CBE85188285C3
:1027B3001983AA82AB83121564221227C122123C09
:1027C3008CA3A3A3A322E8FAE9FB8A828B831232A8
:1027D3003A88828983E0FCA3E0F9EC2212310B22D0
:1027E300F0A3E9F08A828B83123C8822C082C083E3
:1027F300120D00022225C082C0839003EF743DF0C6
:10280300A37419F0A374B0F0A37419F090086E7454
:102813005DF0A37417F0A37483F0A37418F090030E
:10282300DB74DAF0A3740BF09003D8E04401021ACE
:10283300E474F612041F74FE1208B99003D4122A2A
:102843008660077AD47B03120C8E9003DAE4F0904F
:102853000508122A86602C800D851882851983AAA3
:1028630082AB83120C8E9003D3E0F9120F228A08F5
:102873008B09A808A909851882851983122B63E897
:102883004970D60233D974F612041FE9FA7B00901B
:1028930003D3E0F9120F400233DE74F712041F74FE
:1028A300F01208B9EAFEEBFF89088E828F83E0F805
:1028B300748428F5827419122A91C0E07401120AF3
:1028C300B3D0E0F0640B700D8E828F83A3E9F01216
:1028D3000CE20229A6E070030229A6640C6003023D
:1028E3002992741A6508700B7404120AB3E4F0A3F6
:1028F3000229917404120AB3EEF0A3EF1230E2C07E
:10290300E07403120AB3D0E01227DFA3120A907413
:1029130006120AB3120A9C8E828F83A3A3A3A3A3D6
:10292300A3A3A3A3123B05740A120AB3121A3724F2
:102933000E121AC0A2E45009851882851983E48017
:1029430012EE2411121AA49007BBE0C398851882D3
:10295300851983F0E0C0E0740C120AB3D0E0F0EE06
:102963002414121AC0C0E0740D120AB3D0E0F0EEC2
:102973002415121AC0C0E0740E120AB3D0E0F0EEB0
:102983002416121AC0C0E0740F120AB3D0E0F07418
:1029930002120AB3E508F07401120AB3AA82AB83E8
:1029A3001215647410021AE8C082C0839003DAE03F
:1029B3007004790180027900022225C082C08390CD
:1029C30003DAE06004640270047901800279000292
:1029D3002225C082C0839003DAE064037004790186
:1029E3008002790002222574F612041F9003DAE0B4
:1029F300C333F8E433F9746C28F582740839F5832A
:102A0300122BB7C2E7F0C333FCE82CF582E9121AA4
:102A1300DEA3E493FEC333FCE433FD746C2CF58234
:102A230074083D123F54EC4D6005EE9003DAF08AD2
:102A3300828B83E0C333FCE433FDE82CF582E93D6C
:102A4300F583E493F508131313541F54FEF874E944
:102A530028F5827403121ADE122A867005120CD02E
:102A6300801BE508540FC333FCE82CF582E9122AD6
:102A730091C0E0740193F583D0821216CB0233DE4A
:102A83009003B112323AE849222508F58222123422
:102A930093E493227C0B7D00EE2417FAEF3400FBC2
:102AA300120EE6740322122AAEFB22E0FAA3E022FE
:102AB300F0AA82AB83120C8222C082C0839003D619
:102AC300123B05EA687002EB6970079003D6E4F0E5
:102AD300A3F002222574F712041FEAFEEBFFEE4F68
:102AE300700312115CA2AFE433F508C2AF8E828F7C
:102AF30083122A866028E824FBFAE934FFFB90035B
:102B0300D6123F56E86C7002E96D70079003D6E465
:102B1300F0A3F08E828F83E4F0A3F0120FACE508EC
:102B2300A2E092AF022615C082C0839007A8E0649A
:102B3300FE7003A3E0F470097C9F7D0712152280C9
:102B43001C8A828B83A3A3A3A3A3A3A3A37402F0CE
:102B53009007A8123B058A828B83122B63022225DE
:102B6300E8F0A3E9F022C082C0839007B2123B19B8
:102B73004004790380027902022225C082C0838A3D
:102B8300828B83A3A3A3A3A3A3A3A3E064027016CE
:102B93009007A8122BB7687003A3E069700479014A
:102BA300800F7900800BEAFCEBFD7A9F7B071215FF
:102BB3001C02222512323A8A828B83E02274EA12A3
:102BC300041F8A088B098C128D137416120AB31210
:102BD3003B36750A008C828D83A3A3A3A3A3A3A36F
:102BE300A3E0F510E9A2E75008750CFF750DFF800F
:102BF300069007AE122DDEE9C2E7F511EA240EF5C1
:102C030082EB121A68EA500A121F04121ADE7408C1
:102C13008007121F04121ADEE4122DE6A2E2EA5024
:102C230007122DD074808005122DD07410122DE65A
:102C3300A2E4500CEA2411F582EB121ADEE48011AF
:102C43009007BBE0C0E0EA2411F582EB121ADED054
:102C5300E0122DE6A2E05003750A20A2E3500674A9
:102C630010450AF50A8A828B83A3A3E024FFFEA3FF
:102C7300E034FFFF122DC9121AC3C39402E04006C9
:102C830014122DF37403450AF50A85111475150002
:102C9300740E781412094CE515F50B740265117066
:102CA300129007B3122DF29007B2123624F0122DB0
:102CB300C0801A740365117010122DB77CC27D0792
:102CC300EEFAEFFB12152E80E5E5116026E51060A4
:102CD30014E50E650C7004E50F650D70087440452E
:102CE3000AF50A800E8E828F83E50D122E05E50C00
:102CF300122DF785100C750D00740A780C12094C0F
:102D0300E50D450BF50B740265107018851282856D
:102D13001383122DF1851282851383123624F01248
:102D23002DC0801A740365107010122DB7AC12AD4C
:102D330013EEFAEFFB12152E80E5E510600E8E827E
:102D43008F83E50F122E05E50E122DF7EEF8EFF93E
:102D5300E824FF1EE934FFFFE508240DF582E509A9
:102D6300121AC3700590079E80039007AAE0FA0425
:102D7300F0EA88828983123240E50B122E05E50AB8
:102D8300F0E5082404F8E5093400F9E5082402FA1B
:102D9300E5093400FBEEFC8A828B83E0F508888228
:102DA3008983E02508C39C123329EEF0A3EFF07961
:102DB30000023B14EE24F9FEEF34FFFF22EE24FF62
:102DC3001EEF34FFFF22EA240DF582EB22122DD9E8
:102DD300EB12349322E82410F58222E0F50CA3E0F1
:102DE300F50D22F0EA240EF582EB121A9822A3E0E5
:102DF3008E828F83122DFB22F0EE24FF1EEF34FF11
:102E0300FF22122DFB8E828F832274EC12041F8902
:102E13000A8A0F8C108D118B0B7414120AB3123A99
:102E23005B7416120AB3122DDEAA0B120B6E8A12F2
:102E33008B13A812A913E8FEE9FFE8496043121AAD
:102E4300D8E50B122459E50AF0750E00780C120828
:102E530022122A971208547808120826AC10AD11D2
:102E6300A90F122EDD120854E97016E50A24F96041
:102E730003147006121A8ED2E5F0EEFAEFFB120B72
:102E8300C280007F0C02065574F712041FEAFEEBA2
:102E9300FF7801EE2423121AC060027805121AD8B3
:102EA300E81224597404F0EE2402EF34000A0A12E3
:102EB3001A332422122EF0EE2420121ADB1206E516
:102EC300122EE779031A1A122EDF120854E970073B
:102ED300EEFAEFFB120BC2022615EEFAEFFB120C11
:102EE300A6740222EE2417FCEF3400FD22121A9579
:102EF3008882898312310B7401F02274F312041F48
:102F03008A088B09ECFEEDFF8A828B8374051230ED
:102F1300EA8A828B83A3A3F0EA2403F50AEB340045
:102F2300F50B850A82123B03EE2424121ADB120AE4
:102F330090E82411F582E9121ADE120A9C1230BAC3
:102F4300E8FAE9FB121522850A82850B831234867F
:102F5300122AA988828983A3A3A3A3A3A3A3A3A3B8
:102F6300EAF0A3EB1230E2C0E0122DD8E9121ADE28
:102F7300D0E01230D124151230CC1230D1240E12ED
:102F830030CC123116850A82850B83E02416FAA30E
:102F9300E03400FB120CBE8E828F83A3A3A3A3A3F2
:102FA300A3E0C0E0850A82850B83E0240D123B3E3B
:102FB300D0E01230F2850A82850B83122AA9EA2413
:102FC3000BFCEB3400FD88828983E08C828D83F0D7
:102FD300A3E41230DAE08C828D83A3123B0FFCA3AF
:102FE3000808A983A2E7E433C0E0121F03121ADE24
:102FF300D0E0F074075C60047A0180027A0075F017
:103003000374075CA42AFAE82AF8E93400F9E5080E
:103013002405FAE5093400FB88828983E08A828BE0
:10302300831230DA850882850983A3A3A3A312330D
:1030330023E0FC5407C333FAEC135438FCEA2CFAAC
:10304300E82AF8E91230B0A3A3A3A3A3A3A31231E0
:10305300011230C3E02AFAA3E03400FBC3EA98EB81
:1030630099402B8E828F83A3A3E0F885088285097C
:1030730083A3A3A3A3A3A3A3A3A31230C3A3A3E0E4
:10308300C39A28850882850983A3A3A3801685088C
:1030930082850983A3A3A3A3A3A3A3A3E4F0850821
:1030A30082850983A3A3A3A3A3F0021A743400F9AE
:1030B30085088285098322EE2412FCEF3400FD2269
:1030C300E0FA8E828F83A3A322123B3EE422F08593
:1030D3000A82850B83E022123B26A882A98322F071
:1030E300EE242E121A9522F0EE2431121A95221292
:1030F30030FAA312323A22F08E828F83A322A3A343
:10310300E8F0A3E912310B2212310F221230FAA395
:10311300A3A322F0EE2407FCEF3400FD2274F51282
:10312300041F8C088D09750A0078081208227C0B8D
:103133007D000222AC020806C082C0837918120CFB
:103143006A022225C082C0838A828B83E0C3940BE8
:103153005003120CCA022225C082C083791980DE73
:1031630074F712041FEAFEEBFF9003D4122A866061
:10317300109003D4122AA9120CD67AD47B03120C12
:103183008EEEFAEFFB120C889003D4EEF0A3EFF06F
:1031930002261574F712041F74DE1208B9EAFEEB57
:1031A300FF8E828F83E024FD601124FE604E24EDA8
:1031B300600924FA6046146043804A7416120AB305
:1031C300E4F0122EE7740B120AB3AA82AB83121532
:1031D3002E7413120AB37403F09007B2123B0574F2
:1031E30002120AB3122B63740A120AB37402123264
:1031F300327414120AB3E8F0A3E980107416120AA9
:10320300B3740180BC7416120AB37402123B4D747A
:103213000B123240A3E0C0E07401120AB3D0E012F3
:1032230031167417120AB31227A87422021AE8F08F
:103233009007AE12323A22E0F8A3E0F922F08E8230
:103243008F832274F712041FEAFEEBFF750800EE6A
:1032530024201232A37003A3E06960037508E8EE2B
:1032630024171219FC6016EE2423F582EF121A6E4E
:10327300E508701AEEFAEFFB120CB28020EE24235D
:10328300121AC060EB9003FBE070E57508E88E82CC
:103293008F83A3E50812324074191232B502261542
:1032A30012349012323A9007AEE068228E828F83F6
:1032B3007429121AD2120C8222C082C08374F112B2
:1032C30008B97402120AB37404123329A3E0C0E0EC
:1032D3007403120AB3D0E0F0EA2420F582EB123B28
:1032E30001740D120AB3122B63EA2417FCEB3400AA
:1032F300FD7404120AB3AA82AB831215227404125A
:103303000AB3AA82AB83120CA0E960031233BE7422
:1033130002120AB3AA82AB83121564740F021B4212
:10332300A3A3E8F0A3E9F08A828B832274F6120444
:103333001F74E81208B98A088B097402120AB3745D
:1033430003F0EA2412FEEB3400FFEEFCEFFD7404FD
:10335300120AB3AA82AB8312152E850882850983CC
:103363001233B7C0E0740C120AB3D0E0F01233A7E3
:10337300120AB3AA82AB83120CBEEEFAEFFB120C55
:10338300A0E960031233BE1233A7120AB3AA82ABB9
:1033930083120CBE7402120AB3AA82AB83121564A1
:1033A30074188034E5082407FCE5093400FD740D26
:1033B30022121D9FA3A312218AE022851882851958
:1033C3008374FFF0A3123A6B79531213A29007A8E8
:1033D30074FFF0A3F02274021208547F0202065510
:1033E30074F612041F74D41208B9EAFEEBFF123408
:1033F3007BE0A2E650189007AE123486E0687003B3
:10340300A3E06970099003FCE06041120D00740BA6
:10341300120AB3A882A9837403120AB31239C085AE
:103423001882851983742B122AB3900793E06008DE
:103433007408120AB3E06010851882851983740535
:10344300F0AA82AB83121564742C808C9007B7E0CA
:1034530060BC1219F970B7EE240712266012082611
:103463009007AE1206E57B017C9F7D077A03790600
:10347300121A0812085480D08E828F83A3A31221BC
:103483008AA32212323AEE242A12349022F582EFD2
:103493003400F58322C082C08374EF1208B9851803
:1034A300828519837409F07401120AB374EE123A17
:1034B300F7021B4074F712041FE9FFA2AFE433F5D0
:1034C30008C2AFEF600312139012131E1235469019
:1034D30003FCE0F91213BA9007AE122AA91213C023
:1034E3009007B2122AA91213C67AC27B071213CC11
:1034F3007E00123534122A86600912353412218671
:103503001216CB0EEEC3940740E8120D54120C5E54
:103513009003FDE4F0120B689003FCE4F07AB17BB6
:103523000779521213A2E508A2E092AF79000226AE
:1035330015EEC333F8E433F974DB28F582740339E9
:10354300F583229007C1E0F91213DE9007C0E0F97A
:103553001213D222C082C0839003E9746AF0A37469
:1035630019F0A374BAF0A37419F0A37478F0A374D8
:1035730019F09003D8E4F0A3F012131802222502E5
:10358300080674F712041FE9FE9003FDE06E700451
:103593007900801AE07015120C76E9600FEEF912CB
:1035A30014C2E96007EE9003FDF080E479E202269D
:1035B30015C082C0839003FDE060081214BC900321
:1035C300FDE4F002222574F712041FEAFEEBFFEC80
:1035D300F8EDF98E828F83740712362A123624A3EC
:1035E300A312362AA3A3123624A3A3A3123B22A316
:1035F300120A908E828F83A3A3A3A3120A9C8E82A6
:103603008F83A3A3A3A3A3A3A3A3E4F0E82415F5A3
:1036130082E9121AA7123D14A3A3A3122B63022655
:1036230015E08E828F8322123B26A3A3A3A3A3229A
:1036330074F412041FEAFEEBFF9003FFE412374910
:10364300E0C3940440069003FF74E8F08E828F83F6
:10365300A3A3A3A3A3A3A3E0C3940F40158E828FB8
:1036630083A3A3A3A3A3A3E0640360159003FF7440
:10367300E8F08E828F83A3A3A3A3A3A3E0640370C4
:103683000E9003D8E0A2E040069003FF74E8F0EE4A
:10369300FCEFFD7AFE7B03120D248E828F83A3A39E
:1036A3007808120A56740A78081208889004127867
:1036B30008120A748E828F83A3A3A3A3A3A3A3E0F8
:1036C300900416123753900417F0A3740AF090076E
:1036D300C1E0900419F090040F12224D7404F0EE2F
:1036E300240A12373D1208227C0B7D007A1A7B04D0
:1036F3001237341208549003FFE07020A3E06006F1
:103703009003FF74EAF0900400E0F91213EA8E824A
:103713008F837426F0790412148C80078E828F8332
:103723007429F0EEFAEFFB120C820219F4AA82ABB1
:1037330083120EE6740322EE2407F508EF123B31E1
:10374300750A0078082212374D2212310FA3A322E3
:1037530012374DA3A3A3E02274F412041F74F712CB
:1037630008B9EAFEEBFF900400E0702A900418E029
:10377300640A60221213FCE9C0E0900418E0F89098
:103783000407E028F8123B7524F5123B63D0E0F000
:10379300900406E004F09004127808120A567401AB
:1037A30078081208889004127808120A7490041892
:1037B300E004F0E508A2E04006E0C3941D40D7E032
:1037C300641D60667A187B0479E11213A2900400E9
:1037D300E0600464027009EEFAEFFB120D36804DCF
:1037E3007408120AB37402123B4D74FFF0A3F090F5
:1037F3000400E06401700679087A80800479077A0E
:103803008375081A75090478081208267508FF7568
:1038130009FF78081208267B007404120AB3AC82ED
:10382300AD83121A0812085480031232AF0219EF43
:1038330074F012041F750801750900750A00750BF1
:1038430000900418E078081207C27808120A16904C
:103853000402780812095F900400E06403700F12F9
:1038630038B2120A567808790C12032F803575087E
:1038730001750900750A00750B00900416E07808BD
:103883001207C2908166780812099890816E780CAD
:10389300120A567808790C12032F900400E0700383
:1038A3001213F6780812081E7A097B04021A5D9037
:1038B30007BC1219E490816E780C2274F512041F70
:1038C30074D41208B9EAFEEBFF900400E0640260CE
:1038D30008E0640160030239BB9003FFE4F0740B5A
:1038E300120AB3A882A9837403120AB31239C090CF
:1038F3000417E0F8900406E0C3984003023985A357
:10390300123A5B900406E0F50A803C85088285093B
:1039130083A3A3A3A3A3A3A3A3A3123B057414127A
:103923000AB3E0687003A3E0697013740B120AB35F
:10393300AC82AD83AA08AB0912151CE97044150AC1
:10394300E5082421123B2DE50A70C0740B120AB35B
:10395300A982AA8389088A09750A007808120822AD
:103963007C217D00900406E08CF0A4F8A9F0A3E08C
:1039730028FAA3E039FB123734120854900406E006
:1039830004F0900793E0600E7408120AB3E0700627
:10399300900417E0700D851882851983AA82AB8382
:1039A300121564900417E0600F900406E0F8900489
:1039B30017E06870031232AF742C0222AFE8F0A351
:1039C300E9F0EEFCEFFD851882851983AA82AB83AB
:1039D300120CB82274F612041F74FE1208B9EAFE20
:1039E300EBFFEE241A121AC064037051EE24231263
:1039F3001AC064037047123A4D8E828F83A3A312B9
:103A03003A5B850882F583123A737950123A43126E
:103A13003A73794B1213A2AA08AB0979E1123A431C
:103A2300A31219DE851882851983F0A3E9123A6778
:103A330079531213A29003FFE4F01232AF0233D989
:103A43001213A285088285098322EE2412FAEF3429
:103A530000FB794A1213A222123A5F22E0F508A36F
:103A6300E0F50922123A6B22123B51AA82AB832260
:103A7300122AAEF9EA851882851983F0A3E9F0E5E5
:103A8300082402123B2D851882851983AA82AB83F1
:103A930022C082C0839003FFE064E860267A097B3A
:103AA30004120D841213F07904121498900400E0A8
:103AB300640370069003FFE060097A197B0479E1DF
:103AC3001213A27AFE7B03022220C082C08374F504
:103AD3001208B9EAFCEBFD851882851983AA82AB2B
:103AE30083120D247401120AB374FC123AF7740B97
:103AF300021B42E9123A6B12156422F582EF34007D
:103B0300F58312323A22E0FEA3E0FF22123B26E0C5
:103B1300227F0E020655C3E094FEA3E094FF221217
:103B23003B2622F088828983A322F508E509340025
:103B3300F50922E0F50EA3E0F50F22F8123B43222C
:103B4300A3E03400F98882898322123B5122F08555
:103B5300188285198322F0EE2402F8EF3400F9224B
:103B6300F582E934FFF5832274091208547F0702B2
:103B73000655A3E03400F9E822FB88828983EAF042
:103B8300A3EBF022C082C083900425E4F0A3F0905D
:103B93000427F0A3F0908152120A90900876120A3B
:103BA3009C908152120A9090087A120A9C900429E0
:103BB300E4021AE274F412041F900429E4F0A3F05F
:103BC300900425122A866034123C7BC082C0839005
:103BD30008767808120A56D083D082780812090F23
:103BE300501A123C68123D2212090F5006123D2250
:103BF300120A74900425123C74122B63900427124A
:103C03002A86900429602E122A86601E90042712A9
:103C13003C84C082C083900429123D25120A56D0E9
:103C230083D082780812090F5010900427123C7435
:103C3300122B638005122A866025123C81C082C044
:103C4300839008767808120A56D083D082780812B7
:103C5300090F500B123C81120A901212B280031208
:103C630012B80219F41212A08A088B098C0A8D0B60
:103C73002212323A90042922121DA0A3A3229004F7
:103C830029123C8822123C8C2212218EA3A3227477
:103C9300F412041F900429122A866066123C7B7872
:103CA30008120A56758308758276780812090F5030
:103CB3000B12115C900429122A866046123C68900C
:103CC3000429123D251207A35038123C81C082C03B
:103CD3008390816A7808120A56D083D082780812BA
:103CE300090F500312115C900429123B09EEFAEFFD
:103CF300FB123D08A3A3A3123D141221861216CB77
:103D030080B20219F4120D848E828F83A3A3A3A31E
:103D130022A3E0F98E828F83A3A3A3A3A3A322905C
:103D23000425123C8878082274F012041F8A088B39
:103D3300098C0A8D0B7410120AB380248E828F8330
:103D4300A3A3C082C08390816A780C120A56D083E1
:103D5300D082780C12090F500312115C8E828F836C
:103D6300121AB860428E828F83A3A3780812098542
:103D7300123DAD7002EF6970C38E828F83A3A3C01F
:103D830082C08390816A780C120A56D083D08278DD
:103D93000C12090F50A690816A120A908E828F83AB
:103DA300A3A3120A9C80B5021A6390042912323A23
:103DB300EE682274F012041FA2AFE433F508C2AF19
:103DC300900427123B099004251206E590087678A3
:103DD3000C120A56780C1209E4AA0CAB0DAC0EAD0A
:103DE3000F120D667402120854803B8E828F83A3D8
:103DF300A3C082C083900876780C120A56D083D071
:103E030082780C12090F4013900876780C120A5628
:103E13008E828F83A3A3780C1209388E828F83122C
:103E23003B05E8FEE9FFEE4F70C1900876C0829033
:103E3300087A780C120A56758308D082780C120817
:103E4300E5601590087A120A90900876120A9C9001
:103E53000876120A9012129A120D5AE508A2E092FD
:103E6300AF021A6374F012041FEAFEEBFFA2AFE481
:103E730033F50CC2AFECFAEDFB8C828D838008AA7C
:103E83000EAB0F8A828B83123B36E50E450F602201
:103E93008E828F83A3A3C082C083850E82850F8306
:103EA300A3A37808120A56D083D082780812090F88
:103EB30050CD8A828B83EEF0A3EF123240E50EF0F1
:103EC300A3E50F123ED9123DB07002EF69700312E1
:103ED3000D5AE50C8087F08C828D8322EEFAEFFB7E
:103EE300120D72021A6374F012041FEAFEEBFF74E0
:103EF30010120AB37808120A56123F131209AB8E36
:103F0300828F83A3A37808120A747C257D0480CC56
:103F1300121A197808790C2274F712041FECF8EDC1
:103F2300F98C828D838004A882A983123F568C82E8
:103F33008D83E58245836014EA65827003EB6583B4
:103F430070E5122AAE123B7C7901800279000226C9
:103F530015F583E0FCA3E0FD2274F712041FEAFECB
:103F6300EBFFA2AFE433F508C2AF7C257D04120D4D
:103F73007EE9700B7C277D04EEFAEFFB120D7E12B7
:103F83003DAD7002EF697003120D5A022B2174F0DC
:103F930012041F900425122A867008900427122AFF
:103FA30086603EE5A8FEC2AF1212AC8A088B098C6C
:103FB3000A8D0B121A15EEA2E792AF908166780C68
:103FC3001209987808790C120A2650117808790C8E
:103FD300120924AA08AB09AC0AAD0B800C7A018044
:103FE300027A007B007C007D00021A63EE240FF549
:103FF3000AEF3400F50B780A2274F412041F8A08BE
:104003008B098A828B83A3A3A3E02410124AF0FABC
:1040130012501670030240AB8E828F837402F0A39A
:10402300E4125004A3A3A3A3E8F0A3E9124DDAA377
:10403300A3A3A3A3A3A3F0E5082403F8E509124669
:10404300D0241012495A8E828F83A3A3A3A3F0EE28
:104053002409FA1240AD124B1DF5838882E0A2E5D4
:104063008E828F83A3A3A3A3A3500474018001E4CE
:10407300F0E5082403F888828983125E72EA1265E8
:1040830047EB1240D01240B8120822126560EB12BF
:104093004B618E828F83A3A3124FAC120854EEFAA6
:1040A300EFFB9003011250268018EF3400FB8E8241
:1040B3008F83A3A322E0F508A3E0F509750A00782E
:1040C30008227F04020655EE240CF582EF124FF00E
:1040D30022A3A3A3A31259E0EA221240E122124D24
:1040E300BCE8F0A3E922F582EF12576CF82274F6CC
:1040F30012041FEAFEEBFF9008CAE070030241DBE3
:10410300EE24111265DE70030241DB8E828F83A3DE
:10411300A3A3A3A3A3A3A3A3124DCD6402600F8EF5
:10412300828F83A3A3A3A3A3E070030241DB7C00DC
:1041330080010C9008CAE0F8ECC3985045EE240BBC
:104143001240CD1259DCEC75F005A4FAABF074F70C
:104153002AF58274073BF583E0687003A3E0697076
:10416300D1EE24121265DEFBEC75F005A4F8A9F07C
:1041730074F928F582740739F583E06B70B479001C
:1041830080587C0080010C9008CAE0F8ECC398507A
:10419300EDEC75F005A4F8A9F01241E97003A3E072
:1041A300F470E31241E0EE240B1240CD124CF4EA1A
:1041B300F0A3EB1241FB88828983A3124AD8740CC3
:1041C30012559D7A08FB900301E0F912107E8B09CA
:1041D300EA45097003124647790102467374F728CA
:1041E300F8740739F9221241F0E064FE2274F728CB
:1041F300F582740739F58322124699E02274F2128C
:10420300041F74F31208B9EAFEEBFF8E828F83A3B7
:10421300A3A3A3A3A3A3A3A3A3E0F50A90085CE02D
:10422300700579BA024515750801750900750C000A
:10423300750D007C087D007900851882851983AA95
:1042430082AB83120EF87405120AB3740112453D52
:10425300540460127402120AB3E0D2E612453D54CC
:10426300087003750803E05410600674404508F5B0
:1042730008E0540860227402120AB3E044C01245F5
:104283003D5420600A7403120AB3E0D2E08008743C
:1042930003120AB3E0D2E1F08E828F83A3A3A3A318
:1042A300A3A3A3A3E07018120B2C8518828519838E
:1042B300124E107402120AB3E0D2E2F002436764B2
:1042C3000F70157402120AB3E0D2E312503D124E7E
:1042D300034508F5080243678E828F83A3A3A3A334
:1042E300A3A3A3A3E064028E828F8370051240DD33
:1042F30080C9A3A3A3A3A3A3A3A3E064037013850B
:104303001882851983AC82AD83EEFAEFFB12169CFB
:1043130080528E828F83A3A3A3A3A3A3A3A3E0644A
:1043230001704190038FE0601C7402120AB3E0D263
:10433300E312502C851882851983124B5A75091084
:10434300750AFF80187402120AB3E0440C1263CB9F
:1043530074FDF0A374FFF074044508F5088E828F92
:10436300831265B11253C6503A7402120AB3E05471
:104373000C701B8E828F83125E7212111AE9700504
:1043830079BB0245157402120AB3E0D2E5F0125369
:10439300C650107402120AB3E0540C64047004E0B3
:1043A300D2E5F0EE24111265DEC0E07404120AB304
:1043B300D0E0124B04120AB3E0600302450E740806
:1043C300120AB3124521124533EE24181265DEC0DA
:1043D300E0E8126531E91240D0D0E0F0EE24191282
:1043E30065DEC0E07408120AB3E024131246ADD0B0
:1043F300E0124B186401701190038FE0C0E0740861
:10440300120AB312451AD0E0F07408120AB3124923
:10441300322417FAEF124961FCE8241CF582E912F1
:1044230040D0EC12559D8E828F83A3A3A3A3A3A395
:10443300A3A3A3E0C0E0E82422F582E91240D0D090
:10444300E0F07408120AB312452CE50AF07408125E
:104453000AB31249372424F582E9125CABA3E50DB4
:10446300125D04FCA3E0FDE82426F582E91240D0A6
:10447300ECF0A3ED124678124DF0E82428F582E91A
:104483001240D0125F23C0E0E8242FF582E91240E6
:10449300D0D0E0F0EE241B1265DEC0E07408120AEF
:1044A300B312639FD0E0F0EE241A1265DEC0E0740D
:1044B30008120AB3E0242E1246ADD0E01263C312F1
:1044C30040B9120822EE24111240CD124DF0740BA4
:1044D300120AB3124FA6120854EE24151265DE54C5
:1044E30040601B90031D124E3A6013851882851994
:1044F30083AA82AB8390031E1246E81216CB85185B
:1045030082851983AA82AB83121636740C120AB3FE
:10451300E0F9740D024576E024151246B1221249E2
:104523003B240FF582E9340022E024231246B12212
:10453300F583E508F0A3E509F022F0EE2415125700
:10454300692274F712041F7E638A828B83E0600CF6
:104553007905121582E9F87456C398FE900337E083
:10456300600CF9121582E9F8EEC39824F2FEEEF915
:10457300024AE41208547F0602065574F512041F1A
:10458300EAFEEBFF8C088D09750A0112658B124652
:1045930058700B90033F12470D124B5A800EAC0814
:1045A300AD09EEFAEFFB12166CE9F50AA90A0260EF
:1045B3003C74F612041FEAFEEBFF7A0C7B00120F29
:1045C300A6EA4B606BEE24201265DE8A828B83F0B1
:1045D300EE2421124636F0EE2422124636A3F0EEE4
:1045E3002423124636A3A3124FE51259E4E8F0A39D
:1045F300E91257611259E5A3A3E8F0A3E912558F15
:104603008A828B83A3A3A3A3A3A3A3A3F0EE242F44
:104613001265DEC0E0124AE91240D0D0E0124E1615
:104623008A828B83A3A3A3A3A3A3A3A3A3124B5AFB
:104633000246731257698A828B83A322F0D083D0F8
:10464300820208067CF47D017A087B00900301E076
:10465300F912106C22124B11221246602212466488
:1046630022124FFCA3A322124DE8A3E02212085406
:104673007F02020655F0124680124FF022EE240FFD
:10468300F582EF22F582EF124FF0E422E0F9120FE8
:10469300402212469922F0EE2412F582EF3400F5FF
:1046A30083221208547F080206551246B12212468D
:1046B300FA22124FFCE022C082C083124E3F124600
:1046C3008A02463F124DE1227901020806124B335A
:1046D30022F8EF3400F98808890922EEFAEFFB90FB
:1046E3000315E0F8A31246F422E0F81246F3A322DE
:1046F300A3E0F5838882221246FE22F8A3E0124744
:1047030005223400F988828983221259E0850882C0
:1047130085098322C082C083124E3F12472402467A
:104723003F124FF07401220246CBC082C083900334
:10473300137490F0A37416F09003157484F0A374AB
:1047430016F0900317747EF0A37416F09003197497
:104753008AF0A3741602463F74F412041FEAFEEBB8
:10476300FF1247C0F508120B2C8A0A8B0BA80AA963
:104773000B8E828F831247B3E0687003A3E06960F6
:104783002CE508A2E550268E828F83A3E0FB9003DD
:10479300131246E51216CB8E828F83E0F8A31251D3
:1047A3009BA3124E3A70061247C0C2E5F00240C501
:1047B3001247B722E0FAA3E0F5838A82228E828F22
:1047C300831246ECA3E02274F512041F124920124F
:1047D30049372420F582E91265E1FE74035EF50A88
:1047E300124CDE1240D012493288828983F0A3A88A
:1047F30082A983E50A60097402650A60030248918D
:10480300740C5EFF601574086F601074046F701D84
:104813007402650A7005EEA2E4402D8A828B83A39D
:10482300A3A3A3A3A3A3A3E02423124982740C6F1D
:10483300701012491B242412496A242412492D1290
:1048430049857402650A7005EEA2E4404112491BD2
:10485300242612496A2426124940A3124994124974
:104863004012499412492D124985EF600F74086F65
:10487300600A740C6F600574046F70128A828B83F4
:10488300A3A3A3A3A3A3A3A3E024221249828A82FE
:104893008B83A3A3A3A3A3A3A3A31249507005EEE1
:1048A300A2E150178A828B83A3A3A3A3A3A3A3A3E9
:1048B300E0242E124CE512497B800E90030212492C
:1048C3007B900302E004124B2DA3A882A983EEA2DE
:1048D300E7504212491B24211249401249858C8218
:1048E3008D83124950602E8A828B83A3A3A3A3A333
:1048F300A3A3A3E02430124982EEA2E150178A82D7
:104903008B83A3A3A3A3A3A3A3A3E0243112495A94
:1049130088828983F002603C124920E022EA24085D
:10492300FCEB3400FD8C828D8322124CE9A322120E
:1049330059E0EE2212493B22125037E82212494431
:1049430022F508A3E03400850882F58322E02421C0
:10495300124CE9E0540322FAA3E012496122340025
:10496300FB8A828B83E02212494412497BA3A882EB
:10497300A9838C828D83E022E088828983F02212CE
:104983004CE912498922E088828983F0A308A9832C
:10499300221249898C828D83E0242822C082C0831D
:1049A3008A828B831247C4F8740358F98A828B83F3
:1049B300A3A37401F0E960057402697061740C5873
:1049C300FC601474086C600F74046C7013740269D7
:1049D3007005E8A2E4401D8A828B83A3A37402F0CE
:1049E300740C6C700A8A828B83A3A3E02402F07494
:1049F30002697005E8A2E440258A828B83A3A3E0C1
:104A03002404F0EC600F74086C600A740C6C60058D
:104A130074046C70098A828B83A3A3E004F0E8A278
:104A2300E750318A828B83A3A3E004125F27F9A3A3
:104A3300E0F5838982A3A3A3E0540360178A828BE2
:104A430083A3A3E004F0E8A2E150098A828B83A345
:104A5300A3E004F08A828B83A3A3E00402463FC051
:104A630082C0838A828B83A3A3A3A3A3A3A3A3A3A9
:104A7300A3124E3A60098A828B83A3A3124A85024A
:104A83004640A3A3A3A3A3A3A3A3124FB5120FACA2
:104A93002274F712041FEAFEEBFF1259D8888289A9
:104AA30083A3A3A3A3A3A3A3A3E4F0124AD8A3A31A
:104AB300A3A3A3A3A3F0A3F0E8125C95E9124AD23F
:104AC30012165AEEFAEFFB1216668015F582ED12F6
:104AD3004FF0E4F022A3124ADD22124B2DA3A3A32D
:104AE300227F01020655EA240BF582EB2212650FA1
:104AF300240922124FF01265B5750E00780C22744A
:104B030001124B38124B0B2212163C740C22121555
:104B130028E9640122124D1BE022124B24F8A3E082
:104B230022EAF0A3EB124B2DE022F0888289832244
:104B3300124705E022F0851882851983AA82AB8388
:104B430022AA82AB83120EE67403221259E0EE24EA
:104B53000BF582EF124FF0124DB622125A19124F73
:104B6300F0E0FC7D0022020806124B70221246F38D
:104B7300E02274F612041F74FA1208B9EAFEEBFF7E
:104B83007403120AB3EEF0A3EFF07403120AB3AA8C
:104B930082AB831216481265DB6003024CD9851879
:104BA300828519837432F07405120AB3C082C083FC
:104BB3008E828F83A3A3A3A3E0D083D082F8E028BF
:104BC300C0E07401120AB3D0E0124D35C0E07402A4
:104BD300120AB3D0E0124D14F8A3E0F9E8496026B5
:104BE300E82417F582E91240D0C082C083E8241676
:104BF300F582E91265E1D083D082F8E028F87401E8
:104C0300120AB3E028F0851882851983AA82AB8340
:104C130012162A8A088B09A808A909E84970030211
:104C23004CCC8E828F83124CF4A3A3EAF0A3EB1235
:104C33004D21A3A3E0C0E0E82420F582E91240D08F
:104C4300D0E01263DEC0E0E82421F582E91240D00F
:104C5300D0E0124D30C0E0E8242AF582E91240D0BA
:104C6300D0E0F07405120AB3E0FA124CDE1265E1EB
:104C73002A1253D2E8242BF582E91240D0124E10A7
:104C83007405120AB3E0C0E0E8242DF582E912406E
:104C9300D0D0E0124D14FAA3E0FBEA4B6019E824EC
:104CA3002BFAE91240AEA3A3A3A3A3A3A3A3E024D7
:104CB30016124CE5124CFC8E828F83A3A3A3A3A3ED
:104CC300A3A3A3E8F0A3E9800CEEFAEFFB121654BA
:104CD3001240CA7410F07406024670E8240BF58281
:104CE300E922124CE922FCA3E03400FD8C828D837F
:104CF30022124FB58882898322E0FC8A828B83E06B
:104D03002CFCA3E03400FD8A828B83ECF0A3EDF04E
:104D130022124D1BA3A3E0221250D5A3A322F0E835
:104D2300126531E9124FF0740112503D22124D3BCE
:104D3300E022124D3BA3E02212602AA32274F71251
:104D4300041FEAFEEBFF1265DB701E124D76124E56
:104D53003A60061246DE1216CB1265DB700B125E4A
:104D6300661216301240CAE9F0EEFAEFFB1216543F
:104D7300024AE41216608E828F83A3A3A3A3A3A384
:104D8300A3A3A3A32274F612041FEAFEEBFF8C086D
:104D93008D0912111AE9700479018011AC08AD096B
:104DA300EEFAEFFB9003191246E51216CB02467397
:104DB300124DBCE8F0A3E9F022E0F8A3E0F985186E
:104DC30082851983221263CFE022124FB5120B4A58
:104DD300E9221246FEE02212465C124DE122E08EE9
:104DE300828F83A322124FF5A3A3A3A322124DF410
:104DF30022E0FCA3E0FD22740112503DA3A3E022B4
:104E0300124DB37404221210908E828F83EAF0A3A2
:104E1300EBF022124E1A22125041A3A31250372252
:104E2300C082C083124E337442F0A3741602463F0D
:104E330012167890031B2212493B4922EA125C9511
:104E4300EB22E0F9120D9C2274E812041F8A088BEE
:104E5300098C168D178914741A120AB3E0F50AA384
:104E6300E0F50B741C120AB3E0F513741D120AB3B8
:104E7300780C120A56126560EB1265E1242DFA7B59
:104E830000120F108A108B11AE10AF11EE4F70038A
:104E9300024F8D8E828F837401F08508108509116E
:104EA30075120078101208227C157D00EE2418126A
:104EB3004F90120854851610851711781012082286
:104EC3007C097D00EE2402124F90120854741812CC
:104ED3000AB3124B4E850A82850B83E0C0E0EE24B1
:104EE3000F1240CDD0E0124FC0C0E0EE24111240AB
:104EF300CDD0E0124FBBC0E0EE24101240CDD0E085
:104F0300124695E513124FE5E4F0A3F0124F9F7894
:104F13000C120A74EE24171240CDE51412466AF8F7
:104F2300A3E0F9EE240D1240CD124FDF12655A12A1
:104F330065E16025EE24261253BE242DF8124FD7C7
:104F430012654C124AF6120822126558124B618AF6
:104F5300828B83124FAC120854EE24191265DE546F
:104F630003601D900311124E3A600CEEFAEFFB1230
:104F730046E81216CB8013EEFAEFFB120F16800AE7
:104F8300EEFAEFFB90030112502602656FFAEF125F
:104F93004F96223400FB120EE6740322EE24131202
:104FA3004FED22E0242B1246B1124FB5120EE674D8
:104FB3000322E0FAA3E0FB22124FCEE022124FC5F8
:104FC300E022124FC922124FCEA322F0850A828516
:104FD3000B83A322EF3400F98A828B83124DB6E54B
:104FE3000822F0EE2426124FED22F582EF3400F56D
:104FF3008322124664A3A3A322F085088285098332
:1050030022125008221246B5F8A3E0F98E828F834C
:10501300A3A3227B00120F108A0A8B0BAE0AAF0BDD
:10502300EE4F22E0F9120F1C22125030221250418F
:1050330012503722E0F8A3E0F92212504122F08EF9
:10504300828F8322C082C083E990085DF090030DB4
:1050530074E8F0A37415F090030F74D6F0A37415DD
:10506300F090031174C4F0A3741502463F74F71251
:10507300041FEAFEEBFF8908EE4F700312115C90E8
:10508300031F124E3A700890031F80221259DC88C6
:10509300828983A3A3A3A3A3A3A3A3A31250C78813
:1050A300828983A3A3A3A3A3A3A3A3A370DEEEF088
:1050B300A3EF1250CDA3A3A3E4F0A31250CDE508B0
:1050C300F0024AE4124FB5EA4B221250D122125099
:1050D300D52212602EA3A3A32274F712041F9003F8
:1050E3001F800D8E828F83A3A3A3A3A3A3A3A3A334
:1050F300126529EE4F60348E828F83A3A3A3A3A3EB
:10510300A3A3E06970DD8E828F83A3A3A3A3E06AC8
:105113007003A3E06B70CC8E828F83A3A3A3A3A39E
:10512300A3E06C70BEEEFAEFFB80047A007B000212
:105133004AE474F712041F90031F12652990031F9A
:105143001240D8687002EB69701712519B1259DC38
:1051530090031F124B5A90031F126529803012656A
:105163001CEE4F60298E828F83A3A3A3A3A31240B7
:10517300D4687002EB6970E68A828B83A3A3A3A32E
:10518300A3A3A3A3A31251A8A3A3A3124B5A120F21
:10519300ACEEFAEFFB024AE41246F4A3A3A3A3A3E3
:1051A300A3A3A3A3221253E7A3A32274F012041F01
:1051B30074FA1208B98A088B098A828B83A3A3A382
:1051C300A3A3A3A3A3E0600D640160098A828B8378
:1051D300124DCD600579020253B985088285098392
:1051E300A3A3A3A3A3A3A3A3E0640370157404124E
:1051F3000AB3AC82AD83AA08AB0912169CE97013FB
:1052030080D38508828509831259DC7404120AB39A
:10521300124B5A1265361265E124321253D2120F21
:10522300A68A0A8B0BAE0AAF0BEE4F70030253B77D
:105233007C327D007900120EF87402120AB3AA823E
:10524300AB83850882850983A3A3A3A3A3A3A3A3F5
:10525300A3E0F9120DBA7402120AB3E0C0E0EE241F
:105263002D1240CDD0E0F0EE242CF50AEF3400F5FA
:105273000B7403120AB3E0850A82850B83F079016C
:10528300EEFAEFFB1215FA85080C85090D750E0071
:10529300780C1208227C1C7D00EE240B124F901216
:1052A3000854EE24301253BE24320808124FD72478
:1052B30011F8E5091265ACFCE9FD8C828D83124976
:1052C30032242E1240CD124FDF12573E1265661262
:1052D30008228C828D83124DF08A828B83124FAC0D
:1052E3001208547404120AB31253E3124B5A900374
:1052F300021253D9F0900302E004125770242A12C9
:105303005C9A750D00850A82850B83E0780C12097F
:105313004C8A828B83E50CF0EE24291240CDE50CF8
:105323001263CBE4F0E5082415F582E5091253CCAA
:1053330074015007120AB374018004120AB3E4F033
:10534300EE24271246D4851882851983AA82AB835B
:10535300120DAEE924FE850882850983F0F50875F0
:105363000900EE242E1240CD124DF0ECF8EDF9AA0F
:1053730008AB091202D6E88E828F83A3A3A3A3A34B
:10538300A3A3A3F0ECF8EDF9AA08AB091202D68B9C
:1053930009EA4509600F8E828F83A3A3A3A3A3A366
:1053A300A3A3E004F0EE24201265DE4408125D0C92
:1053B30079008002791074060246A51265AAFAE9FB
:1053C300FBEE22EE2415F582EF12576CA2E022FACF
:1053D300A3E03400FB22124DE1A3A3A3A3A3A322C2
:1053E3001253E7221250378E828F83A3A3A3A322E3
:1053F30074F412041FEAFEEBFF124E099008C0E09A
:10540300F8EE242B1265DEC3984003025566125C46
:10541300B27015EE242B1265DE0412558FC0E0EE38
:1054230024291240CDD0E0F0EE24281265DEFC7969
:1054330000800109EE242C1240E9E9C39850267537
:105443000801750900E9780812094C125CB2550885
:1054530060E1E92CFC750801750900E97808120977
:105463004CE04508F0EE242712557DEE242E124021
:10547300CDEC8A088AF0A4F8ABF0E42BF9E098F8B5
:10548300A3E099F9C3E89508E99400EE403924278D
:105493001240E9125CB26037EE242D1240CD125552
:1054A30089A3E4F0EC7054EE24201265DE4420124C
:1054B3004B18C0E0EE24261240CDD0E0F0EE2430AD
:1054C30012557DA3E0805924291240CD74FFF0903A
:1054D300032FE0FA9008C1E0F508EA8508F0A4ABD1
:1054E300F075F064A4FAADF075F064EBA42DFB8EB7
:1054F300828F83A3A3EAF0A3EB80A8EE2420126596
:10550300DE54DF124FE5ECF08C08EE24271265DE43
:105513008508F0A4FAABF0EE2430F582EF1255744F
:10552300FBEE241E1240CDEAF0A3EB125597C0E028
:10553300EE24251240CDD0E0F0EE241C1240CDE83D
:1055430012559D900321124E3A600BECF91246E876
:105553001216CBE97018EE240BFAEF3400FB121687
:10556300A8800B7BE9EE2422F582EF125748024014
:10557300C512576C2AFAA3E03B22F582EF12558439
:1055830022125CFEFA22124DE1A3F022F0EE242A4D
:10559300125769221250D1A3E022F0A3E4F022743F
:1055A300F412041F90031F1265291210908A0A8BAC
:1055B3000B7CFF7DFF8020E0C398FAA3E099FBC337
:1055C300EA9CEB9D500E8E828F83A3A3E0C398FCCD
:1055D300A3E099FD12651CEE4F60591259D8E50AF4
:1055E300C398F8E50B99F98E828F83125E70C3E836
:1055F3009AE99B8E828F83A3A340BCA3A3A3A3E0BA
:105603006402701DEE240B125CB5600CEE241012C4
:1056130040CD125E72120F16EEFAEFFB1215EE80FA
:1056230007EEFAEFFB1215E27A017B0090085D1298
:10563300468F801474FF6C700374FF6D600A7A01E7
:105643007B0090085D1246520240C574F012041F9D
:105653008A088B09ECFAEDFB890A7C011265361284
:105663005CA48A0C8B0DAE0CAF0DEE4F700302578A
:105673003BE50A600302573BE50812573EE0F8EEAC
:1056830024281265DE68600302573BEE242C125572
:105693007DE82AF8E43400F98E828F83A3A3A3A3C1
:1056A300A3A3A3A3E0FAE89AE99400C365D0334027
:1056B300141259C3125CB8700C7B0012652FE509F4
:1056C30012574880731259C3125CB87031EE242C00
:1056D3001265DEF9EE24291240CD7508FF75090025
:1056E300E9780812094CE508F0EE242A1240CDE5CA
:1056F3000812576129F0EE242B1246878022E50811
:105703002414F8E5093400F9E0C0E0EE242A12403D
:10571300CDD0E012575CC0E0EE24291240CDD0E09A
:10572300125770242D1240CD1246C7A312559D7AED
:1057330001FB90085D12468F0246A82413F582E50B
:1057430009124FF022125584EE2414124FED124E1B
:1057530045EEFAEFFB1215EE22124B2DE022F0EE8E
:10576300242812576922F582EF125CFE22F012659B
:1057730074F0A3EBF0EE2274E812041F74FD120818
:10578300B9E9851882851983F08A0A8B0B8C168DEB
:1057930017741B120AB31259BB741D120AB3780C87
:1057A300120A568A828B83A3A3E0F9120DA88A12E8
:1057B3008B13EA451370077A007B000259B67A12FD
:1057C3007B00120FA68A088B09AE08AF09EE4F7053
:1057D300030259B27C127D007900120EF874011293
:1057E3000AB3AA82AB83850A82850B83A3A3E0F95C
:1057F300120DBAEE240FF508EF1265537402120A64
:10580300B3E0850882850983F07902EEFAEFFB1293
:1058130015FA8516828517831253E3E8F0A3E9127C
:105823005A078E828F83A3A3A3A3A3A3A3F0751404
:10583300FF751500850882850983E0781412094CE9
:105843001240CAE514F0851282851383A3E0F8128F
:105853004B6CC0E0EE240B1240CDD0E0125A11F590
:1058630008EE240D1240CDE508F0125CBDE085087A
:10587300F0A42424FAE5F03400FB120F108A088BFD
:1058830009EE24101240CD124E10EA4509700302AE
:1058930059A78A828B83741A12559D8A828B83A39C
:1058A300A3F0A31259FB1259E4124B5AAC16AD17CD
:1058B300EA2406FAEB3400FB120DB4850A82850B49
:1058C30083A3A3A3E0C0E0E508240FF582E5091252
:1058D30040D0D0E0F090034C1259DCE508241012BC
:1058E30059CC125A21A31259DCE50824121259CCBF
:1058F300124FC0C0E01259C31240D0D0E0F0E50A05
:10590300125C95E50B1265E1C0E0E5082415F5820C
:10591300E5091240D0D0E01259F2C0E0E5082416A0
:10592300F582E5091240D0D0E01265E5E0C0E0E57C
:10593300082417F582E5091240D0D0E01265E5A3EB
:10594300E0C0E0E5082418F582E5091240D0D0E074
:10595300124DC8C0E0E5082419F582E5091240D0CC
:10596300D0E0F0E508241AF582E5091240D0780C5E
:10597300120A74E5082424F8E5093400F9E508243B
:1059830022F582E509124B57E50A126531E50B1240
:1059930065E1C0E0E508241FF582E5091240D0D097
:1059A300E0F0800BEEFAEFFB1215EE7E007F00EEC7
:1059B300FAEFFB740302656CE0F510A3E0F5112226
:1059C300E5082414F582E50922F582E509124FF072
:1059D300E8F0A3E9228E828F831259E02212503716
:1059E30022E0F8A3E0F98A828B83A3A3A3A322F086
:1059F300851082851183E0221259FF22124FC9A319
:105A0300A3A3A322F012653EE50B12576C22F012FA
:105A13005A1912576C22E50A126561E50B221259D5
:105A2300FFA3A3A32274E812041F8A0A8B0B8C1012
:105A33008D1189147418120AB3E0F516A3E0F51753
:105A4300741A120AB3780C120A56750900EA241361
:105A5300F582EB1265E1F508900321124E3A6011CD
:105A6300A9089003211246E51216CBE96003025CF4
:105A7300927C02851082851183125E7212653EE567
:105A83000B125CA48A128B13AE12AF13EE4F704B42
:105A9300850A82850B83A3E0A2E04003025C92782F
:105AA3000C12081E7816120826A914AC10AD11AA00
:105AB3000AAB0B1215D074061208548A0C8B0DAE68
:105AC3000CAF0DEE4F7003025C928E828F83A3A303
:105AD300A3A3A3A3A3A3E508125D0C85080C8E82E0
:105AE3008F83A3A3A3A3A3A3A3A3E024FFF8E43476
:105AF300FFF9E8650C7001E97003750901EE240BE9
:105B0300125CB57003025C45850A82850B83A3E0B2
:105B1300A2E05003750800125CDEE50C98E499C31B
:105B230065D033401EE0F8EE240E1265DE28F075D2
:105B33000CFF750D00E8780C12094CEE125C95EF22
