:020000040800F2
:10000000309D002065010008B32A0008692A000815
:10001000B12A0008890D0008F53100080000000031
:10002000000000000000000000000000052E000895
:10003000FD0E000800000000552B0008D92E000816
:100040007F0100087F0100087F0100087F01000890
:100050007F0100087F0100087F0100087F01000880
:100060007F0100087F0100087F0100087F01000870
:100070007F0100087F0100087F0100087F01000860
:100080007F0100087F0100087F0100087F01000850
:100090007F0100087F0100087F0100087F01000840
:1000A0007F0100087F0100087F0100087F01000830
:1000B0007F0100087F0100087F0100087F01000820
:1000C0007F0100087F0100087F0100087F01000810
:1000D0007F010008912F00087F010008E92F000828
:1000E0007F0100087F0100087F0100080000000078
:1000F0000000000000000000000000000000000000
:1001000000000000000000007F0100087F010008DF
:100110007F010008392F00087F0100087F010008D7
:100120007F0100087F0100087F0100087F010008AF
:100130007F0100087F0100087F0100087F0100089F
:100140007F0100087F0100087F0100087F0100088F
:10015000DFF80CD000F070F9004800477D4400083B
:10016000309D00200648804706480047FEE7FEE72E
:10017000FEE7FEE7FEE7FEE7FEE7FEE7FEE7FEE757
:10018000DD2E00085101000840EA01039B0703D05F
:1001900009E008C9121F08C0042AFAD203E011F8C6
:1001A000013B00F8013B521EF9D27047D2B201E088
:1001B00000F8012B491EFBD270470022F6E710B56C
:1001C00013460A4604461946FFF7F0FF204610BDC5
:1001D00030B505462A460B4612F8010B13F8014BC1
:1001E00008B1A042F8D01CB1002802D06D1CF1E784
:1001F000284630BD421C10F8011B0029FBD1801A93
:10020000704700000FB400B58DB010A909900B9095
:1002100000914FF0FF300A9000200C9005480690A6
:10022000054807906A4609A80F9900F0D7F80DB065
:100230005DF814FBF9030008170400082DE9FF5FBF
:100240001D464FF0FF3BD5E9014691465F464FF012
:100250000008A9697F1C01988847296A8246884757
:100260000028F6D1BAF1FF3F0CD024F4C064002E70
:1002700019DD600614D5BAF12B0F09D0BAF12D0F94
:100280000ED103E0584604B0BDE8F09F44F480640A
:10029000A9697F1C01988847761E8246002E02DDE0
:1002A000BAF1300F03D0B9F1000F26D032E0A969BE
:1002B000761E44F400747F1C019888478246002E05
:1002C00005DDBAF1780F06D0BAF1580F03D0B9F1B5
:1002D000000F10D01EE0B9F1000F02D0B9F1100FDD
:1002E00018D1A969761E24F400747F1C01988847F0
:1002F0008246102002E0082000E00A20814609E042
:1003000008FB0908A969761E44F400747F1C019853
:1003100088478246002E05DD4946504600F04AF8DF
:100320000028EDDAE96901988847A00502D46FF04A
:100330000100A8E7E00725D1600613D5600502D5C6
:10034000C8F1000000E0404629680A1D2A600968DB
:10035000220501D5087015E0220701D5088011E0BB
:1003600008600FE02868011D29600068210502D59A
:1003700080F8008006E0210702D5A0F8008001E0A7
:10038000C0F8008038467EE730B50B4601460020B5
:100390002022012409E021FA02F59D4205D303FA47
:1003A00002F5491B04FA02F52844151EA2F10102C8
:1003B000F1DC30BD3A2800D2303820F02002412A4A
:1003C00001D3A2F13700884201D34FF0FF307047CC
:1003D000026811441378016018467047D1600449DF
:1003E00051610449116200211161114600F03CB8CD
:1003F000D10300085D040008426842B1016811F8A9
:10040000013B23B1521EC0E900121846704701217A
:10041000C160881E704742685AB1C368016843B919
:1004200083688B4205D0491E521CC0E9001200208F
:1004300070474FF0FF307047064C074D06E0E0680C
:1004400040F0010394E8070098471034AC42F6D31B
:10045000FFF782FE3C4900085C490008C0B24FF437
:10046000F05100F097B900002DE9F34F8BB04FF039
:10047000000801F10C000C464FF0010B46460DF14F
:10048000080A0190626901210198904705002DD06A
:10049000252D2CD0216A8847C0B1626901210198BD
:1004A0009047216A88470028F7D1411E6269019868
:1004B000904700E0761CA1690B988847216A88471D
:1004C0000028F7D1E1690B988847DBE7A1690B9811
:1004D00088470746A84201D1761CD3E7E1690B980B
:1004E00088477F1C02D1B8F1000F6FD046E100278A
:1004F00062693D463946019890472A2804D16269CD
:100500000121019890470125DFF884926269012159
:1005100001989047A0F130010A290AD24F45E5DC45
:1005200007EB870100EB4107303FDFD445F01005B2
:10053000ECE7E90601D46FF000476C280AD04C289C
:1005400014D0682815D06A280DD074281CD07A28B9
:100550001AD01DE062690121019890476C2802D0F1
:1005600045F0040514E045F002050DE045F02005D6
:100570000AE06269012101989047682802D045F09D
:10058000080505E045F4006562690121019890477E
:10059000C4E9015765283DD019DC58287AD00CDC15
:1005A000452837D004DC252826D0412831D131E038
:1005B00046282FD047282CD12CE05B2877D0612803
:1005C00028D063287CD0642823D15AE0D0E06F285B
:1005D00048D008DC66281DD067281BD0692821D0A8
:1005E0006E2816D127E0702845D0732868D075286A
:1005F00047D078280DD14DE0A1690B988847054672
:1006000025283FF469AFE1690B9888476D1C3FF4DA
:100610006AAFB3E023466A466FF001000B99AFF36F
:1006200000809EE045F040006060A80723464FF040
:10063000000236D43EE0E8077FF447AF2068011D92
:1006400021600068290501D506701BE7290701D53F
:10065000068017E7A90703D5F117C0E9006111E784
:1006600006600FE745F040006060A80723464FF0A2
:10067000080216D41EE040F60E0125EA0100606073
:1006800016E045F040006060A80723464FF00A02DC
:1006900007D40FE045F040006060A80708D5234666
:1006A00010226FF001000B99AFF3008059E007E0D2
:1006B000234610226FF001000B99FFF7BFFD50E0B9
:1006C0004FF000094F464B46632802D05B2806D006
:1006D00040E0E80601D40120A06001273AE0626909
:1006E0000121019890475E2805D14FF00109626908
:1006F000494601989047216939B900210A46534675
:1007000043F82120491C0829FADBB0B3216969B9F3
:10071000C11700EBD16253110AEB830122F01F02D3
:10072000821A01200B68904003430B60626901212B
:10073000019890475D28E8D1B9F1000F09D0002059
:10074000514651F82020D24341F82020401C08286F
:10075000F7DB02AB224600976FF001000B99AFF375
:10076000008000280CDA401C08D1BBF1000F05D036
:100770004FF0FF300DB0BDE8F08FFFE74046F9E7DE
:10078000E90701D108F1010806444FF0000B79E6B2
:10079000CCCCCC0C7F2801D9002208E0064A02EB21
:1007A0005002C007127800D1120902F00F02012096
:1007B0009040084070470000FC480008014800785D
:1007C000704700002F0000200E49097889B90E49B2
:1007D0000988491C0C4A118011460988B1F5966FA9
:1007E0000CDB0121094A11704FF49661064A118011
:1007F00004E00021054A1170034A11800021014ADA
:10080000117070472E000020340000202F000020BF
:1008100010B50446032000F0D1F9094804604FF4F4
:10082000165002F02DFD00224FF47A71054800F0B9
:1008300067FB002242F21071034800F061FB10BD1B
:1008400030000020D90C0008610D00087FB5054676
:100850000020009001900290039000F03BFD0028E2
:100860003FD111211FA000F063FA132122A000F054
:100870005FFA00F079FD0446224624A1684603F0A1
:1008800029FD6846FFF7B6FC84B22146684600F0B1
:100890004FFA19211FA000F04BFA00F06BFD04463F
:1008A00022461AA1684603F015FD6846FFF7A2FC30
:1008B00084B22146684600F03BFA13211CA000F0E8
:1008C00037FA00F05DFD0446224610A1684603F0A9
:1008D00001FD6846FFF78EFC84B22146684600F0B1
:1008E00027FA7FBD0D0A3E4E4F5420434F4E4E45D2
:1008F0004354210D0A0000003E2D446973636F6E5E
:100900006E6563742054696D65733A0025640D0A41
:10091000000000003E2D6770727320646973636F7E
:100920006E6E65637420726561736F6E3A000000CD
:100930003E2D646973636F6E6E6563742054696DD8
:1009400065733A0008B50121082002F07BF91020F8
:100950008DF803000001ADF8000003208DF80200BF
:100960006946194800F034FC4FF48071164800F0D5
:10097000ADFC0121082002F065F910208DF803007C
:100980008020ADF8000003208DF8020069460E4873
:1009900000F01EFC80210C4800F098FC012108208A
:1009A00002F050F910208DF803000120ADF800008E
:1009B00003208DF802006946034800F009FC01217C
:1009C000014800F083FC08BD000C014010B504464E
:1009D0002146024802F0BFF810BD0000B4700020AC
:1009E00010B54FF480711748FFF7E7FB0020164958
:1009F000088016490870012015490870154A8021A1
:100A0000154802F0CBF8154A4FF48071144802F0F3
:100A1000C5F8FFF797FF012000F028F8002000F04C
:100A2000CDF84FF4164002F02BFC002264210D4853
:100A300000F066FA002242F210710B4800F060FAF2
:100A400010BD00004C7200202C0000202E00002061
:100A50002F000020C0700020B47000204C710020D6
:100A600040710020C90700084D08000810B5044671
:100A7000012C04D10121044800F02AFC03E00121EB
:100A8000014800F023FC10BD000C014010B50446E5
:100A90002146024802F088F810BD00004071002095
:100AA0002DE9F8430027B846B94600240025002662
:100AB00009E09DF800103E4802880088401C3C4B2D
:100AC00018803C4881543A480088FF2805DC694674
:100AD000394802F040F80128EBD029E03548005DA4
:100AE000FA2822D13349601C0D5C202D01DD84B22F
:100AF0001EE0281D20442E490988884214DC601914
:100B0000C01C2C49085CF5280FD10A46A01C1118FE
:100B10002A46012000F0D6F96119891C254A515C4A
:100B2000884202D1012708E007E0601C84B200BFC0
:100B3000601C1F4909888842D0DB00BF012F21D1EA
:100B4000281D2044801C1A490988884218DC281D69
:100B50002044184911F80080281D2044401C085CDE
:100B60004FFA80F90B46621C995CA21C98184B4600
:100B7000424603F07BFA281D2044801C86B202E026
:100B8000264600E026460A480088B04201DA0848B6
:100B9000068807480088801B054908800548811998
:100BA000034802880348FFF7EFFABDE8F883000026
:100BB0002C0000204C7200204071002010B504462B
:100BC00034B1012C0ED0022C16D0032C28D11DE0FC
:100BD0008021154800F07AFB4FF48071124800F034
:100BE00075FB1EE08021104800F070FB4FF480710F
:100BF0000D4800F06DFB14E080210B4800F068FB0D
:100C00004FF48071084800F061FB0AE0802106483B
:100C100000F05EFB4FF48071034800F059FB00E0E8
:100C200000BF00BF10BD0000000C0140F8B501215D
:100C3000102002F007F810248DF803406602244FBC
:100C4000ADF8006003258DF802506946384600F083
:100C5000BFFA3146384600F039FB0121102001F07F
:100C6000F1FF8DF80340A602ADF800608DF8025048
:100C70006946384600F0ACFA3146384600F026FBAB
:100C80000121102001F0DEFF8DF803402601ADF8B0
:100C900000608DF802506946384600F099FA3146F6
:100CA000384600F015FB0121082001F0CBFF8DF83C
:100CB00003400220ADF80000064C8DF80250694652
:100CC000204600F085FA0221204600F001FBF8BD25
:100CD00000100140000C01407FB5054600240EA322
:100CE0000FCB8DE80F00104800684FF47A71B0FB0D
:100CF000F1F4200C8DF80700200A8DF80800E0B20E
:100D00008DF809000F21684600F012F800229621A4
:100D1000064800F0F5F87FBDFF56AE35A9559006A0
:100D20009F0004070500000030000020D90C0008D7
:100D300070B504460D4622462946074801F04CFF8F
:100D40004021064802F0C0F928B9012240F226618C
:100D5000024802F0D8F970BDB4700020004800408D
:100D600010B504460020FFF729FF054800F0E6F81B
:100D7000044800F0E3F84FF4164002F081FA10BD89
:100D8000D90C0008610D0008FEE770B5C2690D4678
:100D90000446904720B9616920468847002800D062
:100DA000056070BD00210A4604E0036843F8312065
:100DB000491C89B283888B42F7D8704730B500232D
:100DC0001A4684880AE0056855F832508D4203D1EE
:100DD000006800EBC20303E0521C92B29442F2D8C6
:100DE000184630BDF0B500231A46042584880BE070
:100DF000066805EBC207F65B8E4203D1006800EB84
:100E0000C20303E0521C92B29442F1D81846F0BDDE
:100E100010B500221146838805E0046854F831407B
:100E20002CB1491C89B28B42F7D8104610BD00681E
:100E300000EBC102F9E7024610B500200146938895
:100E400007E0146854F831400CB1401C80B2491CD2
:100E500089B28B42F5D810BD10B5016082800D4972
:100E600081600D49C1600D4901610D4941610D4924
:100E700081610D49C16100230C490422016205E032
:100E80000468591C02EBC303E1528BB2818899427A
:100E9000F6D810BD8B0D0008B10E0008A50D000896
:100EA000110E0008E50D0008BD0D0008370E000802
:100EB00010B5C2690024904710B1002101240160DF
:100EC000204610BD30B504004FF0000001D0012CC9
:100ED0000ED1002003460CB1012C01D0054C05E0D9
:100EE000054C03E0CD5C45405B1C605D9342F9D34B
:100EF00030BD0000FC460008FC47000870470000B9
:100F000070B514460D46064600F042F8411C01D06B
:100F1000C0B201E000F05AF8202808D2054901EBE0
:100F2000001005490660C4600968C0E9015100204D
:100F300070BD00002C9700206400002010B500F068
:100F400027F8044600F042F8002C1CDB401EC2B219
:100F500000210E48A24210DD00EB021200EB04104B
:100F6000136803609368836053684360D368C36009
:100F7000116091605160D16005E000EB04100160E8
:100F800081604160C160204610BD00002C970020A8
:100F900070B500240646651E00F018F8074908E001
:100FA00001EB04121268B24201D165B203E0641C85
:100FB000E4B28442F4D3284670BD00002C97002090
:100FC0000148006870470000640000200020074AC4
:100FD000014600BF02EB01131B6823B1491CC9B2D3
:100FE0002029F7D370470846704700002C9700204F
:100FF0004FF400710148FFF7E0B800002C97002083
:101000002DE9F0410024FFF7E1FF05460E4E17E001
:101010000E48026806EB0410D0E90113194493420C
:1010200002D9994205D802E008D2994206D99142E4
:1010300004D88160C168026808469047641CE4B225
:10104000AC42E5D3BDE8F0812C970020640000207D
:1010500002480168491C01607047000064000020DC
:1010600070B505464FF43026304600F067F8042886
:1010700011D1094C206940F00200206165612069AE
:1010800040F040002061304600F058F8216941F6F8
:10109000FD721140216170BD00200240084904200A
:1010A000CA68D20701D001207047CA68520701D52B
:1010B00002207047C968C906FBD5032070470000AD
:1010C000002002400248016941F08001016170473F
:1010D000002002402DE9F841064600204FF4005759
:1010E00000900D46384600F029F8042816D10C4C23
:1010F000206940F0010020613580B846384600F094
:101100001DF8BF1E042806D1B61C280C009630809E
:10111000404600F013F8216939402161BDE8F881AB
:101120000020024003480249416003494160704782
:101130002301674500200240AB89EFCD00B503468F
:10114000FFF7ACFF03E000BFFFF7A8FF5B1E01281D
:1011500003D0002B00D1052000BD002BF4D1FAE70D
:101160000246002052688A4200D10120704741683F
:10117000084710B504460120C4E90121207020462B
:1011800090470220207010BD70B5044603200D4624
:1011900020706168204688470120656020702046E5
:1011A000A8470220207070BD70B5044603200E468B
:1011B00020706168154620468847A06830B1052137
:1011C0000170A0688670A068457070BDFEE70000E1
:1011D000F0B5CA78002502F00F03D20601D58A784F
:1011E00013430A784FF00F0E12F0FF0F4FF0010279
:1011F0001CD004680F8802FA05F63740B74211D1B7
:101200004FEA850C0EFA0CF724EA070703FA0CF4F0
:101210003C43CF78282F02D0482F02D002E046610D
:1012200000E006616D1C082DE4D304600C88FF2CDF
:101230001ED944685FF0000606F1080702FA07F5B8
:101240000F882F40AF420FD14FEA860C0EFA0CF7F1
:10125000BC4303FA0CF73C43CF78282F00D14561FB
:10126000CF78482F00D10561761C082EE4D3446066
:10127000F0BD0000F0B5144C002801DAE36900E08D
:101280006368420D120185B2C0F301579540C0F367
:101290000346032F05D0C2020AD50322B24093436E
:1012A00007E023F07062636823F07063636002E01C
:1012B000AB4343F0706201B12A43002801DAE261D6
:1012C000F0BD6260F0BD0000000001404161704768
:1012D0000161704710B502490248FFF741FF10BD98
:1012E000552600084C7300200021818070470000C3
:1012F00070B5044600250F4800780F490870E0706B
:101300000C48801D01780C48417021710C2209495C
:10131000891E0120FFF7D6FDC1B2074881706171B7
:10132000E1782079014460790D18AD101F35A57161
:1013300070BD0000EAF7FF1F5D00002070B5054694
:101340000C460A2C07D30748016829604168696088
:101350000089288104E0224602492846FEF714FF4E
:1013600070BD000020970020014800787047000001
:101370004D00002001480078704700005000002018
:1013800001480078704700004C000020F8B5054681
:101390000C4600200090002614E06946284601F023
:1013A000DAFB01280DD19DF80000A288216888543D
:1013B000A088401CA0809DF800000A2802D10126C8
:1013C00004E003E0A088E1888842E6DB00BF00205B
:1013D000A288216888543046F8BD00000121014AE6
:1013E000117070474E00002010B504461E4804607E
:1013F00000201E4908801E4908701E4908701E48BA
:101400001E4908608020C880002088801C48FFF7A3
:101410006FFF1C48007820F001001A490870084648
:10142000007820F0020008700846007820F00400E0
:101430000870002014490870144A4FF48051144871
:1014400001F0ACFB134A4FF40071134801F0A6FB06
:10145000124A4FF48071124801F0A0FB114A00219A
:101460001148FFF786FE10BD480000204200002012
:101470004C0000204D0000208593002054000020E7
:10148000380000205000002060000020647300201D
:1014900064830020149400200894002020960020EB
:1014A00014960020252500084C73002010B5044632
:1014B00002210348FFF70CFF0248FFF73FFD10BD74
:1014C000000C0140AD14000810B50446A0880228A5
:1014D0000DD120680078AC2809D120684078052813
:1014E00005D1002204490548FFF70AFD03E0A18861
:1014F000206802F0A3FA10BD905F0100DD13000820
:101500000121014A117070474400002010B50446C3
:101510002078012806D0022812D0032819D00428E8
:1015200019D117E00A210D4801F07CFA00200C497E
:10153000087000224FF4FA610A48FFF7E1FC0BE063
:1015400007480078012803D107492046FFF71CFE11
:1015500002E001E000E000BF00BF10BD3800002045
:1015600044000020011500085526000810B5044667
:101570002078012806D0022812D0032819D0042888
:1015800019D117E003210DA001F04CFA00200C49FD
:10159000087000224FF47A710A48FFF7B1FC0BE0A3
:1015A00007480078012803D107492046FFF7ECFDE2
:1015B00002E001E000E000BF00BF10BD2B2B2B00BC
:1015C00044000020011500089125000810B50446CC
:1015D0002078012806D0022812D0032838D0042809
:1015E0003BD139E02C211EA001F01CFA0020284933
:1015F0000870002244F620612648FFF781FC2DE0A8
:1016000025492648FFF7C2FE012817D1224908685C
:1016100023A1FEF7DDFD20B124492046FFF7B4FDEC
:1016200009E01D49086822A1FEF7D2FD18B12C215E
:101630000BA001F0F7F91848FFF756FE14480078A0
:10164000012804D1002211462046FFF7ADFD05E038
:101650001048FFF773FC01E000E000BF00BF10BDC1
:1016600041542B5749504352454154453D322C314A
:101670002C227061726B2E6E657434696F742E63E8
:101680006F6D222C2031343030300D0A0000000004
:10169000440000200115000854000020149600208A
:1016A0002B5749505245414459000000B9160008D3
:1016B0004552524F5200000010B5044620780128D0
:1016C00006D0022812D003283AD004283DD13BE0AE
:1016D00012211FA001F0A6F9002022490870002263
:1016E00041F288312048FFF70BFC2FE01F492048CA
:1016F000FFF74CFE012819D11C4908681DA1FEF70F
:1017000067FD28B1012200212046FFF74DFD0AE0C8
:10171000164908681AA1FEF75BFD20B100221146A8
:101720002046FFF741FD1148FFF7DEFD0D48007828
:10173000012804D1002211462046FFF735FD05E0BF
:101740000948FFF7FBFB01E000E000BF00BF10BD50
:1017500041542B574950444154413D322C312C3295
:101760000D0A00004400002001150008540000206C
:1017700014960020434F4E4E4543540D0A0000007E
:101780004552524F5200000010B5044620780128FF
:1017900006D002280AD003280CD005281AD10AE066
:1017A0000E4A0F490F48FFF7E4FC14E00D48FFF71D
:1017B000DEFC10E00FE0A07858B96078012804D171
:1017C00009492046FFF7E0FC03E008492046FFF7FF
:1017D000DBFC00E000BF00BF10BD0000CD1500081D
:1017E0004C730020587300200D15000825250008B3
:1017F00010B504462078012806D0022812D003280C
:1018000037D004283AD138E006211EA001F00AF9A9
:1018100000201E490870002241F288311C48FFF761
:101820006FFB2CE01B491C48FFF7B0FD012817D1C6
:101830001849086819A1FEF7CBFC20B119492046C8
:10184000FFF7A2FC09E01349086817A1FEF7C0FCE6
:1018500018B117492046FFF797FC0E48FFF744FDE3
:101860000A480078012803D111492046FFF78CFC73
:1018700005E00748FFF762FB01E000E000BF00BFA2
:1018800010BD0000415445300D0A00004400002006
:101890000115000854000020149600204F4B0D0A3B
:1018A00000000000712300084552524F5200000012
:1018B000CD1D000810B504462078012806D0022866
:1018C00029D003285FD0042862D160E03248334930
:1018D00008608020C88000208880314A4FF48071E1
:1018E000304801F05BF9304A4FF400712F4801F0A5
:1018F00055F94FF4E13001F07FFC10212CA001F0EC
:1019000091F800202F490870002241F288312E48BA
:10191000FFF7F6FA3DE021492248FFF737FD01289D
:1019200028D11E49086829A1FEF752FCA8B11A481F
:101930001A4908608020C88000208880184A4FF427
:101940008071184801F02AF94FF4164001F054FC58
:1019500020492046FFF718FC09E0104908681EA13D
:10196000FEF736FC18B11E492046FFF70DFC0B4868
:10197000FFF7BAFC13480078012803D11849204624
:10198000FFF702FC05E01048FFF7D8FA01E000E09D
:1019900000BF00BF10BD0000859300205400002050
:1019A0002096002014960020149400200894002013
:1019B0000D0A41542B4950523D33383430300D0A12
:1019C0000000000044000020011500084F4B0D0AE4
:1019D00000000000F11700084552524F520000006D
:1019E000CD1D000870B5054600242878012806D0D2
:1019F000022811D003285AD004285DD15BE00A21C7
:101A00002FA001F00FF80020304908700022304963
:101A10003048FFF775FA50E02F493048FFF7B6FC21
:101A200001283BD12C4908682DA1FEF7D1FB0446C3
:101A3000002C30D02CA1A01DFEF7CAFB20B10A213A
:101A40001FA000F0EFFF26E028A1A01DFEF7C0FBBD
:101A500020B127492846FFF797FB1CE025A1A01DD0
:101A6000FEF7B6FB20B10A2115A000F0DBFF12E063
:101A700021A1A01DFEF7ACFB20B10A2110A000F0AF
:101A8000D1FF08E01DA1A01DFEF7A2FB18B1184967
:101A90002846FFF779FB1048FFF726FC0B48007833
:101AA000012803D116492846FFF76EFB05E00948D7
:101AB000FFF744FA01E000E000BF00BF70BD000086
:101AC00041542B435245473F0D0A0000440000207B
:101AD000C0D4010001150008540000201496002015
:101AE0002B435245473A00002C3000002C310000B7
:101AF000012100082C3200002C3400002C3500009D
:101B0000CD1D000810B504462078012806D0022813
:101B100012D0032837D004283AD138E00B211EA078
:101B200000F080FF00201F490870002241F2883138
:101B30001D48FFF7E5F92CE01C491D48FFF726FC7E
:101B4000012817D1194908681AA1FEF741FB20B1F5
:101B50001A492046FFF718FB09E01449086818A144
:101B6000FEF736FB18B118492046FFF70DFB0F486A
:101B7000FFF7BAFB0B480078012803D11249204631
:101B8000FFF702FB05E00848FFF7D8F901E000E0A5
:101B900000BF00BF10BD000041542B434D45453DE3
:101BA000310D0A00440000200115000854000020F7
:101BB000149600204F4B0D0A00000000991C0008ED
:101BC0004552524F52000000CD1D000810B504468A
:101BD0002078012806D0022812D0032837D0042804
:101BE0003AD138E00E211EA000F01CFF0020204951
:101BF0000870002241F288311E48FFF781F92CE07D
:101C00001D491E48FFF7C2FB012817D11A49086871
:101C10001BA1FEF7DDFA20B11B492046FFF7B4FAFD
:101C200009E01549086819A1FEF7D2FA18B1194957
:101C30002046FFF7A9FA1048FFF756FB0C4800783A
:101C4000012803D113492046FFF79EFA05E0094811
:101C5000FFF774F901E000E000BF00BF10BD000015
:101C600041542B57495042523D312C360D0A000049
:101C700044000020011500085400002014960020A4
:101C80004F4B0D0A00000000811E00084552524FC4
:101C900052000000CD1D000830B589B00446002573
:101CA0002078012806D0022812D003284FD004281B
:101CB00052D150E009212AA000F0B4FE00202B49A7
:101CC0000870002241F288312948FFF719F944E0F1
:101CD00028492948FFF75AFB01282FD125490868D0
:101CE00026A1FEF775FA0546DDB12648411E821E83
:101CF000C31ECDE90432CDE90610001F411E821E2D
:101D0000C31ECDE90032CDE90210031F421F1EA100
:101D100005F10800FEF776FA28492046FFF734FA65
:101D200009E01449086826A1FEF752FA18B12649BD
:101D30002046FFF729FA0F48FFF7D6FA0B4800783C
:101D4000012803D120492046FFF71EFA05E0084884
:101D5000FFF7F4F801E000E000BF00BF09B030BDBC
:101D600041542B434349440D0A0000004400002025
:101D70000115000854000020149600202B4343490D
:101D8000443A000029970020253268687825326897
:101D900068782532686878253268687825326868FE
:101DA00078253268687825326868782532686878DE
:101DB000253268687825326868780000CD210008EF
:101DC0004552524F52000000CD1D000810B5044688
:101DD0002078012806D0022830D0032837D00428E4
:101DE0003AD138E01E48007805280DDB00201C4958
:101DF000087002211B48FFF769FA00224FF4FA61CC
:101E00001948FFF77DF80AE04FF400711748FFF713
:101E10005FFA00224FF4FA711548FFF771F8104885
:101E20000078401C0E4908700020124908700022FA
:101E300041F288311048FFF763F80EE00D48007852
:101E4000012803D10D492046FFF79EF905E00A4815
:101E5000FFF774F801E000E000BF00BF10BD000014
:101E600060000020000C0140AD140008001001408B
:101E700001290008440000200115000899220008EB
:101E800010B504462078012806D0022812D0032875
:101E900037D004283AD138E01A211EA000F0C2FD44
:101EA000002023490870002241F288312148FFF7C1
:101EB00027F82CE020492148FFF768FA012817D1BC
:101EC0001D4908681EA1FEF783F920B11E4920466E
:101ED000FFF75AF909E0184908681CA1FEF778F9DC
:101EE00018B11C492046FFF74FF91348FFF7FCF9DA
:101EF0000F480078012803D116492046FFF744F91E
:101F000005E00C48FFF71AF801E000E000BF00BF51
:101F100010BD000041542B57495042523D322C36DF
:101F20002C31312C22756E696E6574220D0A000009
:101F300044000020011500085400002014960020E1
:101F40004F4B0D0A000000002D2000084552524F53
:101F500052000000CD1D000810B50446207801286D
:101F600006D0022812D0032837D004283AD138E00E
:101F700014211EA000F056FD002022490870002206
:101F800041F288312048FEF7BBFF2CE01F49204872
:101F9000FFF7FCF9012817D11C4908681DA1FEF7BD
:101FA00017F920B11D492046FFF7EEF809E017495F
:101FB00008681BA1FEF70CF918B11B492046FFF772
:101FC000E3F81248FFF790F90E480078012803D192
:101FD00015492046FFF7D8F805E00B48FEF7AEFF9D
:101FE00001E000E000BF00BF10BD000041542B57CE
:101FF000495042523D322C362C312C2220220D0ADF
:1020000000000000440000200115000854000020DA
:10201000149600204F4B0D0A00000000E51900083F
:102020004552524F52000000CD1D000810B5044625
:102030002078012806D0022812D0032837D004289F
:102040003AD138E014211EA000F0ECFC0020224917
:102050000870002241F288312048FEF751FF2CE041
:102060001F492048FFF792F9012817D11C49086839
:102070001DA1FEF7ADF820B11D492046FFF784F8F9
:1020800009E0174908681BA1FEF7A2F818B11B491F
:102090002046FFF779F81248FFF726F90E48007836
:1020A000012803D115492046FFF76EF805E00B48DB
:1020B000FEF744FF01E000E000BF00BF10BD0000DC
:1020C00041542B57495042523D322C362C302C2251
:1020D00020220D0A00000000440000200115000825
:1020E00054000020149600204F4B0D0A0000000001
:1020F000591F00084552524F52000000CD1D0008E4
:1021000010B504462078012806D0022812D00328F2
:1021100038D004283BD139E010211EA000F082FC09
:1021200000202149087000224EF660211F48FEF76A
:10213000E7FE2DE01E491F48FFF728F9012818D1B6
:102140001B4908681CA1FEF743F828B101220021B1
:102150002046FFF729F809E01549086818A1FEF79D
:1021600037F818B110210BA000F05CFC1048FFF705
:10217000BBF80D480078012803D113492046FFF72A
:1021800003F805E00948FEF7D9FE01E000E000BFD2
:1021900000BF10BD41542B57495042523D342C369C
:1021A0002C300D0A0000000044000020011500083A
:1021B00054000020149600204F4B0D0A0000000030
:1021C0004552524F52000000CD1D000810B5044684
:1021D0002078012806D0022812D0032837D00428FE
:1021E0003AD138E00D211EA000F01CFC002020494F
:1021F0000870002241F288311E48FEF781FE2CE073
:102200001D491E48FFF7C2F8012817D11A4908686E
:102210001BA1FDF7DDFF20B11B492046FEF7B4FFEF
:1022200009E01549086819A1FDF7D2FF18B119494D
:102230002046FEF7A9FF1048FFF756F80C48007833
:10224000012803D113492046FEF79EFF05E0094807
:10225000FEF774FE01E000E000BF00BF10BD00000B
:1022600041542B5749504346473D310D0A00000069
:10227000440000200115000854000020149600209E
:102280004F4B0D0A00000000CD1B00084552524F75
:1022900052000000CD1D000810B50446207801282A
:1022A00006D0022823D003283DD0042840D13EE0A8
:1022B0002148224908608020C88000208880204A68
:1022C0004FF480711F4800F069FC4FF4164000F095
:1022D00093FF0B211CA000F0A5FB00201D490870F6
:1022E00000224FF47A711C48FEF70AFE21E01349E0
:1022F0001448FFF74BF801280CD11049086817A1C2
:10230000FDF766FF18B118492046FEF73DFF0B4860
:10231000FEF7EAFF0F480078012803D11349204651
:10232000FEF732FF05E00C48FEF708FE01E000E092
:1023300000BF00BF10BD00008593002054000020A6
:1023400020960020149600200D0A41542B4950522B
:102350003F0D0A0044000020011500084950523A80
:102360002033383430300000F1170008B518000869
:1023700010B504462078012806D0022812D0032880
:1023800042D0042845D143E00B2123A000F04AFBB2
:10239000002024490870002241F288312248FEF7CB
:1023A000AFFD37E021492248FEF7F0FF012822D196
:1023B0001E4908681FA1FDF70BFF20B120492046E8
:1023C000FEF7E2FE14E0194908681EA1FDF700FFC0
:1023D00020B11E492046FEF7D7FE09E013490868E0
:1023E0001BA1FDF7F5FE18B11B492046FEF7CCFEF8
:1023F0000E48FEF779FF0B480078012803D11649F3
:102400002046FEF7C1FE05E00748FEF797FD01E014
:1024100000E000BF00BF10BD41542B574F50454E48
:102420003F0D0A0044000020011500085400002060
:10243000149600202B574F50454E3A203100000093
:10244000051B00082B574F50454E3A005D240008ED
:102450004552524F52000000CD1D000810B50446F1
:102460002078012806D0022812D0032837D004286B
:102470003AD138E00C211EA000F0D4FA0020204907
:102480000870002241F288311E48FEF739FD2CE029
:102490001D491E48FEF77AFF012817D11A4908681E
:1024A0001BA1FDF795FE20B11B492046FEF76CFEEF
:1024B00009E01549086819A1FDF78AFE18B1164907
:1024C0002046FEF761FE1048FEF70EFF0C4800782C
:1024D000012803D110492046FEF756FE05E00948C1
:1024E000FEF72CFD01E000E000BF00BF10BD0000C2
:1024F00041542B574F50454E3D310D0A000000000E
:10250000440000200115000854000020149600200B
:102510004F4B0D0A00000000CD1D00084552524FE0
:102520005200000010B504462078012806D0022889
:1025300012D0032814D005281AD112E00E480078D2
:10254000401C0D49087000200C4908700C4A0D49C8
:102550000D48FEF70EFE0CE00B48FEF708FE08E003
:1025600007E0A07818B909492046FEF70DFE00E003
:1025700000BF00BF10BD00004D0000205C00002027
:10258000CD1D00084C7300205873002089170008E7
:1025900010B504462078012806D0022812D003285E
:1025A00037D0042837D135E011211CA000F03AFAC9
:1025B00000201F49087000224FF47A711D48FEF771
:1025C0009FFC29E01C491D48FEF7E0FE012817D1B9
:1025D000194908681AA1FDF7FBFD20B11A492046E8
:1025E000FEF7D2FD09E01449086818A1FDF7F0FDD7
:1025F00018B115492046FEF7C7FD0F48FEF774FED7
:102600000B480078012803D10F492046FEF7BCFD96
:1026100002E001E000E000BF00BF10BD41542B57B5
:102620004950434C4F53453D322C310D0A000000B8
:1026300044000020011500085400002014960020DA
:102640004F4B0D0A00000000891700084552524FF9
:102650005200000070B5044600252078012806D0FD
:1026600002281FD003287DD004287CD111E100204E
:102670008A4908708A49087000228A498A48FEF708
:102680003FFC8A48006810B18848006880470022F3
:1026900064218748FEF734FC00220A218548FEF7B2
:1026A0002FFCF8E084498548FEF770FE0546844813
:1026B0000078012806D080488088401C7E49C9885F
:1026C000884279D1012D66D17B4908687DA1FDF74B
:1026D0007FFD50B37D48007820F00100401C7B490D
:1026E00008700846007820F002000870084600785C
:1026F00020F0040008700846007820F008000870F8
:102700000846007820F0100008707148FEF716FCAB
:1027100000207049087070480078401C6E490870AD
:102720006E492046FEF730FD32E0634908686CA12F
:10273000FDF74EFD60B36548007820F00100634965
:1027400008700846007820F00200801C08700846D7
:10275000007820F0040008700846007820F0080097
:10276000087001E088E095E00846007820F010004D
:10277000087059480078401C574908700020554996
:1027800008705348FEF7DAFB54492046FEF7FCFC7C
:102790004948FEF7A9FD4848808828B14648FEF719
:1027A00093FE4548FEF7A0FD00220A214148FEF7AE
:1027B000A7FB0020424908703F4880884C4909889F
:1027C000884204D000220A213A48FEF799FB3A4891
:1027D00080884749088032480078012823D13B4847
:1027E000007820F00100394908700846007820F090
:1027F000020008700846007820F0040008700846BF
:10280000007820F00800083008700846007820F0B2
:102810001000087030480078401C2F4908702F497C
:102820002046FEF7B1FC2B480078012823D1274829
:10283000007820F00100254908700846007820F053
:10284000020008700846007820F00400087008466E
:10285000007820F0080008700846007820F010008A
:10286000103008701C480078401C1B4908701B4938
:102870002046FEF789FC0EE00D48FEF75FFB0A4894
:10288000FEF75CFB1248FEF759FB0A48FEF756FBC1
:1028900001E000E000BF00BF70BD0000600000204C
:1028A0004E000020905F0100DD130008480000206A
:1028B00091290008F52800085400002014960020F3
:1028C0004F0000204552524F52000000500000209F
:1028D000752900085C0000204C0000206D150008E0
:1028E0002B57495050454552434C4F53453A0000F1
:1028F000620000200121014A117070474F00002042
:1029000010B504464FF400710348FEF7DFFC03489E
:10291000FEF714FB10BD0000001001400129000863
:1029200010B50248FEF723FC10BD00004C730020D8
:1029300070B505460E4600240B490C48FEF710FC06
:1029400088B100BF05E0295D094800F02DF9601C41
:1029500084B2B442F7DB064800F011F9B0F5006F1D
:1029600001DB00F01BF870BD552600084C730020F9
:102970006483002010B50446012003490870034811
:10298000FEF7DCFA10BD00005C000020752900088D
:1029900010B5044600F002F810BD000010B5002488
:1029A000002017490880174800F0E9F80446002C79
:1029B0001FDD4FF480511448FDF7FFFB0FE0104876
:1029C00002880088401C0E4B18800F4811180D48D3
:1029D00000F0C1F80A480088C82800DB03E0084876
:1029E0000088A042EBDB00BF05480188064800F0E4
:1029F00019F8002264210548FEF782FA10BD000094
:102A00004200002064830020708300209129000888
:102A100010B504462146024800F09DF810BD0000A4
:102A20000894002070B504460D4622462946074802
:102A300000F0D2F84021064800F046FB28B90122F8
:102A400040F22661024800F05EFB70BD0894002051
:102A50000038014010B504462146024800F0A4F8B1
:102A600010BD000014960020FEE7000002494CF65D
:102A7000CC400860704700000030004002494AF630
:102A8000AA200860704700000030004001494860FB
:102A90007047000000300040014988607047000026
:102AA00000300040014908607047000000300040DD
:102AB000FEE7704738B500244FF4E060009400F062
:102AC0003FF825208DF800008DF8024001208DF898
:102AD0000300684600F002F838BD000070B50F230F
:102AE000C47801780122F4B1144C2468457804F4C8
:102AF000E064C4F5E064240AC4F10406E340847889
:102B0000B5401C402C4301F1E021230181F8003441
:102B1000007800F01F018A404009800000F1E020A9
:102B2000C0F8002170BD01F01F00824048098000FC
:102B300000F1E020C0F8802170BD00000CED00E045
:102B40000249084302490860704700000000FA0586
:102B50000CED00E0704710B5038844880022A342C2
:102B60000BD082885B1CB3FBF2F402FB143292B2EE
:102B700002808068805C08700122104610BD024609
:102B80000020138851888B4207D0994201D9C81A76
:102B900002E09088C01A084480B270470023038086
:102BA000438081808260704770B5458884886D1C41
:102BB000B5FBF4F304FB135306880022B34209D09B
:102BC00083683BB1B5FBF4F204FB125292B242802F
:102BD00099540122104670BD2DE9F0410026174698
:102BE0000D4680463446FFF7CAFFB8F80410081AAD
:102BF000401E80B2A84206D208E0395D641CA4B22F
:102C00004046FFF7D1FFAC42F7D301263046BDE87E
:102C1000F0810000044A0029D16901D0014300E09D
:102C20008143D1617047000000100240044A00292E
:102C3000116901D0014300E0814311617047000038
:102C400000100240044A0029916901D0014300E0CC
:102C5000814391617047000000100240044A00293E
:102C6000D16801D0014300E08143D160704700008A
:102C700000100240F0B52C4A51682C4B11F00C01A9
:102C80004FF00F0504D02A4C042903D0082903D0A3
:102C9000036028E0046026E05168536805EA91412A
:102CA00003F480330D2901D0891C00E00621BBB15B
:102CB000D36A13F4803FD36A03F00F0303F10103D7
:102CC0000AD0D66AD76AC6F30316761CB4FBF6F4AC
:102CD000C7F30327BF1C7C43B4FBF3F34B43D7E795
:102CE000144B594301605168134C05EA1111635CA0
:102CF0000168D94041605368072505EA1323E35C66
:102D000021FA03F38360536805EAD323E35CD940D7
:102D1000C1605268032303EA9232231F9A5CB1FB1D
:102D2000F2F10161F0BD00000010024000127A00D3
:102D300040787D0100093D006C0000200246002023
:102D400053090949012B0BD0022B0BD0D1F82410C9
:102D500002F01F02012393400B4200D00120704774
:102D60000968F5E7096AF3E70010024001490860C5
:102D700070470000800442422DE9F041044600788B
:102D800001260025DFF874804FF40051012806D990
:102D90004046FEF79BFA2078401E207005E0002890
:102DA000404618D0FEF794FA2570154C4FF4804732
:102DB00060780028207800F1010020700FD0FEF725
:102DC00089FA10B12078042815D339464046FEF719
:102DD0007FFA65700EE0FEF779FA2670E5E7FDF7F9
:102DE000EDFC10B92078042805D339464046FEF79B
:102DF0006DFA66702570BDE8F0810000001001409A
:102E000000000020704700000CB500212E48019101
:102E10000091026842F4803202604FF4A0630268BD
:102E200002F400320092019A521C0192009A12B9E7
:102E3000019A9A42F3D10268920342D5012100918E
:102E400022490A6842F010020A600A6822F003026E
:102E50000A600A6842F002020A6041684160416803
:102E60004160416841F480614160C16A184A114083
:102E7000C162C16A174A1143C162016841F08061B1
:102E8000016001680901FCD5416821F47C114160B1
:102E9000416841F4E8114160016841F080710160CE
:102EA00001688901FCD5416821F003014160416856
:102EB00041F0020141604168C1F381010229FAD168
:102EC0000CBD00910CBD000000100240002002402B
:102ED00000F0FEFF44060100FEF7BAB8124810B534
:102EE000016841F0010101604168104A11404160F0
:102EF00001680F4A11400160016821F480210160DE
:102F0000416821F4FE014160016821F0A051016097
:102F10004FF47F0181600021C162FFF775FF054911
:102F20004FF00060086010BD001002400000FFF08C
:102F3000FFFFF6FE08ED00E038B5144C40F22551D5
:102F4000204600F0C1F838B1204600F04BF9C0B27D
:102F50008DF80000FDF79AFD40F2266529462046CF
:102F600000F0B2F8002809D06846FDF72FFD0128CF
:102F700005D000222946204600F0C5F838BD9DF84E
:102F80000010204600F032F938BD0000005000402B
:102F900038B5144C40F22551204600F095F838B170
:102FA000204600F01FF9C0B28DF80000FFF752FD77
:102FB00040F226652946204600F086F8002809D010
:102FC0006846FFF725FD012805D000222946204646
:102FD00000F099F838BD9DF80010204600F006F981
:102FE00038BD00000038014038B5144C40F225517E
:102FF000204600F069F838B1204600F0F3F8C0B27E
:103000008DF80000FDF742FD40F226652946204676
:1030100000F05AF8002809D06846FDF7D7FC0128CF
:1030200005D000222946204600F06DF838BD9DF8F5
:103030000010204600F0DAF838BD000000480040DB
:103040000029818902D041F4005101E021F40051AE
:1030500081817047174910B588420AD101218C033C
:103060002046FFF7FBFD2046BDE810400021FFF79A
:10307000F5BD1149884202D101214C0410E00F49ED
:10308000884202D101218C040AE00D49884202D114
:103090000121CC0404E00B4988420AD101210C052E
:1030A0002046FFF7C3FD2046BDE810400021FFF792
:1030B000BDBD10BD00380140004400400048004044
:1030C000004C00400050004030B501F01F020124C8
:1030D0000025C1F3421304FA02F2012B0FD0022B98
:1030E0000FD0838A4FEA11210088134204FA01F4B9
:1030F00000EA040001D000B10125284630BD8389D3
:10310000F0E7038AEEE710B5C1F3421301F01F04A4
:103110000121A140012B07D0022B07D01430002A37
:10312000026805D00A4304E00C30F8E71030F6E7F7
:103130008A43026010BD000030B50446008A85B0A5
:103140000D464CF6FF710840E98801432182A189B0
:103150004EF6F3100140A8882A8910436A890A4371
:103160001043A081A08A4FF6FF410840A98901437E
:10317000A1826846FFF77EFD1948844201D1039879
:1031800000E00298A189090400EBC00101EB0010E6
:10319000296801D5490000E08900B0FBF1F0642204
:1031A000B0FBF2F109010B096FF018056B4300EB5E
:1031B0008300A3891D044FF0320306D503EBC00042
:1031C000B0FBF2F000F0070005E003EB0010B0FBED
:1031D000F2F000F00F000843208105B030BD000080
:1031E000003801408088C0F308007047C1F308012F
:1031F00081807047FEE7000030B51F4D044685B062
:103200002846FFF727FF01210520FFF71BFD0121BD
:103210008803FFF717FD18208DF813006815ADF827
:10322000100003208DF8120004A91448FDF7D0FF08
:103230000020ADF80400ADF80600ADF80800ADF8C8
:103240000C000C20ADF80A00009469462846FFF7F0
:1032500073FF01212846FFF7F3FE012240F22551BA
:103260002846FFF750FF012240F226612846FFF76B
:103270004AFF05B030BD00000038014000080140A1
:1032800010B586B004460020009001211120FFF700
:10329000D9FC01218804FFF7BDFC01212748FDF777
:1032A000E9FF18208DF807004FF48060ADF80400A6
:1032B00003208DF8060001A92148FDF789FF0420AD
:1032C0008DF807004002ADF8040001A91C48FDF785
:1032D0007FFF1C48FFF7BEFE02940020ADF80C00F3
:1032E000ADF80E00ADF81000ADF814000C20ADF8EC
:1032F000120002A91348FFF71FFF01211148FFF731
:103300009FFE4FF4E060FFF71BFC27208DF80000C4
:1033100001208DF802008DF803006846FFF7DEFB00
:10332000012240F225510748FFF7EDFE012240F24D
:1033300026610448FFF7E7FE06B010BD1000140038
:1033400000100140004800404178462902D047293A
:1033500039D117E0017821F0F001A0310170017836
:1033600021F00C0108310170017821F00201017097
:10337000017821F001010170417921F00F01491D0F
:10338000417121E0017821F0F001A0310170017854
:1033900021F00C0108310170017821F00201017067
:1033A000017821F00101017008490978817007490D
:1033B00049788170054989788170417921F0F0015F
:1033C0005031417100E000BF00BF70475D00002038
:1033D00010B50446074800780749887005484178C9
:1033E0000548C17003488178034801710621FFF741
:1033F0009FFA10BD5D0000200400002000B585B0DC
:1034000014220D496846FCF7BFFE0C4800788DF881
:1034100002000A4841788DF8031081788DF8041075
:103420000A210DF10600FDF789FF11216846FFF71B
:103430007FFA05B000BD00009C4600085D0000203A
:103440002DE9FF470546884691461C46002000901E
:1034500001900290039055482946C269904706465C
:103460000027002E7DD052480068864205D3504880
:10347000006800F50060864201D900200AE04C484F
:103480000068301AC00800EB800101EBC000494918
:1034900001EBC0000746FDF71DFF012861D1002F99
:1034A000E0D078719DF8000020F0F000A0308DF899
:1034B00000009DF8000020F00C008DF800009DF841
:1034C000000020F00200801C8DF80000E1099DF84A
:1034D000020061F300008DF80200A0099DF80210BF
:1034E00060F341018DF8021020099DF8021060F38D
:1034F000C3018DF80210E0089DF8021060F304117A
:103500008DF80210A0089DF8021060F345118DF8A7
:10351000021060089DF8021060F386118DF8021009
:103520009DF8020064F3C7108DF8020045208DF865
:1035300001008DF804808DF803901F4801788DF804
:103540000A1041788DF80B1081788DF80C1000214D
:103550008DF80D108DF80E10280C8DF80500290A35
:1035600000E021E08DF80610E9B28DF8071013484D
:10357000007828B900218DF808108DF8091008E0AE
:103580003868808801128DF80810386801798DF844
:1035900009109DF80F0020F00F00401D8DF80F005E
:1035A00010216846FFF7C4F9BDE8FF8790080020A6
:1035B00018000020B40800205D0000202400002036
:1035C00070B504460E460025002C30D020680068F7
:1035D00068B32079062811DA0F252079454304F1D4
:1035E0000C0148190F223146FCF7CEFD002122794B
:1035F000A01D81542079401C207118E04B2204F159
:103600001B0104F10C00FCF7BFFDD4F80710C4F84F
:103610000610E07AA0720F2505EB850504F10C0178
:1036200048190F223146FCF7AFFD0021E17270BD51
:103630002DE9F04385B004460E460027B946B8464A
:103640001422BB496846FCF79FFD6D4620780D2883
:103650007ED2DFE800F0070D0E2716396284BDFD2B
:10366000FCFBE100022E02D16078B24908705BE1F8
:103670005AE1022E04D16078A52801D100BFFEE7EF
:1036800000BF022E0DD16078A5280AD10020AA49DA
:103690000870AA48006820F00100A849086000F0FE
:1036A0009FFF41E1022E0ED16078A5280BD10120A9
:1036B000A1490870A148006820F00100401C9F4902
:1036C000086000F08DFF2FE1032E25D1A078A528FA
:1036D00022D1607801280BD1994908709748006879
:1036E00020F00200801C9549086000F079FF13E08B
:1036F000607858B90020924908709048006820F01E
:1037000002008E49086000F06BFF05E06078022837
:1037100002D18C480169884706E1B01E032190FB65
:10372000F1F201FB1200C8B96078B8B9022711E0C4
:1037300014F80790781C205C00EB0929B81C205C69
:1037400000EB09297F48494682689047F81C00E051
:10375000E9E087B2B742EBDB00F042FFE4E0B01EE5
:10376000032190FBF1F201FB1200C0B96078B0B9FF
:1037700002270FE014F80790781C205C00EB092961
:10378000B81C205C00EB09296E484946C268904786
:10379000F81C87B2B742EDDB00F022FF17E060783B
:1037A000012814D102270EE0E15D66488269904746
:1037B0008046B8F1000F04D06248D8F80010C26803
:1037C0009047781C87B2B742EEDB00F009FFABE010
:1037D00060780004A17840EA0120E17840EA01091C
:1037E00058484946C26990478046B8F1000F12D048
:1037F000B8F804000012687198F80410A9712079D3
:10380000E871E879421C611D05F10800FCF7BCFC79
:10381000284600F0CBF887E060780004A17840EA01
:103820000120E17840EA010946484946C2699047CB
:103830008046B8F1000F06D1424849468268904759
:10384000804600F0CDFEB8F1000F02E05DE051E0EF
:1038500017E015D00120E8704FEA194028714FEAAF
:103860001920687185F806902079E871E879421C82
:10387000611D05F10800FCF787FC284600F096F86A
:1038800052E060780004A17840EA0120E17840EA43
:1038900001092C484946C26990478046B8F1000F9B
:1038A00027D00020E87000212971B8F80400001228
:1038B000687198F80410A97120480079E871EA79D4
:1038C0001E49491D05F10800FCF75EFC0521EA7957
:1038D00005F108008154284600F068F80120E870DE
:1038E00061782971A0786871E178A971284600F0A3
:1038F0005DF819E0012E07DD721E611C0F48001DE6
:10390000FCF742FC00F06CFE0EE061780906A2783C
:1039100041EA0241E27841EA0221227941EA0200C9
:10392000FCF776FF00E000BF00BF05B0BDE8F08304
:10393000E84600081D000020240000207C00002034
:103940001C0000209008002070B50546002400BF30
:1039500027E004EB840000EBC400134951F8300069
:103960000068E0B10020E87004EB840000EBC400C4
:1039700051F830008088000A687104EB840000EB85
:10398000C40051F830000179A97104EB840101EB06
:10399000C401054A02EBC1002946FFF711FE601C75
:1039A00084B2FF2CD5DD70BDB40800202DE9F041B4
:1039B00004460027B84600250026E07848B9A079DB
:1039C000617940EA01271A483946826990470546DD
:1039D0000CE020790004617940EA0120A17940EAF5
:1039E000010813484146C26990470546C5B11148D0
:1039F0000068854205D30F48006800F500608542E5
:103A000001D900200AE00B480068281AC00800EB22
:103A1000800101EBC000084901EBC000064600E050
:103A200000261EB121463046FFF7CAFDBDE8F081F1
:103A30009008002018000020B40800202DE9F04371
:103A400085B0054688460024A1460026002700BF11
:103A50002C464146284600F0B1F8392831D1E078AB
:103A6000217960F31F2189466079A17960F31F21D4
:103A70000E46B9F1000F1FD166B1A6F57F40FC38A4
:103A800030B1032812D12846FFF75EFF022712E06B
:103A9000052710E015480078401C14490870E179AA
:103AA00004F10800FFF7C4FD042704E02846FFF7EF
:103AB0007DFF032700BF04E04FF6FF70864200D071
:103AC000012746208DF8010060788DF80200A1786A
:103AD0008DF803108DF804706846FFF735FC062159
:103AE0006846FEF725FF05B0BDE8F08325000020FD
:103AF00010B5002400201B49087000F03DFD1A4855
:103B0000007800F001001949087017480078C0F3E8
:103B1000400017490870002242F210711548FDF765
:103B2000EFF94FF4D0411448FCF747FB00BF0CE01D
:103B30001248006800EBC40004EB840101EBC401EF
:103B40000D4A42F83100601C84B2FF2CF0DD4FF4C6
:103B500080720A4801680A48FDF77EF90020094989
:103B6000087010BD250000207C00002024000020EB
:103B70001C000020853F0008B40800201800002029
:103B8000900800202600002010B5FFF737FC002029
:103B9000FFF71EFC0022064801680648FDF7B0F951
:103BA000002242F210710448FDF7AAF910BD00008E
:103BB00020000020D1330008B93D000830B503468D
:103BC0001A46F02000241578C5F3810535B1012D82
:103BD0002DD0022D2CD0032D32D12AE01578C5F33B
:103BE000400545B15578452D03D1102900D1452018
:103BF00000E000BF1AE0157805F001055DB1957889
:103C0000C5F300151DB10F2910D142200EE009297E
:103C10000CD141200AE09578C5F300151DB10F299C
:103C200004D1442002E0092900D1432009E008E042
:103C300007E0DD7905F10904A14200D1392000E057
:103C400000BF00BF30BD000010B50446FF2C2EDCC5
:103C500004EB840000EBC400154901EBC0000079BF
:103C6000012824DB04EB840202EBC4020B4603EBC5
:103C7000C20202F11B0104EB840202EBC40203EB5B
:103C8000C20202F10C004B22FCF77EFA04EB840026
:103C900000EBC400064901EBC0000079401E04EBB4
:103CA000840101EBC401024A02EBC101087110BD9D
:103CB000B40800202DE9F04186B004460D463B498A
:103CC000D1E900028968CDE9042103908DF80E4006
:103CD000364A0C32D2E900109268CDE90102009117
:103CE0008DF802400026B046FDF76AF907463048D5
:103CF0002946C26990470646002E53D02D480078C9
:103D000001284FD124B1012C26D0022C48D124E027
:103D1000280C8DF80300290A8DF80410E9B28DF8FB
:103D2000051030798DF806002148016A8847C0B235
:103D30008DF8070006220DF102010120FDF7C2F8FF
:103D400000F0FF088DF80880F5218DF809100A2190
:103D50006846FCF7EDFF24E000BF380C8DF80F003B
:103D6000390A8DF810108DF8117030798DF8120025
:103D70000F48016A8847C0B28DF8130006220DF182
:103D80000E010120FDF79EF800F0FF088DF8148069
:103D9000F5218DF815100A2103A8FCF7C9FF00E0F2
:103DA00000BF00BF06B0BDE8F0810000B0460008CB
:103DB000900800202400002030B589B0044600257A
:103DC0006949D1E90023D1E90201CDE90523CDE913
:103DD0000701664880788DF81900644841788DF8AD
:103DE0001A1001788DF81B105F4B10330FCBCDE903
:103DF0000323CDE901015D4880788DF809005B4817
:103E000041788DF80A1001788DF80B1001788DF843
:103E10000E1041788DF80F1081788DF810105448ED
:103E200001788DF818100088001240B28DF8170044
:103E30005048007802280ED04D4800880A2190FB97
:103E4000F1F201FB1200012802D14A49087002E098
:103E50000020484908704748007830BB4548007842
:103E60008DF81500FDF786FA8DF81C00FDF77CFA39
:103E70008DF81D00FDF784FA8DF81E009DF81F00D7
:103E800000F07F018DF81F109DF81F003A49097856
:103E9000012901D1802100E0002108438DF81F0095
:103EA0003648017805A801733BE0324800780128C4
:103EB00014D1304800788DF815003148016A8847E0
:103EC000C0B28DF81C0000218DF81D108DF81E1059
:103ED0008DF81F1005A80173417322E02548007872
:103EE000022817D1234800788DF815002578062D73
:103EF00007D1D4F801000790B4F80500ADF8200010
:103F000004E0FF22062107A8FCF750F90020194918
:103F1000087006E0174800788DF815000020154954
:103F20000870134800880A2190FBF1F201FB12008F
:103F300060B90F4801788DF808100088001240B26F
:103F40008DF80700102101A8FEF7F2FC0F2105A84B
:103F5000FEF7EEFC06480088401CC0F30E00044942
:103F6000088009B030BD0000C84600085D00002090
:103F7000280000202600002024000020250000202A
:103F80009008002070B506460024002500BF00BF41
:103F900033E0002525E004EB840000EBC400184961
:103FA00001EBC000801D405D401CC1B204EB8400E9
:103FB00000EBC400124A02EBC000801D415504EB27
:103FC000840000EBC400114601EBC000801D405D81
:103FD0000C490978884202DB2046FFF735FE681C51
:103FE000C5B204EB840000EBC400054901EBC0003E
:103FF0000079A842CFDC601C84B2FF2CC9DD70BD03
:10400000B40800201D000020F8B505460E46002724
:104010000024002000902F46F87900F10904B442F2
:1040200022DCFF2C20DAFA20009001216846FCF700
:104030007FFEE0B2009001216846FCF779FE214640
:104040002846FCF775FE224629460120FCF73AFF78
:10405000C0B2009001216846FCF76AFEF52000908E
:1040600001216846FCF764FEF8BD00002DE9FF4F12
:104070008BB0054691469A460026B046002400279C
:1040800001200A904FF0F00B0020099008908B4916
:1040900003C9CDE9060114228849083101A8FCF7BB
:1040A00073F828460C99FFF789FD8346ABF1410070
:1040B000052825D2DFE800F01312151403006F1D48
:1040C0002879089095F903000990387800047978E8
:1040D00040EA0120B97840EA010612E000BF00BFC3
:1040E00000BF6F1D2879089095F903000990387872
:1040F0000004797840EA0120B97840EA010600E03E
:1041000000BF00BF002E7DD06D480078012804D18B
:104110006C4831468268904780466A483146C26999
:1041200090478046B8F1000F01D1002418E066489E
:104130000068804505D36448006800F5006080454C
:1041400001D900200BE060480068A8EB0000C0081F
:1041500000EB800101EBC0005C4901EBC0000446AC
:1041600084B3207900282DDD0F2104F10C00FFF726
:104170004BFF20680068000C8DF81900206800884B
:10418000000A8DF81A00206800788DF81B00FF20C7
:104190008DF81E00607B8DF81C00A07B8DF81D0043
:1041A00002204B49087006A8FFF706FE4B2204F1D7
:1041B0001B0104F10C00FBF7E7FF2079401E207182
:1041C00000200A90300C8DF80600310A8DF8071097
:1041D0008DF808608DF809908DF80AA0FF218DF800
:1041E0000B1000218DF80C108DF80D108DF80E10AD
:1041F0009DF80F0020F00F00401D8DF80F009DF876
:104200000F0000E056E020F0F0018DF80F10ABF148
:10421000410005284CD2DFE800F0161535340300C4
:10422000AB783046DDE90812FFF70AF90C2101A846
:10423000FEF77EFB0A98012803D131460020FFF7E4
:1042400039FD36E000BF28460C99FEF771FB0C21C2
:1042500001A8FEF76DFB64B1607950B9AB783046C8
:10426000DDE90812FFF7ECF831460020FFF722FDE8
:1042700006E00A98012803D131460220FFF71AFD13
:1042800017E000BF28460C99FEF752FB0C2101A84D
:10429000FEF74EFB5CB1607948B9AB783046DDE99A
:1042A0000812FFF7CDF831460020FFF703FD00E0CC
:1042B00000BF00BF0FB0BDE8F08F000080460008CF
:1042C0001C0000209008002018000020B4080020E6
:1042D000260000200FB4084B10B504A902AA0398C9
:1042E00000F01CF8044602A9002000F0C1F82046A6
:1042F00010BC5DF814FB00007144000802E008C81F
:10430000121F08C1002AFAD170477047002001E04F
:1043100001C1121F002AFBD1704700002DE9FF4F99
:1043200089B09B460446002506E025280BD05A4656
:104330000B999047641C6D1C20780028F5D10DB0B6
:104340002846BDE8F08F0027B8460122474900E023
:10435000074314F8013F203B02FA03F00842F7D16B
:1043600020782E2819D114F8010F47F004072A28C5
:104370000ED06FF02F022078A0F1300109290CD85F
:1043800008EB880102EB410100EB0108641CF2E735
:104390000A98641C50F8048B0A9020780028CED02C
:1043A000642808D0692806D075281ED05A460B9973
:1043B00090476D1C58E00A994FF00A0901C90A910B
:1043C000002802DA40422D2102E0390504D52B21D4
:1043D0008DF82010012103E0F90704D02021F7E730
:1043E0008A4608AE0DE00021FAE70A994FF00A0963
:1043F00001C90A91F7E74946FBF7C6FF303106F8D5
:10440000011D0028F7D1ADEB060000F12009780767
:1044100001D44FF00108C84502DDA8EB090000E017
:1044200000208046002706E008A85A46C05D0B9988
:1044300090476D1C7F1C5745F6DB04E030205A4640
:104440000B9990476D1CB8F10001A8F10108F5DC4B
:1044500005E016F8010B5A460B9990476D1CB9F10F
:104460000001A9F10109F4DC641C65E709280100D9
:104470000A68531C0B601070704700001CB50A20BE
:104480008DF804004FF0E02035494161354AF021B4
:1044900082F8141D00218161072101610120FEF7CE
:1044A00065FC6120FEF74AFC0028FAD045F2555021
:1044B000FEF7F8FA0420FEF7E9FA4FF44870FEF729
:1044C000EBFAFEF7DBFAFEF7D1FA4FF41640FEF7EF
:1044D00093FE01211020FEF7B5FB10248DF8034058
:1044E0006501214FADF8005003268DF80260694642
:1044F0003846FCF76DFE29463846FCF7E7FE0121F9
:104500000420FEF79FFB8DF80340E001ADF80000AA
:10451000164C8DF8026069462046FCF759FE294684
:104520002046FCF7D3FEFCF781FBFEF7C3FAFCF74D
:104530005FFD0F48FCF758FFFCF752FAFFF7D8FA77
:1045400001AA4FF4FA710B48FCF7DAFCFEF796FA71
:10455000FCF756FDFEF7E4F9FCF7A2FAF6E70000D7
:104560003F1901000FE000E0001001400008014089
:10457000893B0008792D000870B50025002400262D
:1045800002261548B10201FB160440F6140221462A
:104590000120FCF797FC0546D4F81408A84206D180
:1045A00040F6140221460D48FBF7EEFD12E040F6FE
:1045B00014010A48FBF701FE0120084908600420A5
:1045C0000871212105484171AB218171CD21C17153
:1045D0005521017270BD0000000004087C0000201D
:1045E0002DE9F0470024002600250027A0464FF0C3
:1045F00003094FF0020820484FF4006101FB180541
:10460000FCF790FD2CE000241C4F06E04FF4006105
:1046100001FB0450FCF724FD641C4445F6D3002440
:1046200005E028193968FCF755FD3F1D241D40F6AB
:1046300014008442F5D3024610490120FCF742FCE5
:10464000064628193146FCF745FD40F61402294676
:104650000120FCF737FC06462859B04200D106E09D
:104660005FEA0900A9F1010101F0FF09CBD100BF08
:10467000FCF728FDBDE8F087000004087C0000205E
:104680000600000000000000A84900000000000033
:10469000000000000000000000000000A948000029
:1046A0000000000000000000000000000500000005
:1046B000F50600000000000000000000F506000004
:1046C0000000000000000000A10013000000000036
:1046D0000001020304050500A245130000000000CC
:1046E0000000000000000005AC12340000000000D3
:1046F00000000000000000000000000000070E099C
:104700001C1B1215383F363124232A2D70777E79F1
:104710006C6B6265484F464154535A5DE0E7EEE9E1
:10472000FCFBF2F5D8DFD6D1C4C3CACD90979E99D1
:104730008C8B8285A8AFA6A1B4B3BABDC7C0C9CEC1
:10474000DBDCD5D2FFF8F1F6E3E4EDEAB7B0B9BEB1
:10475000ABACA5A28F88818693949D9A2720292EA1
:104760003B3C35321F18111603040D0A5750595E91
:104770004B4C45426F68616673747D7A898E878081
:1047800095929B9CB1B6BFB8ADAAA3A4F9FEF7F071
:10479000E5E2EBECC1C6CFC8DDDAD3D4696E676061
:1047A00075727B7C51565F584D4A4344191E171051
:1047B00005020B0C21262F283D3A33344E49404741
:1047C00052555C5B7671787F6A6D64633E39303731
:1047D00022252C2B0601080F1A1D1413AEA9A0A721
:1047E000B2B5BCBB9691989F8A8D8483DED9D0D711
:1047F000C2C5CCCBE6E1E8EFFAFDF4F30091E37239
:104800000796E4750E9FED7C0998EA7B1C8DFF6E80
:104810001B8AF8691283F1601584F66738A9DB4AB0
:104820003FAEDC4D36A7D54431A0D24324B5C756A0
:1048300023B2C0512ABBC9582DBCCE5F70E1930290
:1048400077E694057EEF9D0C79E89A0B6CFD8F1E40
:104850006BFA881962F3811065F4861748D9AB3A70
:104860004FDEAC3D46D7A53441D0A23354C5B72660
:1048700053C2B0215ACBB9285DCCBE2FE071039250
:10488000E7760495EE7F0D9CE9780A9BFC6D1F8E00
:10489000FB6A1889F2631180F5641687D8493BAA30
:1048A000DF4E3CADD64735A4D14032A3C45527B620
:1048B000C35220B1CA5B29B8CD5C2EBF900173E210
:1048C000970674E59E0F7DEC99087AEB8C1D6FFEC0
:1048D0008B1A68F9821361F0851466F7A8394BDAF0
:1048E000AF3E4CDDA63745D4A13042D3B42557C6E0
:1048F000B32250C1BA2B59C8BD2C5ECFDDDDDDDD42
:10490000DCBBBBDDDDDDDDDDDDDDDDDD9888888860
:104910008888888877777777778888888555555607
:10492000666666666666666666688888833333325E
:1049300022222222222222222228888D5C4900085B
:10494000000000207C000000FC420008D84900085C
:104950007C000020B49C00000C4300080000000014
:10496000A947000000050000000000000000000052
:104970000000000090000020003C000060EA000001
:10498000010000000000000000000001C092ED19CD
:1049900000000000AA55FF00000000FFAA5500001B
:1049A0000000000000000000000001000000000006
:1049B00000000000000000000000000000000000F7
:1049C00000000000020406080000000001020304C9
:0849D0000102030406070809B7
:04000005080001519D
:00000001FF
